:100000004AC000007BC0000079C0000077C000003B
:1000100075C0000073C0000071C000006FC0000018
:100020006DC000008EC5000069C0000067C0000000
:1000300065C0000063C0000061C000005FC0000038
:100040005DC000005BC0000059C0000057C0000048
:1000500055C0000053C0000051C000004FC0000058
:100060004DC000004BC0000049C00000C5C50000E5
:10007000BEC50000C6C5000041C00000454647653A
:10008000666700202B2D2E30313233343536373829
:1000900039680000140711241FBECFEFCDBFDFE386
:1000A000DEBF8091400080934000811105C098ED33
:1000B00021E094BF209341008CBB2DE3ACE0BCE376
:1000C00001C01D92AB31B207E1F71CE3A0E0BCE335
:1000D000E1E2F4E202C005900D92AC30B107D9F72D
:1000E00010E0CBE4D0E004C02197FE010E94120E84
:1000F000CA34D107C9F7AFD60C94241081CF892B0D
:10010000C9F08FEF9FEF8093913C9093923C81E0F8
:1001100084668093170880911508807CE1F38091B4
:10012000150883FD09C0809115088295817091E0C2
:100130008927089580E0ECCF80E00895CF93DF9386
:10014000EC0190E080E0DBDF811102C080E03CC088
:100150008091150886FFFCCF80E18093180882E02B
:10016000809314088091150884FDF0CF8FEF9FEFE6
:10017000C6DF882359F3FE019E01285F3F4F46E00A
:1001800052E08091913C9091923C009729F0019728
:100190008093913C9093923C8091150887FFFCCF0F
:1001A000809118086091913C7091923C672B79F096
:1001B000509314088193E217F30719F787E08093AF
:1001C000140881E0CD2B11F2DF91CF910895409377
:1001D0001408F0CFFC0153894489252F30E0842F87
:1001E00090E0821B930B541710F04F9608950197DF
:1001F0000895FC0191898289981761F0A289AE0F58
:10020000BF2FB11D55968C9192899F5F9F73928BE2
:1002100090E008958FEF9FEF0895FC019189828906
:10022000981731F08289E80FF11D858990E00895D3
:100230008FEF9FEF0895FC0191892289892F90E02B
:10024000805C9F4F821B91098F7399270895CF93EC
:10025000DF93EC01E881F9810680F781E02D0995B3
:10026000EC85FD85868116828581158280E48483F4
:100270008A89898B188ADF91CF910895DC010FB6A6
:1002800007FE04C0809111018823B1F01C96ED9106
:10029000FC911D97848185FF0FC053969C915397C5
:1002A00054968C91981721F085818F7D85830895D0
:1002B000E3E9FCE3E894E8C308950F931F93CF9319
:1002C000DF93EC018889982F9160988B2B899C890A
:1002D00029130AC0EC85FD85948195FF05C081FD39
:1002E0000DC080E4848312C0062F1B891F5F1F711D
:1002F0008C89811315C0CE01C1DFFACF85818F773C
:10030000806490E49483EC85FD858583EC85FD8590
:10031000628381E090E0DF91CF911F910F9108956A
:10032000EB89EC0FFD2FF11DEB5AFF4F00831B8B68
:10033000EC85FD85888981FF09C085818F7780667E
:1003400090E49483EC85FD858583E3CF858180628D
:10035000FBCFCF93DF93EC018889882359F0EC859C
:10036000FD85858185FD03C0848186FD03C0CE01A6
:1003700085DFF5CFDF91CF9108958FB7F894609125
:10038000210A90910B0A20918C3C30918D3C409138
:100390008E3C50918F3C8FBF8EEF861B91FF06C025
:1003A000843020F42F5F3F4F4F4F5F4F93E0899F82
:1003B000F0011124982F92959F70E91BF109869501
:1003C0008695E80FF11DA0E3B3E00E94D70D6E0FF4
:1003D0007F1F811D911D0895CF92DF92EF92FF92B2
:1003E000CF93DF936B017C01C8DFEB01C114D10413
:1003F000E104F10441F412C081E0C81AD108E10817
:10040000F108C851DC4FB9DF6C1B7D0B683E7340AF
:1004100068F3C114D104E104F10471F7DF91CF91C5
:10042000FF90EF90DF90CF9008952FB7F8946091F0
:10043000883C7091893C80918A3C90918B3C2FBF85
:100440000895AF92BF92CF92DF92EF92FF920F93F7
:100450001F93CF93DF936C017B018B01040F151F5A
:10046000EB015E01AE18BF08C017D10759F06991C2
:10047000D601ED91FC910190F081E02DC601099526
:10048000892B79F7C501DF91CF911F910F91FF90D3
:10049000EF90DF90CF90BF90AF90089581E00895E6
:1004A000DC01ED91FC910088F189E02D23E030E042
:1004B0000994FC0101900020E9F73197AF01481B36
:1004C000590BBC0183E99CE3BCCFCF93DF93FC01C4
:1004D000448155816081718183E99CE3B2DFEC0145
:1004E0008BEB90EAE6DF8C0F9D1FDF91CF91089593
:1004F000CF93DF93DEDFEC018BEB90EADADF8C0F3A
:100500009D1FDF91CF9108958F929F92AF92BF92DE
:10051000CF92DF92EF92FF920F931F93CF93DF93CF
:10052000CDB7DEB7A197CDBFDEBF6C01990FEE0846
:10053000FF08F7FE3CC06DE283E99CE3BEDE8C0160
:1005400022273327A9012C193D094E095F0919A259
:10055000CE0181967C019AE0892E912CA12CB12CA0
:10056000CA01B901A50194010E94F00D605DF70177
:1005700062937F01211531054105510589F790E00E
:1005800080E0309711F0CF0194DF800F911FA1968A
:10059000CDBFDEBFDF91CF911F910F91FF90EF9004
:1005A000DF90CF90BF90AF909F908F900895A7015C
:1005B000960119A28E010F5D1F4F8AE0C82ED12C23
:1005C000E12CF12CCA01B901A70196010E94F00D9E
:1005D000605DF80162938F012115310541055105D8
:1005E00089F790E080E0309791F2CF0162DFCFCFC2
:1005F000CF93DF93EC0188819981009711F00E94DD
:10060000B40E188219821C821D821A821B82DF910D
:10061000CF910895FC01808191810C94B40E8631B4
:10062000F0F490E0FC01ED57FF4520812F3FB9F039
:10063000FC01E359FF45E081E295EE0FF0E0F46044
:10064000613071F42183895A9F45DC018C9180616E
:10065000E80FF11D8081613029F088608083089562
:100660002283F1CF877FFACF62E08AE0D8DF62E0B1
:100670008BE0D5DFE0E1F8E0168281E083838583BB
:1006800008958F929F92AF92BF92EF92FF920F9335
:100690001F93CF93DF938C014A015B01E901DC01D9
:1006A00050968C91509780FF07C0ED91FC91028885
:1006B000F389E02DC8010995C11101C0C3E0EC2EFA
:1006C000E894E2F8FD2ECD2FD095D07CB5EB8B16BB
:1006D000B4EC9B06B4E0AB06B10428F0D260B6944B
:1006E000A7949794879460E07DE281E391E0A5016F
:1006F00094010E94F00D2034310510F420E430E024
:10070000F2FCD8608C2F8B72D7FD8068CD2FC87C0F
:1007100083FF07C0C83C29F4F80190899260908B50
:10072000C8ED80FDC160FFB6F894D8011C96ED912C
:10073000FC911682E7822087318785FF3FC0CF7703
:1007400091E094879FEF95878F7D8583D683F8010D
:100750002785868590910102222391F191609093E3
:100760000102820F9927991F880F991F880F991FDF
:100770008C0107561F45C6FF25C0C3FD23C061E09D
:10078000D8018C914CDFC7FF07C0C4FD05C062E0F3
:10079000D80111968C9143DFC0FF04C061E0F801DD
:1007A00083813DDFFFBEDF91CF911F910F91FF90BD
:1007B000EF90BF90AF909F908F9008951486C4CF14
:1007C0009E7FCDCF2C2F2075F1F287569F4562E09A
:1007D000FC018081D7CF0F931F93CF93DF93EC0160
:1007E00088819981009759F02A813B812617370724
:1007F00030F081E0DF91CF911F910F9108958B012F
:100800006F5F7F4F0E943D0F009759F08883998357
:100810000A831B832C813D81232B59F7FC01108215
:10082000E8CF80E0E7CFEF92FF920F931F93CF9333
:10083000DF936115710541F480E0DF91CF911F9145
:100840000F91FF90EF90089541155105A9F07B019C
:10085000EC010C811D81040F151FB801BCDF88233A
:1008600059F3288139818C819D81B701820F931FB3
:100870000E94FC0F0C831D8381E0DFCFCF93DF93B9
:10088000EC01FB0101900020E9F73197AF01461B15
:10089000570BC9DF811102C0CE01AADECE01DF9164
:1008A000CF910895CF93DF93EC01FB0144815581F3
:1008B00060817181B8DF811102C0CE0199DECE0165
:1008C000DF91CF910895EF92FF920F931F93CF93F3
:1008D000DF93EC017B018A01BA017DDF81110AC03F
:1008E000CE0186DECE01DF91CF911F910F91FF9057
:1008F000EF9008950C831D83B701888199810E9430
:10090000FC0FF0CFEF92FF920F931F93CF93DF93E3
:10091000CDB7DEB76297CDBFDEBF8C01CB01F8014A
:100920001082118212821382148215824AE09E0183
:100930002F5F3F4F7901B9010E94160DF701019019
:100940000020E9F73197AF014E195F09B701C801DF
:10095000BADF6296CDBFDEBFDF91CF911F910F91BD
:10096000FF90EF900895FC01108211821282138291
:10097000148215826115710549F0FB010190002078
:10098000E9F73197AF01461B570B9DCF0895CF92E2
:10099000DF92EF92FF920F931F93CF93DF93CDB728
:1009A000DEB72C97CDBFDEBF2091903C211158C0FF
:1009B0007C016EEB70EACE010196D5DFB701CE0166
:1009C000019670DF66EB73EA59DF7FDDCE01019699
:1009D00021DE8E01095F1F4F63EC70EAC801C3DF9F
:1009E000D12CC12CF70184819581C816D90664F5F4
:1009F00019821A821B821C821D821E826F81788559
:100A00006115710529F04B855C85CE0101965BDF90
:100A100063EC70EACE01019631DF8017910751F047
:100A2000FC01608171816115710559F04481558126
:100A3000C80149DFCE010196EDDDFFEFCF1ADF0AD5
:100A4000D1CFC801D5DDF6CFC8013FDD81E080936D
:100A5000903C60ED77E080E090E0BEDCC801DADD3C
:100A60002C96CDBFDEBFDF91CF911F910F91FF90EC
:100A7000EF90DF90CF9008952F932FB72F938F9300
:100A80009F93AF93BF936894CF93DF9320E0C48587
:100A9000D8E09489DF01A90FB21FAB5ABF4F8C91E8
:100AA00020E42C838A839F5F9F718D812389291382
:100AB00002C08F7D8D83948BDF91CF910EF0FCCBA4
:100AC000BF91AF919F918F912F912FBF2F91FF9148
:100AD000EF9118952F932FB72F938F939F93CF93C9
:100AE000DF93C485D8E08981988181FD0DC0C189DB
:100AF00081E08C0F8F732289281731F0CE0FDF2F02
:100B000020E0D21F9D8B818BDF91CF919F918F91A0
:100B10002F912FBF2F91FF91EF911895FF938F93F6
:100B20008FB78F93F8E08081848187FFFCCF858128
:100B30008F7B806885838F918FBF8F91FF91EF911D
:100B400018951F920F920FB60F9211242F933F9377
:100B50004F935F936F938F939F93AF93BF938091C6
:100B6000883C9091893CA0918A3CB0918B3C40910B
:100B7000863C5091873C9A01205D3C4F283E63E0C3
:100B8000360728F0285E33400196A11DB11D209341
:100B9000863C3093873C8093883C9093893CA0931B
:100BA0008A3CB0938B3C80918C3C90918D3CA09181
:100BB0008E3CB0918F3C0196A11DB11D80938C3C61
:100BC00090938D3CA0938E3CB0938F3C82E08093B9
:100BD0000B0ABF91AF919F918F916F915F914F9150
:100BE0003F912F910F900FBE0F901F901895EF938C
:100BF000FF93E3E9FCE340CFEF93FF93E3E9FCE3EA
:100C000069CFEF93E0E08ACFABE0B0E0E9E0F6E057
:100C1000D5C66C017B013A01FC01168217828381E3
:100C200081FFFFC0CE0101964C01F601B380F701B0
:100C3000B3FC0591B3FE01917F01002341F1053220
:100C400039F4B3FC0591B3FE01917F01053239F50A
:100C5000B601802F90E00DD753013501E6CF106823
:100C6000F701B3FC0591B3FE01917F0117FD0DC0A3
:100C7000002369F0602F70E083E890E0CCD6892BE8
:100C800079F7033251F00C3651F301110AC0F60125
:100C9000868197812B96EEE0AAC610E1E1CF10E0A5
:100CA000E5CF602F70E08CE790E0B5D6892B49F056
:100CB0005301F4E0AF0EB11CB6018FE390E0D9D63A
:100CC000CCCF033609F452C0033709F459C00335B9
:100CD00009F455C0043619F0093609F070C0530103
:100CE00017FF62C0F4E0AF0EB11CF30160817181A7
:100CF000828193811F7E97FF08C0909580957095A3
:100D000061957F4F8F4F9F4F10642AE030E0A40120
:100D1000E0D6082F081916FF04C0B6018DE290E056
:100D2000A8D614FF13C0FE01E00FF11D80818033AF
:100D300069F0B60180E390E09CD612FF07C0107204
:100D4000812F90E0B601885A9F4F93D6015010E052
:100D50000F5F1F4F080D191DF80182918F01B60119
:100D600090E087D608151905B9F777CF530182E0CF
:100D7000A80EB11CB601F30180819181A0CF116052
:100D80005301F2E0AF0EB11CF30160807180F301FA
:100D900010FD859110FF81913F01882309F45DCFFB
:100DA000B60190E066D6F3CFF2E0AF0EB11CF301CE
:100DB00060817181072E000C880B990B9BCF003747
:100DC00009F140F4083501F10F3609F060CF28E051
:100DD00030E00CC0053739F0083709F058CF1462FD
:100DE00020E130E003C01F7E2AE030E0530117FF0E
:100DF0000FC0F4E0AF0EB11CF301608171818281FC
:100E0000938185CF1061EBCF146020E132E0EECF0B
:100E1000F2E0AF0EB11CF3016081718190E080E0DF
:100E200076CF8FEF9FEF36CFE3E9FCE31282138298
:100E300088EE93E0A0E0B0E084839583A683B78337
:100E400085EA90EA8083918380E098E084879587A3
:100E5000168617860895CF93DF93CDB7DEB72E970A
:100E6000CDBFDEBF88ED93E084BF9093610081E544
:100E7000809302068DE08093050680E2809303064E
:100E800081E0809300068093030A8EEF8093260A08
:100E90008093270A89E08093000A80910A0A826081
:100EA00080930A0A7894789440E052EC61E070E014
:100EB00083E99CE3F5DA68E873E180E090E08CDA9E
:100EC000B4DA6093403C7093413C8093423C9093F1
:100ED000433CABDA6093643C7093653C8093663C22
:100EE0009093673C4ADA6093703C7093713C8093B6
:100EF000723C9093733C99DA6093783C7093793CA0
:100F000080937A3C90937B3C01E010E0442443942E
:100F1000512C8EEFD82E91E1692E712C8091853C59
:100F2000811106C085EC90EAE3DA81E08093853C8C
:100F30006EEC70EACE01019616DDCE01019627DD3A
:100F4000CE01019667DB8091843C811139C1CC24AC
:100F5000C3946BDA6093443C7093453C8093463C69
:100F60009093473C8090403C9090413CA090423C04
:100F7000B090433C681979098A099B096436710568
:100F80008105910530F380913F3C811150C08091E3
:100F90003E3C811147C080913D3C811143C0C80156
:100FA0000090003C02C0880F991F0A94E2F7F89461
:100FB0008093010480930504809302042091080427
:100FC000282331E009F430E030933C3C8093010465
:100FD000809306048093020490910804892391E091
:100FE00009F490E090933B3C789420913C3C8091B4
:100FF000003C9091013CFC01EE0FFF1FE55DF34CBE
:10100000222309F406C120913B3C211102C1008337
:1010100011830196883091050CF0FEC08093003C4E
:101020009093013C80913F3C882309F461C08091FA
:101030003E3C811162C080913D3C81115EC0809137
:101040002B3C90912C3C9C012250310922303105DF
:1010500008F034C1C0922A3C10923C3C10923B3CB8
:1010600020912A3C211125C0A80102C0440F551F20
:101070008A95E2F7CA01F89440932104409325042D
:101080004093220420912804242331E009F430E025
:1010900030933C3C80932104809326048093220467
:1010A00090912804892391E009F490E090933B3CCF
:1010B000789420912B3C30912C3C40913C3CC901D0
:1010C000880F991F865E934C442309F4FAC040911F
:1010D0003B3C4111F6C0DC010D931C932F5F3F4F49
:1010E000293031050CF0F1C020932B3C30932C3C7F
:1010F00080913F3C882309F493C180913E3C882332
:1011000009F44CC080913D3C811148C0C801009059
:10111000183C02C0880F991F0A94E2F7F894809354
:10112000410480934504809342042091480428237D
:1011300031E009F430E030933C3C809341048093EB
:1011400046048093420490914804892391E009F475
:1011500090E090933B3C789420913C3C8091183CEB
:101160009091193CFC01EE0FFF1FE45FF34C22232A
:1011700009F401C120913B3C2111FDC00083118382
:101180000196863091050CF0F9C08093183C90933D
:10119000193C80913F3C882309F442C180913E3C38
:1011A000882309F43DC180913D3C882309F438C16E
:1011B00085E692EA9DD981E08093843C1092903C30
:1011C00068E872EACE010196CEDBCE010196DFDB44
:1011D000CE0101961FDA8091843C882309F446C130
:1011E0008091833C811142C13FDA90E080E00E940F
:1011F0007F0081112AC18091483C9091493C843103
:1012000091050CF01EC101968093483C9093493C97
:10121000EBCF10821182FDCE4092003C5092013CF7
:10122000C0923F3C88EE90EA63D9FDE28F2EFCE34A
:101230009F2EF12CE12CB12CA12CD4018D919D91EC
:101240004D01BFEFAB1ABB0A892BB9F482E091EADA
:1012500030D9C50159D987E191EA4AD9F7E0AF16EB
:10126000B10459F727E0E216F10459F485E291EA56
:101270003FD98EE391EA3CD9D5CEEFEFEE1AFE0AC4
:10128000EDCF85E591EA34D9B701CE0101963ADB7D
:1012900066E771EACE01099666DBBE016F5F7F4F9C
:1012A000CE010996FFDA61E471EAE8DA0ED9CE01DF
:1012B0000996B0D9CE010196ADD9B4CE10922A3C90
:1012C000CFCEFC011082118209CF10922B3C1092DC
:1012D0002C3CC0923E3C8FE791EA0AD97AE1872EF6
:1012E0007CE3972EB12CA12CF12CE12CD4018D9113
:1012F0009D914D01892BF1F4C7010297029740F0AF
:1013000089E991EAD6D8C701FFD887E191EAF0D8F8
:10131000EFEFEE1AFE0AF8E0EF16F10439F726E0D7
:10132000A216B10459F48EEA91EAE2D88EE391EA6A
:10133000DFD8DECEBFEFAB1ABB0AEACF81ED91EA70
:10134000D7D8B501CE010196DDDA66E771EACE01A4
:10135000099609DBBE016F5F7F4FCE010996A2DAC5
:1013600061E471EA8BDAB1D8CE01099653D9CE0186
:10137000019650D9BDCE1082118202CF1092183C36
:101380001092193CC0923D3C8CEF91EAB1D85CE0E0
:10139000852E5CE3952EF12CE12CB12CA12CD401EF
:1013A0008D919D914D01892BD1F486E192EA81D8EE
:1013B000C501AAD887E191EA9BD8EFEFAE1ABE0A21
:1013C000F6E0AF16B10459F726E0E216F10459F43D
:1013D0008BE292EA8DD88EE391EA8AD8DACEBFEF1B
:1013E000EB1AFB0AEACF84E492EA82D8B701CE0175
:1013F000019688DA66E771EACE010996B4DABE0191
:101400006F5F7F4FCE0109964DDA61E471EA36DAFB
:101410005CD8CE010996FED8CE010196FBD8B9CE94
:101420008091443C9091453CA091463CB091473C12
:101430008093403C9093413CA093423CB093433C0A
:1014400088CD1092483C1092493C0ED990E080E043
:101450000E947F00811165C210925F3C84EA92EA8B
:1014600047D881E08093833C1092903C66EC72EA0E
:10147000CE01019678DACE01019689DACE01019685
:10148000C9D88091833C882309F4C9C08091823CEB
:101490008111C5C080915F3C882309F4B2C08EE001
:1014A0009DE30E949E00882309F441C280910E3D75
:1014B000982F92959F702AE08F70929F800D112433
:1014C000833659F090910F3D392F32953F709F70C0
:1014D000329F900D11249B33D9F49981292F2295A5
:1014E0002F709F703AE0239F900D1124981748F4B5
:1014F00088E0FE013196AEE0BDE301900D928A9541
:10150000E1F7CE0101960E949E00882309F40FC2E4
:1015100081E080935E3C64E670E080E090E00E94B1
:10152000EC0120910F3D9091103D8091113D322FA3
:1015300032953F704AE0F42E2F703F9D200D11240C
:101540001F922F93292F22952F709F702F9D900D02
:1015500011241F929F93982F92959F708F709F9D3B
:10156000800D11241F928F938EED92EA9F938F939B
:101570008AE49CE39F938F9346D56AE47CE3CE0193
:101580000196F1D9CE0101960E946502CE01019625
:1015900041D82091153D9091143D8091133D322FFB
:1015A00032953F702F703F9D200D11241F922F9375
:1015B000292F22952F709F702F9D900D11241F921F
:1015C0009F93982F92959F708F709F9D800D1124EF
:1015D0001F928F938DEE92EA9F938F9383E59CE306
:1015E0009F938F9310D563E57CE3CE010196BBD921
:1015F000CE0101960E946502CE0101960BD8CDBFA7
:10160000DEBF80915E3C882309F498C18DE093EAA7
:101610000E94780281E08093823C1092903C6CE1C1
:1016200073EACE0101969FD9CE010196B0D9CE01C1
:1016300001960E940A038091603C811107C062E01C
:101640008EE00E940F0381E08093603C8091823C99
:10165000882309F45FC08091813C81115BC0CC2458
:10166000C3949AE0E92EF12C0E9415026093683C25
:101670007093693C80936A3C90936B3C8090643C8F
:101680009090653CA090663CB090673C68197909E1
:101690008A099B09683E73408105910528F3809172
:1016A000623C9091633C01968093623C9093633CD2
:1016B0008091480482FB882780F98093613C89E30C
:1016C00093EA0E9459028091613C8C2590E00E942F
:1016D000840284E493EA0E9459028091623C9091D2
:1016E000633CD701A81BB90BCD010E94840287E49B
:1016F00093EA0E9478028091623C9091633C0A9741
:101700000CF41FC11092623C1092633CC092813C69
:101710001092903C62E573EACE01019624D9CE0185
:10172000019635D9CE0101960E940A0380916C3C46
:10173000811135C08FE693EA0E94780288EB93EA24
:101740000E9478028DEB93EA0E94780282EC93EA81
:101750000E9478028FEC93EA0E94780284ED93EA6B
:101760000E94780282EC93EA0E94780289ED93EA63
:101770000E9478028EED93EA0E94780282EC93EA4E
:101780000E94780283EE93EA0E94780268E873E18F
:1017900080E090E00E94EC0181E080936C3C8091BD
:1017A0006D3C811113C080E2809341048093460414
:1017B000D092010490EF9093210480934604D0923C
:1017C00006049093250481E080936D3C8091813CD8
:1017D000882309F4A3CB8091803C81119FCB80EFBB
:1017E000C82E0E94BD016093743C7093753C809339
:1017F000763C9093773C8090703C9090713CA090A8
:10180000723CB090733C681979098A099B096A3067
:10181000710581059105C8F1D0920604C092250496
:10182000F89480916E3C90916F3C9301082E01C01A
:10183000220F0A94EAF7207F209327048E5F934CAF
:10184000DC01EC91F0E0E45BFF45808181B97894A4
:1018500080916E3C90916F3C0196843091050CF024
:1018600081C080936E3C90936F3C8091743C9091CA
:10187000753CA091763CB091773C8093703C9093FE
:10188000713CA093723CB093733CE0907E3CF0902E
:101890007F3C80917C3C90917D3CE816F906B9F044
:1018A000C7010297029708F064C0E2E0FCE381916F
:1018B0008C5FDF0111978A3008F059C08C93BCE32C
:1018C000E630FB07A1F7E0927C3CF0927D3C0E9461
:1018D00015028090783C9090793CA0907A3CB09032
:1018E0007B3C9B01AC01281939094A095B09490174
:1018F0005A0130EA83163FE09306A104B10408F4CC
:1019000070CF4FEFE41AF40AE0927E3CF0927F3CF5
:101910006093783C7093793C80937A3C90937B3CC5
:1019200060CF81E080935F3C85EB92EA99CD109285
:101930005E3C8EEF92EA0E94780263CE8EEF92EACE
:1019400067CE8091683C9091693CA0916A3CB091CF
:101950006B3C8093643C9093653CA093663CB09351
:10196000673C82CE10926E3C10926F3C7ECF1C92F0
:10197000A6CFE4E0EE16F1040CF4A5CF80E280934C
:101980004604D092060480EF8093250410927E3C9A
:1019900010927F3C10927C3C10927D3C81E094EA56
:1019A0000E94780280E091EA0E94780281E08093B0
:1019B000803CB4CA2F923F924F925F926F927F9277
:1019C0008F929F92AF92BF92CF92DF92EF92FF924F
:1019D0000F931F93CF93DF93CDB7DEB7CA1BDB0BFB
:1019E000CDBFDEBF09942A88398848885F846E8419
:1019F0007D848C849B84AA84B984C884DF80EE8033
:101A0000FD800C811B81AA81B981CE0FD11DCDBF74
:101A1000DEBFED010895FC010590061621F00020BF
:101A2000D9F7C00108953197CF010895BB274A30F7
:101A300031F4992322F4BDE2909581959F4F01C026
:101A4000BB27FB015527AA27880F991FAA1FA41798
:101A500010F0A41B83955051B9F7A05DAA3308F08C
:101A6000A95DA193009779F7B111B1931192CB01C0
:101A70008EC00F931F93CF93DF93182F092FEB0185
:101A80008B8181FD09C01FEF0FEF812F902FDF9118
:101A9000CF911F910F91089582FF14C02E813F8135
:101AA0008C819D81281739073CF4E881F981CF01A9
:101AB00001968883998310838E819F8101968E83FE
:101AC0009F83E3CFE885F985812F0995892BA1F3C1
:101AD000DACFFA01AA27283051F1203181F1E894B8
:101AE0006F936E7F6E5F7F4F8F4F9F4FAF4FB1E011
:101AF0003ED0B4E03CD0670F781F891F9A1FA11D0C
:101B0000680F791F8A1F911DA11D6A0F711D811D0C
:101B1000911DA11D20D009F468943F912AE0269FD1
:101B200011243019305D3193DEF6CF010895462F30
:101B30004770405D4193B3E00FD0C9F7F6CF462F11
:101B40004F70405D4A3318F0495D31FD405241937A
:101B500002D0A9F7EACFB4E0A69597958795779537
:101B60006795BA95C9F700976105710508959B01BE
:101B7000AC010A2E06945795479537952795BA9547
:101B8000C9F7620F731F841F951FA01D0895DC0104
:101B9000FC01672F71917723E1F7329704C07C91A4
:101BA0006D9370836291AE17BF07C8F3089509D093
:101BB000A59F900DB49F900DA49F800D911D1124A1
:101BC0000895A29FB001B39FC001A39F700D811D16
:101BD0001124911DB29F700D811D1124911D089536
:101BE000A1E21A2EAA1BBB1BFD010DC0AA1FBB1F21
:101BF000EE1FFF1FA217B307E407F50720F0A21B93
:101C0000B30BE40BF50B661F771F881F991F1A94FF
:101C100069F760957095809590959B01AC01BD0129
:101C2000CF010895EE0FFF1F0590F491E02D099468
:101C30000F931F93CF93DF938230910510F482E0CE
:101C400090E0E091193DF0911A3D30E020E0B0E0E5
:101C5000A0E0309799F42115310509F44AC0281BFA
:101C6000390B24303105D8F58A819B8161157105C6
:101C700089F1FB0182839383FE0111C04081518170
:101C80000281138148175907E0F04817590799F462
:101C9000109761F012960C93129713961C9332963C
:101CA000CF01DF91CF911F910F9108950093193DBE
:101CB00010931A3DF4CF2115310551F04217530707
:101CC00038F0A901DB019A01BD01DF01F801C1CFA4
:101CD000EF01F9CF8093193D90931A3DCDCFFE01CE
:101CE000E20FF31F819391932250310928833983A6
:101CF000D7CF2091173D3091183D232B41F42091EF
:101D0000083C3091093C2093173D3093183D2091B9
:101D1000063C3091073C2115310541F42DB73EB703
:101D200040910A3C50910B3C241B350BE091173D30
:101D3000F091183DE217F307A0F42E1B3F0B281774
:101D4000390778F0AC014E5F5F4F2417350748F034
:101D50004E0F5F1F4093173D5093183D8193919311
:101D60009FCFF0E0E0E09CCFCF93DF930097E9F0C6
:101D7000FC01329712821382A091193DB0911A3D55
:101D8000ED0130E020E01097A1F420813181820F35
:101D9000931F2091173D3091183D2817390709F0FE
:101DA00061C0E093173DF093183DDF91CF91089506
:101DB000EA01CE17DF07E8F54A815B819E014115F4
:101DC0005105B1F7E901EA83FB8349915991C40FA9
:101DD000D51FEC17FD0761F4808191810296840F75
:101DE000951FE90188839983828193818A839B83EC
:101DF000F0E0E0E012968D919C9113970097B9F571
:101E00002D913C911197CD010296820F931F209145
:101E1000173D3091183D2817390739F6309751F59D
:101E20001092193D10921A3DA093173DB093183DA2
:101E3000BCCFC283D38340815181840F951FC817C3
:101E4000D90761F44E5F5F4F88819981480F591F10
:101E5000408351838A819B8182839383211531053D
:101E600009F0B0CFE093193DF0931A3D9ECFFD01EC
:101E7000DC01C0CF12821382D7CFB0E0A0E0E2E451
:101E8000FFE09ACD8C01009741F4CB01D1DE8C01AB
:101E9000C801CDB7DEB7E0E1A8CDFC01E60FF71F22
:101EA0009C0122503109E217F30708F499C0D901C7
:101EB000CD91DC911197C617D70790F0C530D105A9
:101EC00038F3CE0104978617970710F3C61BD70B7C
:101ED0002297C193D1936D937C93CF0145DFD8CFE7
:101EE0005B01AC1ABD0A4C018C0E9D1EA091193DE0
:101EF000B0911A3D512C412CF12CE12C109731F569
:101F00008091173D9091183D8815990509F05CC0A6
:101F10004616570608F058C08091063C9091073C41
:101F2000009741F48DB79EB740910A3C50910B3C0D
:101F3000841B950BE817F90708F052C0E093173D92
:101F4000F093183DF90160837183A2CF8D919C912C
:101F5000119712966C90129713967C901397A81570
:101F6000B90559F56C0142E0C40ED11CCA14DB045A
:101F700020F1AC014A195B09DA011296159780F03D
:101F80006282738240835183D9016D937C93E11403
:101F9000F10471F0D7011296ED93FC93139778CF6B
:101FA00022968C0F9D1FF90180839183F301EFCF5F
:101FB000E093193DF0931A3D6BCF4816590608F48B
:101FC0002C017D01D3019ACFCB0132DE7C01009739
:101FD00039F0AE01B80107D0C801C6DE870158CF7D
:101FE00010E000E055CFFB01DC0102C001900D9232
:101FF00041505040D8F70895FB01DC0101900D924B
:102000000020E1F70895AEE0B0E0E8E0F0E1E0CCD8
:102010000D891E8986E08C8309831A838FEF9FE7E1
:102020008D839E83AE01475E5F4F6F89788DCE01B1
:1020300001960E9404062F813885020F131FF801B4
:0C20400010822E96E4E0DDCCF894FFCF77
:10204C007E0CB69ECCDAFA0EFEDE100405060707EF
:10205C00060504030201000001020304050102034A
:10206C000000000000010101010101010102020256
:10207C000202020000000010204080804020100866
:10208C000402010102040810200204080109080AD4
:10209C000B12131400000000005D012102EA00A9DC
:1020AC00011B01F9000D015002410327014E020DE5
:1020BC000A000A5B485D002D0053455249414C3AD9
:1020CC003100434845434B494E4720415454494EF7
:1020DC0059277320494E5420494F7300504F525486
:1020EC002D4120494F20636865636B2066696E69DA
:1020FC007368656421005B4552525D20496E7465BE
:10210C00726E616C6C792C20504100206E6F7420C3
:10211C00776F726B696E6721005B2F5D20496E20B3
:10212C00504F5254204120285041312D50413729D5
:10213C002C00416C6C2070696E7320617265207785
:10214C006F726B696E67210A005B585D20496E20C7
:10215C00504F5254204120285041312D50413729A5
:10216C002C206120746F74616C006F66206F6E6C34
:10217C00792000504F52542D4220494F20636865FE
:10218C00636B2066696E697368656421005B4552F8
:10219C00525D20496E7465726E616C6C792C2050A6
:1021AC0042005B2F5D20496E20504F52542042203C
:1021BC00285042302D5042312026205042342D5090
:1021CC004237292C005B585D20496E20504F5254E9
:1021DC00204220285042302D50423120262050429F
:1021EC00342D504237292C206120746F74616C009F
:1021FC00504F52542D4320494F20636865636B2028
:10220C0066696E697368656421005B4552525D2096
:10221C00496E7465726E616C6C792C205043005B56
:10222C002F5D20496E20504F52542043202850439C
:10223C00302D504335292C005B585D20496E2050C1
:10224C004F5254204320285043302D504335292CD5
:10225C00206120746F74616C000A415454494E59CA
:10226C00204469676974616C20494F20546573740C
:10227C002066696E6973686564210A0043484543AA
:10228C004B494E4720525443277320415641494CE9
:10229C004142494C495459005254435F41444452C1
:1022AC005F464F554E443A30005254435F414444CC
:1022BC00525F464F554E443A3100434845434B49D3
:1022CC004E4720525443277320522F572046554EC9
:1022DC004300253032643A253032643A253032647A
:1022EC0000253032642F253032642F3230253032C5
:1022FC0064005254435F5245414441424C453A308C
:10230C00005254435F5245414441424C453A3100DE
:10231C00434845434B494E4720425554544F4E2059
:10232C00434F4E44205B50726573735D0053575F8F
:10233C0053544154453A2000205B002073656320C0
:10234C006C6566745D00434845434B494E472044D9
:10235C004953504C4159277320434F4E44495449DB
:10236C004F4E00576174636820696620796F752041
:10237C00736565207468652062656C6F7720706189
:10238C00747465726E200A696E20746865207365BA
:10239C00676D656E74730A285374617274696E6725
:1023AC0020696E203520736563293A00302C20316A
:1023BC0000322C20330064656C6179283430303065
:1023CC00293B00342C203500362C203700382C20AB
:1023DC003900302C20300046696E616C6C792064B9
:1023EC006973706C61792077696C6C205475726EAE
:1023FC00204F4646000A444953504C415920574FF0
:10240C00524B494E473F20287772697465206265AC
:05241C006C6F77290040
:0C24210001000001020300001B3D8000D0
:00000001FF
