:100000003EC0000063C0000061C000005FC000008F
:100010005DC000005BC0000059C0000057C0000078
:1000200055C0000017C4000051C000004FC00000C0
:100030004DC000004BC0000049C0000047C0000098
:1000400045C0000043C0000041C000003FC00000A8
:100050003DC000003BC0000039C0000037C00000B8
:1000600035C0000033C0000031C00000C5C300002F
:100070009EC300002BC0000029C000008004112492
:100080001FBECFEFCDBFDFE3DEBF2CE3AAE0BCE3B2
:1000900001C01D92AD3FB207E1F71CE3A0E0BCE355
:1000A000E5E3FCE102C005900D92AA30B107D9F753
:1000B00010E0CFE3D0E004C02197FE010E94DD0AEA
:1000C000CE33D107C9F744D40C94EE0C99CF892BC9
:1000D000C9F08FEF9FEF80934D3C90934E3C81E0B1
:1000E00084668093170880911508807CE1F38091E5
:1000F000150883FD09C0809115088295817091E0F3
:100100008927089580E0ECCF80E00895CF93DF93B6
:10011000EC0190E080E0DBDF811102C080E03CC0B8
:100120008091150886FFFCCF80E18093180882E05B
:10013000809314088091150884FDF0CF8FEF9FEF16
:10014000C6DF882359F3FE019E01285F3F4F46E03A
:1001500052E080914D3C90914E3C009729F00197E0
:1001600080934D3C90934E3C8091150887FFFCCFC7
:100170008091180860914D3C70914E3C672B79F04E
:10018000509314088193E217F30719F787E08093DF
:10019000140881E0CD2B11F2DF91CF9108954093A7
:1001A0001408F0CFFC01508D418D252F30E0842FB5
:1001B00090E0821B930B541710F0CF96089501978F
:1001C0000895FC0196898789981761F0A789AE0F79
:1001D000BF2FB11D5B968C9197899F5F9F73978B03
:1001E00090E008958FEF9FEF0895FC01968987892D
:1001F000981731F08789E80FF11D838D90E00895FD
:100200008FEF9FEF0895FC0196892789892F90E051
:10021000805C9F4F821B91098F7399270895CF931C
:10022000DF93EC01E881F9810680F781E02D0995E3
:10023000EC85FD8586818F738683EC85FD858581C0
:100240008F7585838F898E8B1D8ADF91CF9108955D
:10025000CF93DF93FC01908D818DC485D585981354
:1002600006C08D818F7D8D83DF91CF910895A18D03
:10027000AE0FBF2FB11DA55ABF4F9C91818D8F5FCF
:100280008F73818F80E48C83A485B58512969C93AF
:10029000908D818D9813E8CF0484F585E02D8581BC
:1002A0008F7D8583E1CFDC011C96ED91FC910FB62B
:1002B00007FE07C0258125FF04C0209111012223DC
:1002C00019F0248125FDC4CF08950F931F93CF9378
:1002D000DF93EC0181E08D8B988D898D981311C08F
:1002E000EC85FD85848185FF0CC080E48483EC85EA
:1002F000FD85628381E090E0DF91CF911F910F91A6
:100300000895062F188D1F5F1F73898D811303C0F9
:10031000CE01C9DFFACFE88DEC0FFD2FF11DE55AB4
:10032000FF4F0083188FEC85FD8585818062858372
:10033000E1CFCF93DF93EC018D89882359F0EC85D1
:10034000FD85858185FD03C0848186FD03C0CE01C6
:10035000AADFF5CFDF91CF910895AF92BF92CF92F0
:10036000DF92EF92FF920F931F93CF93DF936C0175
:100370007B018B01040F151FEB015E01AE18BF0856
:10038000C017D10759F06991D601ED91FC91019008
:10039000F081E02DC6010995892B79F7C501DF9120
:1003A000CF911F910F91FF90EF90DF90CF90BF9072
:1003B000AF90089581E008958FB7F8946091210A75
:1003C00090910B0A20910C3C30910D3C40910E3CD9
:1003D00050910F3C8FBF8EEF861B91FF06C084307B
:1003E00020F42F5F3F4F4F4F5F4F93E0899FF00105
:1003F0001124982F92959F70E91BF1098695869597
:10040000E80FF11DA0E3B3E00E94650A6E0F7F1FA5
:10041000811D911D0895CF92DF92EF92FF92CF93AD
:10042000DF936B017C01C8DFEB01C6DF6C1B7D0B2A
:10043000683E7340A0F0C114D104E104F10439F422
:10044000DF91CF91FF90EF90DF90CF90089581E002
:10045000C81AD108E108F108C851DC4FE6CFC11431
:10046000D104E104F10409F7EBCFDC01ED91FC913B
:100470000088F189E02D23E030E00994FC0101902F
:100480000020E9F73197AF01481B590BBC018FE4FD
:100490009CE363CFCF93DF93FC014481558160815E
:1004A00071818FE49CE359DFEC0187E49AE9E6DF90
:1004B0008C0F9D1FDF91CF910895CF93DF93DEDFE7
:1004C000EC0187E49AE9DADF8C0F9D1FDF91CF9171
:1004D00008958F929F92AF92BF92CF92DF92EF9248
:1004E000FF920F931F93CF93DF93CDB7DEB7A19702
:1004F000CDBFDEBF6C01990FEE08FF08F7FE3CC0D0
:100500006DE28FE49CE3E1DE8C0122273327A90111
:100510002C193D094E095F0919A2CE0181967C0173
:100520009AE0892E912CA12CB12CCA01B901A50108
:1005300094010E94BB0A605DF70162937F0121155F
:1005400031054105510589F790E080E0309711F0C1
:10055000CF0194DF800F911FA196CDBFDEBFDF9149
:10056000CF911F910F91FF90EF90DF90CF90BF90B0
:10057000AF909F908F900895A701960119A28E01C8
:100580000F5D1F4F8AE0C82ED12CE12CF12CCA013F
:10059000B901A7019601EFD7605DF80162938F0161
:1005A000211531054105510591F790E080E0309724
:1005B00099F2CF0163DFD0CFCF93DF93863198F4E8
:1005C00090E0FC01E45FF54620812F3F61F0FC01E3
:1005D000EA50F646E08130E2E39FF0011124FC5F2F
:1005E000613021F42183DF91CF91089580529646A6
:1005F000EC01A881309781F0AF3F71F0CF014096B8
:10060000A80FB92FB11D9FB7F89422838C918860F1
:100610008C9325839FBFE7CFB0E0A0E0F4CF62E0EA
:100620008AE0CADF62E08BE0C7DFE0E1F8E0168233
:1006300081E08383858390E080E049CD7F928F9233
:100640009F92AF92BF92CF92DF92EF92FF920F9361
:100650001F93CF93DF93EC014A015B01722E8D89CA
:10066000882339F0E881F9810288F389E02DCE01F1
:1006700009950C8910E0E12C81148EEE980682E039
:10068000A806B10430F0B694A7949794879432E00A
:10069000E32E1D8AFFB6F894CC84DD8460E07DE211
:1006A00081E391E0A501940166D7F60120873187A7
:1006B000EC85FD857782EC85FD858681897F806C60
:1006C0008E298683EC85FD85858180688583909160
:1006D00001028B89809589239801220F331F020F15
:1006E000131FC00FD11F9889892B8093010262E0EC
:1006F0008E8562DF61E08F855FDFFFBEDF91CF9186
:100700001F910F91FF90EF90DF90CF90BF90AF902F
:100710009F908F907F900895EF92FF920F931F9379
:10072000CF93DF93EC01188219821A821B821C82FC
:100730001D8261157105A1F17B01FB010190002073
:10074000E9F731978F01061B170BB8016F5F7F4FD9
:1007500090E080E00E94080C0097B9F088839983AC
:100760000A831B832C813D81232B11F4FC01108211
:100770000C831D83B70188819981DF91CF911F91EF
:100780000F91FF90EF900C94C70C8881998100978E
:1007900009F0B5D7188219821C821D821A821B8229
:1007A000DF91CF911F910F91FF90EF9008951F92CD
:1007B0000F920FB60F9211242F933F934F935F9395
:1007C0006F937F938F939F93AF93BF93EF93FF9319
:1007D0008FE49CE33DDDFF91EF91BF91AF919F913D
:1007E0008F917F916F915F914F913F912F910F90DA
:1007F0000FBE0F901F9018951F920F920FB60F9279
:1008000011242F938F939F93EF93FF93E0915B3C81
:10081000F0915C3C818181FD1BC090818091653CA1
:100820008F5F8F732091663C821741F0E091653CA9
:10083000F0E0E15BF34C938F8093653CFF91EF9187
:100840009F918F912F910F900FBE0F901F90189531
:100850008081F4CF1F920F920FB60F9211242F9325
:100860003F934F935F936F938F939F93AF93BF93F8
:1008700080912E3C90912F3CA091303CB091313C26
:1008800040910A3C50910B3C9A01205D3C4F283E20
:1008900063E0360728F0285E33400196A11DB11DA4
:1008A00020930A3C30930B3C80932E3C90932F3C3A
:1008B000A093303CB093313C80910C3C90910D3C26
:1008C000A0910E3CB0910F3C0196A11DB11D8093EB
:1008D0000C3C90930D3CA0930E3CB0930F3C82E0F7
:1008E00080930B0ABF91AF919F918F916F915F9110
:1008F0004F913F912F910F900FBE0F901F90189521
:10090000EFE4FCE31282138288EE93E0A0E0B0E013
:1009100084839583A683B78381E39AE98083918357
:1009200080E098E08487958788E0868789E08787DC
:10093000108A83E1818B82E1828B81E0838B148A30
:10094000158A168A178A108E118E8CE1828F08956F
:10095000CF93DF93CDB7DEB72C97CDBFDEBF88ED49
:1009600093E084BF9093610081E5809302068DE05F
:100970008093050600E20093030681E08093000661
:100980008093030A1EEF1093260A1093270A89E02A
:100990008093000A80910A0A826080930A0A789400
:1009A00040E052EC61E070E08FE49CE35EDD62E0E9
:1009B0008EE002DE0093410400934604109301048C
:1009C00080EF8093210400934604109306048093E3
:1009D000250468EE73E080E090E01DDD2FB7F89409
:1009E00080912E3C90912F3CA091303CB091313CB5
:1009F0002FBF80933E3C90933F3CA093403CB093EC
:100A0000413CDADC6093263C7093273C8093283C81
:100A10009093293C2FB7F89480912E3C90912F3CD5
:100A2000A091303CB091313C2FBF8093323C9093E9
:100A3000333CA093343CB093353C222423948AE089
:100A4000382E93EB492E9AE9592E20E1622E2CE3A1
:100A5000722E39E1E32E3CE3F32E4AE0C42ED12C72
:100A600054E0A52E5CE3B52E61E1862E912C809199
:100A70004C3C81110DC08AE49AE91FDD8AE39BE9B1
:100A80001CDD20924C3C68EB7BE080E090E0C3DC16
:100A900080914B3C811120C0C2DD811111C0809139
:100AA000493C90914A3C8431910534F401968093FD
:100AB000493C90934A3CF0CF1092493C10924A3CFA
:100AC000AEDD81112FC21092483C84E69AE9F5DC34
:100AD00020924B3C10924C3C80914C3C81110DC0BB
:100AE00086E89AE9EADC88E39BE9E7DC20924C3C63
:100AF00068EB7BE080E090E08EDC80914B3C8823CB
:100B000009F4DBC08091473C8111D7C08091483CFB
:100B1000882309F4CEC080EF9CE3F8DA882309F437
:100B200006C28091F13C982F92959F708F70939D93
:100B3000800D11248B33C9F48A81982F92959F7070
:100B40008F70939D800D1124811109C088E0FE01F2
:100B50003196A0EFBCE301900D928A95E1F7CE01AA
:100B60000196D4DA882309F4E2C184EA9AE9A5DC83
:100B700064E670E080E090E04EDC8091F33C982FDA
:100B800092959F708F70939D800D1124632DE7D4F3
:100B9000292FE5D49093EA3C2093EB3C8091F23CE2
:100BA000982F92959F708F70939D800D1124D7D4AC
:100BB000292FD5D49093EC3C2093ED3C8091F13CCF
:100BC000982F92959F708F70939D800D1124C7D49C
:100BD000292FC5D49093EE3C2093EF3C64E670E05F
:100BE00080E090E018DC2091F13C9091F23C809103
:100BF000F33C322F32953F702F70339D200D11241E
:100C00001F922F93292F22952F709F70239D900D57
:100C100011241F929F93982F92959F708F70939D90
:100C2000800D11241F928F935F924F927F926F924B
:100C3000B5D660E17CE3CE0101966EDDCE01019672
:100C400029DC89819A815BD52091F73C9091F63C13
:100C50008091F53C322F32953F702F70339D200DDF
:100C600011241F922F93292F22952F709F70239D5F
:100C7000900D11241F929F93982F92959F708F70C3
:100C8000939D800D11241F928F9302EC1AE91F93FC
:100C90000F93FF92EF9282D669E17CE3CE01019639
:100CA0003BDDCE010196F6DB89819A8128D5CDBF47
:100CB000DEBF2092473C10924C3C80914C3C81110D
:100CC0000DC082EE9AE9F9DB88E39BE9F6DB20921E
:100CD0004C3C68EB7BE080E090E09DDB8091473C02
:100CE000882309F46DC08091463C811169C02FB7FB
:100CF000F89480912E3C90912F3CA091303CB09183
:100D0000313C2FBF8093423C9093433CA093443CA2
:100D1000B093453C40913E3C50913F3C6091403CFB
:100D20007091413C841B950BA60BB70B883E9340FA
:100D3000A105B10508F444C080913C3C90913D3C34
:100D4000019680933C3C90933D3C8091480482FB0B
:100D5000882780F980933B3C80E09BE98FDB809182
:100D60003B3C90E0B6DB8AE09BE988DB80913C3C31
:100D700090913D3C9601281B390BC901AADB8DE0FF
:100D80009BE99BDB80913C3C90913D3C0A9744F071
:100D90002092463C10923C3C10923D3C10924C3CC0
:100DA0008091423C9091433CA091443CB091453CA1
:100DB00080933E3C90933F3CA093403CB093413C99
:100DC00080914C3C811133C088E19BE976DB87E35D
:100DD0009BE973DB68EB7BE080E090E01CDB85E562
:100DE0009BE96BDB8FE99BE968DB84EA9BE965DBC8
:100DF00089EA9BE962DB86EB9BE95FDB8BEB9BE996
:100E00005CDB89EA9BE959DB80EC9BE956DB85ECEE
:100E10009BE953DB89EA9BE950DB8AEC9BE94DDBDC
:100E200020924C3C60E177E280E090E0F4DA80913F
:100E3000463C882309F41BCE80913A3C811117CEA1
:100E4000BBDA60932A3C70932B3C80932C3C9093AC
:100E50002D3C2091263C3091273C4091283C5091DC
:100E6000293C621B730B840B950B6A30710581055D
:100E70009105D0F13EEF3093060480EF8093250476
:100E8000F8948091243C9091253C9401082E01C057
:100E9000220F0A94EAF7207F209327048050944C75
:100EA000DC01EC91F0E0EE5DF546808181B978944B
:100EB0008091243C9091253C019684309105DCF58D
:100EC0008093243C9093253C80912A3C90912B3C2C
:100ED000A0912C3CB0912D3C8093263C9093273CD4
:100EE000A093283CB093293C8091383C9091393CA8
:100EF0002091363C3091373C8217930709F445C066
:100F00009C012250310922303105E0F4E0E0FCE39D
:100F1000AE16BF0691F180818C5F8A3088F48083A1
:100F20003196F6CF2092483C85E79AE9D0CD83ED03
:100F30009AE9C3DABECE1092243C1092253CC4CF6D
:100F40001082EECF0497CCF0B0E2B09346040EEFDF
:100F50000093060410EF109325041092383C109271
:100F6000393C1092363C1092373C20923A3C88EE45
:100F70009BE9A3DA8DE09CE9A0DA8091383C90915E
:100F8000393C8093363C9093373C8FB7F89440912E
:100F90002E3C50912F3C6091303C7091313C8FBF82
:100FA0008091323C9091333CA091343CB091353CDF
:100FB0008A019B01081B190B2A0B3B0B003A1F40AF
:100FC0002105310508F453CD8091383C9091393C8E
:100FD00001968093383C9093393C4093323C509337
:100FE000333C6093343C7093353C41CDABE0B0E092
:100FF000EBEFF7E074C27C013B018A01FC01168231
:101000001782838181FFBAC1CE0101965C01F7018D
:101010009381F30193FD859193FF81913F01882393
:1010200009F449C1853239F493FD859193FF81918B
:101030003F01853221F4B70190E0B9D1E8CF912C7E
:10104000212C312CFFE1F31538F08B3211F190F4A3
:10105000803209F1833229F137FC3CC020ED280FA2
:101060002A3050F536FE20C08AE0989E200D1124CB
:10107000922E06C08D3291F0803371F7689430F86B
:10108000F30193FD859193FF81913F018111DACFA7
:1010900021C0689431F8689432F8F2CF689433F83C
:1010A000EFCF689434F8ECCFEAE02E9E200D1124A7
:1010B000222E689435F8E4CF8E3229F436FCFBC03A
:1010C000689436F8DDCF8C3619F4689437F8D8CFA9
:1010D0008836B1F2982F9F7D95549330D8F083369F
:1010E00091F18337B1F1833509F05EC02801F2E058
:1010F0004F0E511CF801C080D180692D70E036FC84
:1011000002C06FEF7FEFC6013CD14C01689437F805
:1011100082010AC00C5F1F4FFFE3F9838824839488
:10112000912C6501E89437F833FE2AC0522C8114C3
:10113000910459F5552009F46ACFB70180E290E097
:1011400036D15A94F7CFF801808189830E5F1F4F03
:10115000E5CF2801F2E04F0E511CF801C080D1808C
:10116000692D70E036FC02C06FEF7FEFC60114D12D
:101170004C018201D7CFB70180E290E018D12A94C8
:101180002814190409F0B8F7D1CFF60137FC85917E
:1011900037FE81916F01B70190E009D151105A9447
:1011A000F1E08F1A9108C3CF843619F0893609F01F
:1011B00073C0F80137FE67C06081718182819381BD
:1011C0000C5F1F4FF32DFF763F2E97FF09C09095C0
:1011D0008095709561957F4F8F4F9F4F689437F83A
:1011E0002AE030E0A50113D1C82ECA188C2C432C5C
:1011F00036FE0CC0E89440F8C91440F434FE05C033
:1012000032FC03C0F32DFE7E4F2E892C44FE90C08D
:10121000FE01EC0DF11D8081803309F082C0242D88
:10122000297E422E842D8870582E43FC8FC040FEAC
:1012300089C09C2C821418F42C0C922C981844FE13
:101240008BC0B70180E390E0B2D042FE08C088E7CF
:1012500090E041FE02C088E590E0B701A8D0C91433
:1012600008F486C0CA94D12C9FEFC91AD90ACA0CB7
:10127000DB1CF60182916F01B70190E098D0AC14AD
:10128000BD04B9F757CF60817181072E000C880B20
:10129000990B0E5F1F4F96CFD32CE894D4F82AE019
:1012A00030E0853731F1232D297FD22E8F36F9F0AA
:1012B00040F48835A1F0F701868197812B96E2E111
:1012C00027C1803749F08837B1F7D4FE02C068944F
:1012D000D2F820E130E00DC06894D4F8F6CF34FEA7
:1012E00003C0822F8660D82E20E132E002C028E0C1
:1012F00030E0F801D7FE0EC0608171818281938158
:101300000C5F1F4FA50183D0C82ECA183D2CE8944E
:1013100037F86CCF6081718190E080E00E5F1F4FE5
:10132000F1CF42FC02C083947DCF839483947ACF23
:10133000842D867809F476CFF6CFB70180E290E06D
:1013400036D083948214C8F3512C79CF522C58187C
:10135000821408F474CFF8CF842D867809F47FCFF7
:101360008BE241FE80E247FC8DE2B70190E076CF50
:10137000B70180E390E01BD09A9471CF8FEF9FEF7D
:101380009DCFFC010590615070400110D8F7809509
:1013900090958E0F9F1F0895FC0161507040019041
:1013A0000110D8F7809590958E0F9F1F08950F9389
:1013B0001F93CF93DF93182F092FEB018B8181FDB2
:1013C00009C01FEF0FEF812F902FDF91CF911F9159
:1013D0000F91089582FF14C02E813F818C819D81E1
:1013E000281739073CF4E881F981CF0101968883F9
:1013F000998310838E819F8101968E839F83E3CF93
:10140000E885F985812F0995892BA1F3DACFFA01B7
:10141000AA27283051F1203181F1E8946F936E7F33
:101420006E5F7F4F8F4F9F4FAF4FB1E03ED0B4E024
:101430003CD0670F781F891F9A1FA11D680F791F65
:101440008A1F911DA11D6A0F711D811D911DA11D76
:1014500020D009F468943F912AE0269F1124301986
:10146000305D3193DEF6CF010895462F4770405D21
:101470004193B3E00FD0C9F7F6CF462F4F70405DD0
:101480004A3318F0495D31FD4052419302D0A9F72B
:10149000EACFB4E0A6959795879577956795BA9525
:1014A000C9F700976105710508959B01AC010A2EEB
:1014B00006945795479537952795BA95C9F7620FC2
:1014C000731F841F951FA01D08953AD0A59F900DEE
:1014D000B49F900DA49F800D911D112408952F920B
:1014E0003F924F925F926F927F928F929F92AF92B4
:1014F000BF92CF92DF92EF92FF920F931F93CF9301
:10150000DF93CDB7DEB7CA1BDB0BCDBFDEBF0994BF
:101510002A88398848885F846E847D848C849B8483
:10152000AA84B984C884DF80EE80FD800C811B8191
:10153000AA81B981CE0FD11DCDBFDEBFED010895C7
:10154000A29FB001B39FC001A39F700D811D112404
:10155000911DB29F700D811D1124911D0895991B3D
:1015600079E004C0991F961708F0961B881F7A959A
:10157000C9F780950895A1E21A2EAA1BBB1BFD0195
:101580000DC0AA1FBB1FEE1FFF1FA217B307E40762
:10159000F50720F0A21BB30BE40BF50B661F771FBA
:1015A000881F991F1A9469F760957095809590959A
:1015B0009B01AC01BD01CF010895EE0FFF1F059007
:1015C000F491E02D09940F931F93CF93DF93823012
:1015D000910510F482E090E0E091FB3CF091FC3C3E
:1015E00030E020E0B0E0A0E0309799F4211531051B
:1015F00009F44AC0281B390B24303105D8F58A81FB
:101600009B816115710589F1FB0182839383FE0142
:1016100011C0408151810281138148175907E0F0C0
:101620004817590799F4109761F012960C93129786
:1016300013961C933296CF01DF91CF911F910F919A
:1016400008950093FB3C1093FC3CF4CF2115310529
:1016500051F04217530738F0A901DB019A01BD018F
:10166000DF01F801C1CFEF01F9CF8093FB3C9093EC
:10167000FC3CCDCFFE01E20FF31F819391932250EA
:10168000310928833983D7CF2091F93C3091FA3C36
:10169000232B41F42091063C3091073C2093F93CE8
:1016A0003093FA3C2091043C3091053C21153105E2
:1016B00041F42DB73EB74091083C5091093C241BA2
:1016C000350BE091F93CF091FA3CE217F307A0F4F6
:1016D0002E1B3F0B2817390778F0AC014E5F5F4F88
:1016E0002417350748F04E0F5F1F4093F93C509385
:1016F000FA3C819391939FCFF0E0E0E09CCFCF93B1
:10170000DF930097E9F0FC01329712821382A091D7
:10171000FB3CB091FC3CED0130E020E01097A1F4DF
:1017200020813181820F931F2091F93C3091FA3C46
:101730002817390709F061C0E093F93CF093FA3CAF
:10174000DF91CF910895EA01CE17DF07E8F54A81CE
:101750005B819E0141155105B1F7E901EA83FB83E5
:1017600049915991C40FD51FEC17FD0761F4808191
:1017700091810296840F951FE90188839983828164
:1017800093818A839B83F0E0E0E012968D919C9197
:1017900013970097B9F52D913C911197CD010296C1
:1017A000820F931F2091F93C3091FA3C281739079A
:1017B00039F6309751F51092FB3C1092FC3CA09307
:1017C000F93CB093FA3CBCCFC283D38340815181B2
:1017D000840F951FC817D90761F44E5F5F4F88814A
:1017E0009981480F591F408351838A819B8182834D
:1017F00093832115310509F0B0CFE093FB3CF093C2
:10180000FC3C9ECFFD01DC01C0CF12821382D7CFFA
:10181000B0E0A0E0EDE0FCE064CE8C01009741F484
:10182000CB01D1DE8C01C801CDB7DEB7E0E172CECD
:10183000FC01E60FF71F9C0122503109E217F30764
:1018400008F499C0D901CD91DC911197C617D7073B
:1018500090F0C530D10538F3CE010497861797076D
:1018600010F3C61BD70B2297C193D1936D937C9332
:10187000CF0145DFD8CF5B01AC1ABD0A4C018C0EFD
:101880009D1EA091FB3CB091FC3C512C412CF12CB5
:10189000E12C109731F58091F93C9091FA3C881534
:1018A000990509F05CC04616570608F058C08091AB
:1018B000043C9091053C009741F48DB79EB7409150
:1018C000083C5091093C841B950BE817F90708F078
:1018D00052C0E093F93CF093FA3CF90160837183C4
:1018E000A2CF8D919C91119712966C90129713969E
:1018F0007C901397A815B90559F56C0142E0C40E08
:10190000D11CCA14DB0420F1AC014A195B09DA01CD
:101910001296159780F06282738240835183D901B9
:101920006D937C93E114F10471F0D7011296ED935D
:10193000FC93139778CF22968C0F9D1FF90180831B
:101940009183F301EFCFE093FB3CF093FC3C6BCF32
:101950004816590608F42C017D01D3019ACFCB011A
:1019600032DE7C01009739F0AE01B80107D0C80122
:10197000C6DE870158CF10E000E055CFFB01DC0147
:1019800002C001900D9241505040D8F70895FB01DC
:10199000DC0101900D920020E1F70895AEE0B0E087
:1019A000E3EDFCE0AACD0D891E8986E08C830983D6
:1019B0001A838FEF9FE78D839E83AE01475E5F4F53
:1019C0006F89788DCE01019611DB2F813885020F4A
:1019D000131FF80110822E96E4E0A8CDF894FFCFF3
:1019E00004050607070605040302010000010203BF
:1019F00004050102030000000000010101010101D2
:101A000001010202020202020000000010204080D8
:101A10008040201008040201010204081020020482
:101A200008017E0CB69ECCDAFA0EFEDE1000000035
:101A3000006501AD01D20099010301E100F5003517
:101A4000021E030F01DA010D0A00434845434B49CA
:101A50004E4720525443277320434F4E4449544924
:101A60004F4E3A005254435F414444525F464F55F3
:101A70004E443A30005254435F414444525F464F13
:101A8000554E443A31000A434845434B494E47209E
:101A9000525443277320415641494C4142494C49D5
:101AA00054593A005254435F5245414441424C45D7
:101AB0003A3100253032643A253032643A253032EA
:101AC0006400253032642F253032642F32302530C7
:101AD0003264005254435F5245414441424C453ABE
:101AE00030000A434845434B494E47204255545421
:101AF0004F4E277320434F4E444954494F4E3A00AE
:101B000053575F53544154453A00205B002073659E
:101B100063206C6566745D000A434845434B494E3B
:101B20004720444953504C4159277320434F4E445A
:101B30004954494F4E3A002D2D2D2D2D2D2D2D2D53
:101B40002D2D2D2D2D2D2D2D2D2D2D2D2D2D2D2DC5
:101B50002D2D2D2D00576174636820696620796FE3
:101B60007520736565207468652062656C6F7720E9
:101B70007061747465726E200A696E2074686520E5
:101B80007365676D656E74730A2853746172746946
:101B90006E6720696E20313020736563293A00300A
:101BA0002C203100322C20330064656C617928349C
:101BB000303030293B00342C203500362C203700C3
:101BC000382C203900302C20300046696E616C6C56
:101BD0007920646973706C61792077696C6C20542A
:101BE00075726E204F4646000A5265706F727420FF
:101BF000444953504C4159204F4B41592062792060
:101C00007072657373696E672027312700526570A3
:101C10006F727420444953504C4159204E4F542008
:101C20004F4B4159206279207072657373696E67FA
:051C3000202730270011
:0A1C3500000102030000FD3C8000E6
:00000001FF
