:100000003EC000006FC000006DC000006BC000006B
:1000100069C0000067C0000065C0000063C0000048
:1000200061C0000006C500005DC000005BC00000AC
:1000300059C0000057C0000055C0000053C0000068
:1000400051C000004FC000004DC000004BC0000078
:1000500049C0000047C0000045C0000043C0000088
:1000600041C000003FC000003DC000003DC5000091
:1000700036C500003EC5000035C000007C051124D7
:100080001FBECFEFCDBFDFE3DEBF80914000809386
:100090004000811105C098ED21E094BF20934100FC
:1000A0008CBB2DE3ACE0BCE301C01D92AB31B207C9
:1000B000E1F71CE3A0E0BCE3E0E1F5E202C005905B
:1000C0000D92AC30B107D9F710E0CFE3D0E004C017
:1000D0002197FE010E94880ECE33D107C9F723D5A0
:1000E0000C9499108DCF892BC9F08FEF9FEF8093DF
:1000F000913C9093923C81E08466809317088091B4
:100100001508807CE1F38091150883FD09C080917A
:1001100015088295817091E08927089580E0ECCFE1
:1001200080E00895CF93DF93EC0190E080E0DBDF87
:10013000811102C080E03CC08091150886FFFCCF91
:1001400080E18093180882E080931408809115085C
:1001500084FDF0CF8FEF9FEFC6DF882359F3FE01B8
:100160009E01285F3F4F46E052E08091913C909184
:10017000923C009729F001978093913C9093923C98
:100180008091150887FFFCCF809118086091913C01
:100190007091923C672B79F0509314088193E21789
:1001A000F30719F787E08093140881E0CD2B11F253
:1001B000DF91CF91089540931408F0CFFC0153894B
:1001C0004489252F30E0842F90E0821B930B541735
:1001D00010F04F96089501970895FC019189828946
:1001E000981761F0A289AE0FBF2FB11D55968C9163
:1001F00092899F5F9F73928B90E008958FEF9FEF9E
:100200000895FC0191898289981731F08289E80F5D
:10021000F11D858990E008958FEF9FEF0895FC010F
:1002200091892289892F90E0805C9F4F821B9109E0
:100230008F7399270895CF93DF93EC01E881F981BB
:100240000680F781E02D0995EC85FD858681168273
:100250008581158280E484838A89898B188ADF915D
:10026000CF910895DC010FB607FE04C08091110103
:100270008823B1F01C96ED91FC911D97848185FF38
:100280000FC053969C91539754968C91981721F0D8
:1002900085818F7D85830895E3E9FCE3E8946CC351
:1002A00008950F931F93CF93DF93EC018889982FC4
:1002B0009160988B2B899C8929130AC0EC85FD8558
:1002C000948195FF05C081FD0DC080E4848312C038
:1002D000062F1B891F5F1F718C89811315C0CE01EA
:1002E000C1DFFACF85818F77806490E49483EC85B9
:1002F000FD858583EC85FD85628381E090E0DF915B
:10030000CF911F910F910895EB89EC0FFD2FF11DF7
:10031000EB5AFF4F00831B8BEC85FD85888981FF9D
:1003200009C085818F77806690E49483EC85FD8594
:100330008583E3CF85818062FBCFCF93DF93EC0190
:100340008889882359F0EC85FD85858185FD03C06A
:10035000848186FD03C0CE0185DFF5CFDF91CF918B
:1003600008958FB7F8946091210A90910B0A20911B
:100370008C3C30918D3C40918E3C50918F3C8FBF96
:100380008EEF861B91FF06C0843020F42F5F3F4F15
:100390004F4F5F4F93E0899FF0011124982F929562
:1003A0009F70E91BF10986958695E80FF11DA0E382
:1003B000B3E00E941C0E6E0F7F1F811D911D0895DA
:1003C000CF92DF92EF92FF92CF93DF936B017C018C
:1003D000C8DFEB01C114D104E104F10441F412C0FF
:1003E00081E0C81AD108E108F108C851DC4FB9DF33
:1003F0006C1B7D0B683E734068F3C114D104E104AB
:10040000F10471F7DF91CF91FF90EF90DF90CF90E3
:1004100008952FB7F8946091883C7091893C809141
:100420008A3C90918B3C2FBF0895AF92BF92CF92A0
:10043000DF92EF92FF920F931F93CF93DF936C01A4
:100440007B018B01040F151FEB015E01AE18BF0885
:10045000C017D10759F06991D601ED91FC91019037
:10046000F081E02DC6010995892B79F7C501DF914F
:10047000CF911F910F91FF90EF90DF90CF90BF90A1
:10048000AF90089581E00895DC01ED91FC91008822
:10049000F189E02D23E030E0099442E050E065EA84
:1004A00071EA83E99CE3C1CFCF93DF93FC01019014
:1004B0000020E9F73197AF01481B590BBC0183E9D4
:1004C0009CE3B3DFEC01E9DF8C0F9D1FDF91CF913F
:1004D0000895CF93DF93FC01448155816081718140
:1004E00083E99CE3A2DFEC01D8DF8C0F9D1FDF9135
:1004F000CF910895CF93DF93EC0188819981009784
:1005000011F00E942A0F188219821C821D821A8201
:100510001B82DF91CF910895FC01808191810C9421
:100520002A0F8631F0F490E0FC01E359FE4520816A
:100530002F3FB9F0FC01E95AFE45E081E295EE0F4C
:10054000F0E0F460613071F421838F5B9E45DC0143
:100550008C918061E80FF11D8081613029F0886005
:10056000808308952283F1CF877FFACF62E08AE00B
:10057000D8DF62E08BE0D5DFE0E1F8E0168281E0D1
:100580008383858308958F929F92AF92BF92EF925B
:10059000FF920F931F93CF93DF938C014A015B016E
:1005A000E901DC0150968C91509780FF07C0ED91D6
:1005B000FC910288F389E02DC8010995C11101C0A1
:1005C000C3E0EC2EE894E2F8FD2ECD2FD095D07C40
:1005D000B5EB8B16B4EC9B06B4E0AB06B10428F087
:1005E000D260B694A7949794879460E07DE281E30B
:1005F00091E0A50194010E94660E2034310510F4AB
:1006000020E430E0F2FCD8608C2F8B72D7FD80683C
:10061000CD2FC87C83FF07C0C83C29F4F80190891E
:100620009260908BC8ED80FDC160FFB6F894D80150
:100630001C96ED91FC911682E7822087318785FF19
:100640003FC0CF7791E094879FEF95878F7D85831B
:10065000D683F8012785868590910102222391F1A6
:10066000916090930102820F9927991F880F991F1B
:10067000880F991F8C010D571E45C6FF25C0C3FD6D
:1006800023C061E0D8018C914CDFC7FF07C0C4FDD7
:1006900005C062E0D80111968C9143DFC0FF04C011
:1006A00061E0F80183813DDFFFBEDF91CF911F91B3
:1006B0000F91FF90EF90BF90AF909F908F90089513
:1006C0001486C4CF9E7FCDCF2C2F2075F1F28D578D
:1006D0009E4562E0FC018081D7CF0F931F93CF939B
:1006E000DF93EC0188819981009759F02A813B8141
:1006F0002617370730F081E0DF91CF911F910F91DE
:1007000008958B016F5F7F4F0E94B30F009759F0E0
:10071000888399830A831B832C813D81232B59F77E
:10072000FC011082E8CF80E0E7CFEF92FF920F93B9
:100730001F93CF93DF936115710541F480E0DF9142
:10074000CF911F910F91FF90EF90089541155105A2
:10075000A9F07B01EC010C811D81040F151FB8016C
:10076000BCDF882359F3288139818C819D81B701B1
:10077000820F931F0E9472100C831D8381E0DFCFD4
:10078000CF93DF93EC01FB0101900020E9F7319753
:10079000AF01461B570BC9DF811102C0CE01AADE93
:1007A000CE01DF91CF910895CF93DF93EC01FB0150
:1007B0004481558160817181B8DF811102C0CE0111
:1007C00099DECE01DF91CF910895EF92FF920F93C2
:1007D0001F93CF93DF93EC017B018A01BA017DDF88
:1007E00081110AC0CE0186DECE01DF91CF911F912B
:1007F0000F91FF90EF9008950C831D83B7018881BE
:1008000099810E947210F0CFEF92FF920F931F9385
:10081000CF93DF93CDB7DEB76297CDBFDEBF8C013C
:10082000CB01F80110821182128213821482158288
:100830004AE09E012F5F3F4F7901B9015BD7F70175
:1008400001900020E9F73197AF014E195F09B70118
:10085000C801BBDF6296CDBFDEBFDF91CF911F9194
:100860000F91FF90EF900895FC0110821182128287
:100870001382148215826115710549F0FB01019004
:100880000020E9F73197AF01461B570B9ECF089523
:10089000EF92FF920F931F93CF93DF93CDB7DEB705
:1008A0002C97CDBFDEBF2091903C211150C08C0110
:1008B00068EA71EACE010196D7DFB801CE01019650
:1008C00073DF60EA74EA5CDF04DECE01019624DEA9
:1008D0008E01095F1F4F6DEA71EAC801C5DF8EE125
:1008E000E82EF12C19821A821B821C821D821E8224
:1008F0006F8178856115710529F04B855C85CE0186
:10090000019663DF6DEA71EACE01019639DF801747
:10091000910751F0FC01608171816115710509F148
:1009200044815581C80151DFCE010196F5DDF1E02A
:10093000EF1AF108B9F6C801CCDD81E08093903C54
:1009400060ED77E080E090E03BDDC801E5DD2C96CE
:10095000CDBFDEBFDF91CF911F910F91FF90EF9040
:100960000895C801C7DDE0CF2F932FB72F938F9342
:100970009F93AF93BF936894CF93DF9320E0C48598
:10098000D8E09489DF01A90FB21FAB5ABF4F8C91F9
:1009900020E42C838A839F5F9F718D812389291393
:1009A00002C08F7D8D83948BDF91CF910EF078CC38
:1009B000BF91AF919F918F912F912FBF2F91FF9159
:1009C000EF9118952F932FB72F938F939F93CF93DA
:1009D000DF93C485D8E08981988181FD0DC0C189EC
:1009E00081E08C0F8F732289281731F0CE0FDF2F13
:1009F00020E0D21F9D8B818BDF91CF919F918F91B2
:100A00002F912FBF2F91FF91EF911895FF938F9307
:100A10008FB78F93F8E08081848187FFFCCF858139
:100A20008F7B806885838F918FBF8F91FF91EF912E
:100A300018951F920F920FB60F9211242F933F9388
:100A40004F935F936F938F939F93AF93BF938091D7
:100A5000883C9091893CA0918A3CB0918B3C40911C
:100A6000863C5091873C9A01205D3C4F283E63E0D4
:100A7000360728F0285E33400196A11DB11D209352
:100A8000863C3093873C8093883C9093893CA0932C
:100A90008A3CB0938B3C80918C3C90918D3CA09192
:100AA0008E3CB0918F3C0196A11DB11D80938C3C72
:100AB00090938D3CA0938E3CB0938F3C82E08093CA
:100AC0000B0ABF91AF919F918F916F915F914F9161
:100AD0003F912F910F900FBE0F901F901895EF939D
:100AE000FF93E3E9FCE340CFEF93FF93E3E9FCE3FB
:100AF00069CFEF93E0E08ACFE3E9FCE3128213824F
:100B000088EE93E0A0E0B0E084839583A683B7836A
:100B10008FE891EA8083918380E098E084879587CD
:100B2000168617860895CF93DF93CDB7DEB7649707
:100B3000CDBFDEBF88ED93E084BF9093610081E577
:100B4000809302068DE08093050680E28093030681
:100B500081E0809300068093030A8EEF8093260A3B
:100B60008093270A89E08093000A80910A0A8260B4
:100B700080930A0A7894789440E052EC61E070E047
:100B800083E99CE381DC68E873E180E090E018DCB5
:100B900040DC6093403C7093413C8093423C909396
:100BA000433C37DC6093643C7093653C8093663CC7
:100BB0009093673CD6DB6093703C7093713C80935C
:100BC000723C9093733C25DC6093783C7093793C45
:100BD00080937A3C90937B3C01E010E022242394A4
:100BE000312C89EC482E83EA582E9EEFD92E21E134
:100BF000622E712C8091853C811106C08FEA91EAAA
:100C000053DC81E08093853C68EB71EACE0101966C
:100C10002BDECE0101963CDECE0101967DDC80917B
:100C2000843C811139C1CC24C394F3DB6093443CF0
:100C30007093453C8093463C9093473C8090403C69
:100C40009090413CA090423CB090433C6819790997
:100C50008A099B09643671058105910530F38091FD
:100C60003F3C811150C080913E3C811147C0809132
:100C70003D3C811143C0C8010090003C02C0880F78
:100C8000991F0A94E2F7F894809301048093050475
:100C90008093020420910804282331E009F430E015
:100CA00030933C3C809301048093060480930204BB
:100CB00090910804892391E009F490E090933B3CE3
:100CC000789420913C3C8091003C9091013CFC0147
:100CD000EE0FFF1FE55DF34C222309F405C12091BF
:100CE0003B3C211101C1008311830196883091059D
:100CF0000CF0FDC08093003C9093013C80913F3C00
:100D0000882309F461C080913E3C811162C08091CA
:100D10003D3C81115EC080912B3C90912C3C9C010C
:100D2000225031092230310508F044C1C0922A3CDA
:100D300010923C3C10923B3C20912A3C211125C052
:100D4000A80102C0440F551F8A95E2F7CA01F89422
:100D500040932104409325044093220420912804C9
:100D6000242331E009F430E030933C3C80932104AB
:100D7000809326048093220490912804892391E093
:100D800009F490E090933B3C789420912B3C309177
:100D90002C3C40913C3CC901880F991F865E934CC6
:100DA000442309F40AC140913B3C411106C1DC01D6
:100DB0000D931C932F5F3F4F293031050CF001C17B
:100DC00020932B3C30932C3C80913F3C882309F4AA
:100DD000C5C180913E3C882309F44CC080913D3CC4
:100DE000811148C0C8010090183C02C0880F991FAB
:100DF0000A94E2F7F8948093410480934504809329
:100E0000420420914804282331E009F430E0309373
:100E10003C3C80934104809346048093420490912B
:100E20004804892391E009F490E090933B3C789446
:100E300020913C3C8091183C9091193CFC01EE0FB4
:100E4000FF1FE45FF34C222309F422C120913B3CB5
:100E500021111EC1008311830196863091050CF08B
:100E60001AC18093183C9093193C80913F3C882391
:100E700009F474C180913E3C882309F46FC18091CC
:100E80003D3C882309F46AC181E593EA0DDB81E0EA
:100E90008093843C1092903C63E773EACE01019604
:100EA000E3DCCE010196F4DCCE01019635DB8091C6
:100EB000843C882309F478C18091833C811174C1FA
:100EC00055DB90E080E00FD981115DC18091483CF5
:100ED0009091493C843191050CF051C10196809369
:100EE000483C9093493CECCF10821182FECE209278
:100EF000003C3092013CC0923F3C82ED91EAD4DA52
:100F0000FDE28F2EFCE39F2EF12CE12CB12CA12CC5
:100F1000D4018D919D914D01BFEFAB1ABB0A892B76
:100F200041F5B501CE0101966FDC6DEE71EACE019F
:100F300009969ADCBE016F5F7F4FCE01099634DCC3
:100F40006DEF71EA1DDCC5DACE010996E5DACE0156
:100F50000196E2DAF7E0AF16B104D1F627E0E21627
:100F6000F10459F489E092EA9FDA8EE192EA9CDA80
:100F7000C5CEEFEFEE1AFE0AEDCF84E392EA94DAE3
:100F8000B701CE01019640DC62E572EACE01099616
:100F90006BDCBE016F5F7F4FCE01099605DC67EB0E
:100FA00072EAEEDB96DACE010996B6DACE01019648
:100FB000B3DAA4CE10922A3CBFCEFC01108211827B
:100FC000F9CE10922B3C10922C3CC0923E3C8BE50B
:100FD00092EA6ADA7AE1872E7CE3972EB12CA12C73
:100FE000F12CE12CD4018D919D914D01892B79F546
:100FF000C70102970297C8F0B701CE01019604DC41
:1010000066E772EACE0109962FDCBE016F5F7F4F63
:10101000CE010996C9DB66E872EAB2DB5ADACE0184
:1010200009967ADACE01019677DAEFEFEE1AFE0A28
:10103000F8E0EF16F104B1F626E0A216B10459F477
:1010400084E992EA31DA84EB92EA2EDABDCEBFEF80
:10105000AB1ABB0AEACF8AEC92EA26DAB501CE01D6
:101060000196D2DB62E572EACE010996FDDBBE0194
:101070006F5F7F4FCE01099697DB67EB72EA80DBEB
:1010800028DACE01099648DACE01019645DA9CCEDF
:1010900010821182E1CE1092183C1092193CC0923D
:1010A0003D3C82EF92EA00DA5CE0852E5CE3952E0F
:1010B000F12CE12CB12CA12CD4018D919D914D01ED
:1010C000892B59F5B501CE0101969EDB6DE073EADF
:1010D000CE010996C9DBBE016F5F7F4FCE01099635
:1010E00063DB66E872EA4CDBF4D9CE01099614DAC8
:1010F000CE01019611DAEFEFAE1ABE0AF6E0AF1696
:10110000B104D1F626E0E216F10459F48DE193EA38
:10111000CBD98EE192EAC8D9A8CEBFEFEB1AFB0A71
:10112000EACF83E393EAC0D9B701CE0101966CDB25
:1011300062E572EACE01099697DBBE016F5F7F4FD1
:10114000CE01099631DB67EB72EA1ADBC2D9CE0118
:101150000996E2D9CE010196DFD987CE8091443C31
:101160009091453CA091463CB091473C8093403CD7
:101170009093413CA093423CB093433C56CD109297
:10118000483C1092493CF2D990E080E00E94730004
:10119000811167C210925F3C8FE893EA85D981E0A4
:1011A0008093833C1092903C61EB73EACE010196F0
:1011B0005BDBCE0101966CDBCE010196ADD980914F
:1011C000833C882309F4C8C08091823C8111C4C04B
:1011D00080915F3C882309F4B2C08EE09DE30E94B9
:1011E0009200882309F443C290910E3D892F829585
:1011F0008F702AE09F70829F900D1124933681F0AA
:1012000080910F3D382F32953F708F70329F800D47
:1012100011248B3329F0992319F081508C33D8F0A5
:101220008981282F22952F708F703AE0239F800D9F
:101230001124891748F488E0FE013196AEE0BDE341
:1012400001900D928A95E1F7CE0101960E949200DD
:10125000882309F40CC281E080935E3C64E670E070
:1012600080E090E0ADD820910F3D9091103D8091AD
:10127000113D322F32953F704AE0F42E2F703F9D82
:10128000200D11241F922F93292F22952F709F70CC
:101290002F9D900D11241F929F93982F92959F70D0
:1012A0008F709F9D800D11241F928F935F924F929C
:1012B0008AE49CE39F938F931CD76AE47CE3CE017E
:1012C0000196D2DACE01019604D9CE01019624D935
:1012D0002091153D9091143D8091133D322F329510
:1012E0003F702F703F9D200D11241F922F93292FA7
:1012F00022952F709F702F9D900D11241F929F9308
:10130000982F92959F708F709F9D800D11241F9232
:101310008F9388ED93EA9F938F9383E59CE39F934C
:101320008F93E7D663E57CE3CE0101969DDACE018B
:101330000196CFD8CE010196EFD8CDBFDEBF809108
:101340005E3C882309F49AC188EF93EAADD881E026
:101350008093823C1092903C67E074EACE01019643
:1013600083DACE01019694DACE010196D5D8809128
:10137000603C811106C062E08EE0D3D881E08093AA
:10138000603C8091823C882309F46EC08091813C4E
:1013900081116AC09AE0E92EF12CCC24C39439D88B
:1013A0006093683C7093693C80936A3C90936B3C7B
:1013B0008090643C9090653CA090663CB090673C07
:1013C000681979098A099B09683E7340810591056E
:1013D00030F38091623C9091633C01968093623C33
:1013E0009093633C2091480422FB222720F920930C
:1013F000613CB701681B790BCE01019605DA60915B
:10140000613C6C2570E0CE010996FED964E274EA75
:10141000CE010F9629DABE01675F7F4FCE010F968E
:10142000C3D96FE274EAACD9BE016F5F7F4FBCD9FC
:1014300062E374EAA5D94DD8CE010F966DD8CE01DE
:1014400009966AD8CE01019667D88091623C909146
:10145000633C0A970CF415C11092623C1092633CF5
:10146000C092813C1092903C6DE374EACE010196EB
:10147000FBD9CE0101960CDACE0101964DD88091B0
:101480006C3C81112CC08AE594EA0ED88DE794EA71
:101490000BD88DE894EA08D882EA94EA05D88EEA57
:1014A00094EA02D88BEB94EA0E9454028EEA94EA02
:1014B0000E94540286EC94EA0E9454028EEA94EA56
:1014C0000E94540281ED94EA0E94540268E873E19C
:1014D00080E090E00E94E00181E080936C3C80918C
:1014E0006D3C811113C080E28093410480934604D7
:1014F000D092010490EF9093210480934604D092FF
:1015000006049093250481E080936D3C8091813C9A
:10151000882309F46FCB8091803C81116BCB80EFE5
:10152000C82E0E94B1016093743C7093753C809307
:10153000763C9093773C8090703C9090713CA0906A
:10154000723CB090733C681979098A099B096A302A
:10155000710581059105C8F1D0920604C092250459
:10156000F89480916E3C90916F3C9301082E01C0DD
:10157000220F0A94EAF7207F209327048E5F934C72
:10158000DC01EC91F0E0EA5CFE45808181B9789461
:1015900080916E3C90916F3C0196843091050CF0E7
:1015A00081C080936E3C90936F3C8091743C90918D
:1015B000753CA091763CB091773C8093703C9093C1
:1015C000713CA093723CB093733CE0907E3CF090F1
:1015D0007F3C80917C3C90917D3CE816F906B9F007
:1015E000C7010297029708F064C0E2E0FCE3819132
:1015F0008C5FDF0111978A3008F059C08C93BCE3EF
:10160000E630FB07A1F7E0927C3CF0927D3C0E9423
:1016100009028090783C9090793CA0907A3CB09000
:101620007B3C9B01AC01281939094A095B09490136
:101630005A0130EA83163FE09306A104B10408F48E
:1016400070CF4FEFE41AF40AE0927E3CF0927F3CB8
:101650006093783C7093793C80937A3C90937B3C88
:1016600060CF81E080935F3C80EA93EA97CD10924F
:101670005E3C89EE93EA0E94540261CE89EE93EAC1
:1016800065CE8091683C9091693CA0916A3CB09194
:101690006B3C8093643C9093653CA093663CB09314
:1016A000673C7DCE10926E3C10926F3C7ECF1C92B8
:1016B000A6CFE4E0EE16F1040CF4A5CF80E280930F
:1016C0004604D092060480EF8093250410927E3C5D
:1016D00010927F3C10927C3C10927D3C80EF94EA0B
:1016E0000E9454028BEE91EA0E94540281E08093A2
:1016F000803C80CABB274A3031F4992322F4BDE2F2
:10170000909581959F4F01C0BB27FB015527AA27C4
:10171000880F991FAA1FA41710F0A41B839550517E
:10172000B9F7A05DAA3308F0A95DA193009779F7F6
:10173000B111B1931192CB01E1C1ABE0B0E0E2EAAB
:10174000FBE084C27C013B018A01FC011682178206
:10175000838181FFBAC1CE0101965C01F7019381BB
:10176000F30193FD859193FF81913F01882309F453
:1017700049C1853239F493FD859193FF81913F01F1
:10178000853221F4B70190E0C9D1E8CF912C212C0A
:10179000312CFFE1F31538F08B3211F190F48032E7
:1017A00009F1833229F137FC3CC020ED280F2A30A3
:1017B00050F536FE20C08AE0989E200D1124922E0E
:1017C00006C08D3291F0803371F7689430F8F301E0
:1017D00093FD859193FF81913F018111DACF21C063
:1017E000689431F8689432F8F2CF689433F8EFCF08
:1017F000689434F8ECCFEAE02E9E200D1124222EBE
:10180000689435F8E4CF8E3229F436FCFBC0689436
:1018100036F8DDCF8C3619F4689437F8D8CF88368F
:10182000B1F2982F9F7D95549330D8F0833691F183
:101830008337B1F1833509F05EC02801F2E04F0E25
:10184000511CF801C080D180692D70E036FC02C0C7
:101850006FEF7FEFC6013CD14C01689437F88201ED
:101860000AC00C5F1F4FFFE3F98388248394912CF7
:101870006501E89437F833FE2AC0522C8114910494
:1018800059F5552009F46ACFB70180E290E046D1BE
:101890005A94F7CFF801808189830E5F1F4FE5CFFF
:1018A0002801F2E04F0E511CF801C080D180692D53
:1018B00070E036FC02C06FEF7FEFC60114D14C011F
:1018C0008201D7CFB70180E290E028D12A94281472
:1018D000190409F0B8F7D1CFF60137FC859137FE2E
:1018E00081916F01B70190E019D151105A94F1E044
:1018F0008F1A9108C3CF843619F0893609F073C066
:10190000F80137FE67C060817181828193810C5F2D
:101910001F4FF32DFF763F2E97FF09C090958095BE
:10192000709561957F4F8F4F9F4F689437F82AE0ED
:1019300030E0A50123D1C82ECA188C2C432C36FECA
:101940000CC0E89440F8C91440F434FE05C032FCE1
:1019500003C0F32DFE7E4F2E892C44FE90C0FE0165
:10196000EC0DF11D8081803309F082C0242D297E89
:10197000422E842D8870582E43FC8FC040FE89C0B3
:101980009C2C821418F42C0C922C981844FE8BC0BA
:10199000B70180E390E0C2D042FE08C088E790E043
:1019A00041FE02C088E590E0B701B8D0C91408F440
:1019B00086C0CA94D12C9FEFC91AD90ACA0CDB1C65
:1019C000F60182916F01B70190E0A8D0AC14BD047C
:1019D000B9F757CF60817181072E000C880B990BE6
:1019E0000E5F1F4F96CFD32CE894D4F82AE030E056
:1019F000853731F1232D297FD22E8F36F9F040F42F
:101A00008835A1F0F701868197812B96E2E137C1F5
:101A1000803749F08837B1F7D4FE02C06894D2F815
:101A200020E130E00DC06894D4F8F6CF34FE03C056
:101A3000822F8660D82E20E132E002C028E030E01C
:101A4000F801D7FE0EC060817181828193810C5FA5
:101A50001F4FA50193D0C82ECA183D2CE89437F823
:101A60006CCF6081718190E080E00E5F1F4FF1CFFD
:101A700042FC02C083947DCF839483947ACF842DDB
:101A8000867809F476CFF6CFB70180E290E046D0B1
:101A900083948214C8F3512C79CF522C5818821495
:101AA00008F474CFF8CF842D867809F47FCF8BE2C9
:101AB00041FE80E247FC8DE2B70190E076CFB701AE
:101AC00080E390E02BD09A9471CF8FEF9FEF9DCF62
:101AD000FC010590615070400110D8F780959095F9
:101AE0008E0F9F1F0895FC016150704001900110FE
:101AF000D8F7809590958E0F9F1F0895DC01FC010B
:101B0000672F71917723E1F7329704C07C916D9331
:101B100070836291AE17BF07C8F308950F931F93A8
:101B2000CF93DF93182F092FEB018B8181FD09C023
:101B30001FEF0FEF812F902FDF91CF911F910F910A
:101B4000089582FF14C02E813F818C819D812817CA
:101B500039073CF4E881F981CF01019688839983A4
:101B600010838E819F8101968E839F83E3CFE885CA
:101B7000F985812F0995892BA1F3DACFFA01AA27DC
:101B8000283051F1203181F1E8946F936E7F6E5FC0
:101B90007F4F8F4F9F4FAF4FB1E03ED0B4E03CD06E
:101BA000670F781F891F9A1FA11D680F791F8A1F51
:101BB000911DA11D6A0F711D811D911DA11D20D0B8
:101BC00009F468943F912AE0269F11243019305D72
:101BD0003193DEF6CF010895462F4770405D419363
:101BE000B3E00FD0C9F7F6CF462F4F70405D4A33B0
:101BF00018F0495D31FD4052419302D0A9F7EACF78
:101C0000B4E0A6959795879577956795BA95C9F7A6
:101C100000976105710508959B01AC010A2E069499
:101C20005795479537952795BA95C9F7620F731F52
:101C3000841F951FA01D08953AD0A59F900DB49FB5
:101C4000900DA49F800D911D112408952F923F9215
:101C50004F925F926F927F928F929F92AF92BF92BC
:101C6000CF92DF92EF92FF920F931F93CF93DF9368
:101C7000CDB7DEB7CA1BDB0BCDBFDEBF09942A8808
:101C8000398848885F846E847D848C849B84AA8490
:101C9000B984C884DF80EE80FD800C811B81AA811D
:101CA000B981CE0FD11DCDBFDEBFED010895A29F3A
:101CB000B001B39FC001A39F700D811D1124911D20
:101CC000B29F700D811D1124911D0895A1E21A2E5D
:101CD000AA1BBB1BFD010DC0AA1FBB1FEE1FFF1FD0
:101CE000A217B307E407F50720F0A21BB30BE40B20
:101CF000F50B661F771F881F991F1A9469F7609567
:101D00007095809590959B01AC01BD01CF01089520
:101D1000EE0FFF1F0590F491E02D09940F931F9390
:101D2000CF93DF938230910510F482E090E0E09150
:101D3000193DF0911A3D30E020E0B0E0A0E030978E
:101D400099F42115310509F44AC0281B390B2430B8
:101D50003105D8F58A819B816115710589F1FB01F7
:101D600082839383FE0111C04081518102811381DE
:101D700048175907E0F04817590799F4109761F090
:101D800012960C93129713961C933296CF01DF9103
:101D9000CF911F910F9108950093193D10931A3D13
:101DA000F4CF2115310551F04217530738F0A9013E
:101DB000DB019A01BD01DF01F801C1CFEF01F9CFCD
:101DC0008093193D90931A3DCDCFFE01E20FF31F92
:101DD000819391932250310928833983D7CF209161
:101DE000173D3091183D232B41F42091083C309150
:101DF000093C2093173D3093183D2091063C3091CB
:101E0000073C2115310541F42DB73EB740910A3CFE
:101E100050910B3C241B350BE091173DF091183D80
:101E2000E217F307A0F42E1B3F0B2817390778F0B1
:101E3000AC014E5F5F4F2417350748F04E0F5F1F10
:101E40004093173D5093183D819391939FCFF0E0BD
:101E5000E0E09CCFCF93DF930097E9F0FC0132974D
:101E600012821382A091193DB0911A3DED0130E02C
:101E700020E01097A1F420813181820F931F2091DF
:101E8000173D3091183D2817390709F061C0E093DC
:101E9000173DF093183DDF91CF910895EA01CE17D9
:101EA000DF07E8F54A815B819E0141155105B1F7D5
:101EB000E901EA83FB8349915991C40FD51FEC17BF
:101EC000FD0761F4808191810296840F951FE901DD
:101ED00088839983828193818A839B83F0E0E0E009
:101EE00012968D919C9113970097B9F52D913C9185
:101EF0001197CD010296820F931F2091173D3091CB
:101F0000183D2817390739F6309751F51092193DC9
:101F100010921A3DA093173DB093183DBCCFC283D9
:101F2000D38340815181840F951FC817D90761F46D
:101F30004E5F5F4F88819981480F591F40835183BD
:101F40008A819B81828393832115310509F0B0CF6B
:101F5000E093193DF0931A3D9ECFFD01DC01C0CF07
:101F600012821382D7CFB0E0A0E0E8EBFFE070CEA2
:101F70008C01009741F4CB01D1DE8C01C801CDB7B3
:101F8000DEB7E0E17ECEFC01E60FF71F9C01225098
:101F90003109E217F30708F499C0D901CD91DC911A
:101FA0001197C617D70790F0C530D10538F3CE0189
:101FB00004978617970710F3C61BD70B2297C19378
:101FC000D1936D937C93CF0145DFD8CF5B01AC1AE1
:101FD000BD0A4C018C0E9D1EA091193DB0911A3D79
:101FE000512C412CF12CE12C109731F58091173DAB
:101FF0009091183D8815990509F05CC04616570662
:1020000008F058C08091063C9091073C009741F43D
:102010008DB79EB740910A3C50910B3C841B950BA9
:10202000E817F90708F052C0E093173DF093183D08
:10203000F90160837183A2CF8D919C9111971296C3
:102040006C90129713967C901397A815B90559F5C3
:102050006C0142E0C40ED11CCA14DB0420F1AC01B7
:102060004A195B09DA011296159780F06282738231
:1020700040835183D9016D937C93E114F10471F095
:10208000D7011296ED93FC93139778CF22968C0F7D
:102090009D1FF90180839183F301EFCFE093193DF8
:1020A000F0931A3D6BCF4816590608F42C017D01B8
:1020B000D3019ACFCB0132DE7C01009739F0AE011B
:1020C000B80107D0C801C6DE870158CF10E000E094
:1020D00055CFFB01DC0102C001900D9241505040F0
:1020E000D8F70895FB01DC0101900D920020E1F783
:1020F0000895AEE0B0E0EEE7F0E1B6CD0D891E89BF
:1021000086E08C8309831A838FEF9FE78D839E83FC
:10211000AE01475E5F4F6F89788DCE0101960DDB72
:102120002F813885020F131FF80110822E96E4E0EC
:06213000B4CDF894FFCFCE
:102136007E0CB69ECCDAFA0EFEDE10040506070704
:10214600060504030201000001020304050102035F
:10215600000000000001010101010101010202026B
:10216600020202000000001020408080402010087B
:102176000402010102040810200204080109080AE9
:102186000B121314000000000051011502DE009D21
:10219600010F01ED0001014402C3021B0142020DC1
:1021A6000A000A5B485D002D0053455249414C3AEE
:1021B6003100434845434B494E4720415454494E0C
:1021C60059277320494E5420494F73000A504F52E5
:1021D600542D4120494F20636865636B2066696E04
:1021E600697368656421000A496E7465726E616C74
:1021F6006C792C205041006E6F7420776F726B697A
:102206006E67000A496E20504F52542041202850D4
:1022160041312D5041372900616C6C2070696E7315
:102226002061726520776F726B696E6721000A49BB
:102236006E20504F5254204120285041312D50419C
:1022460037292C206120746F74616C006F66206FD3
:102256006E6C7920000A504F52542D4220494F206F
:10226600636865636B2066696E69736865642100DF
:102276000A496E7465726E616C6C792C205042004E
:10228600206E6F7420776F726B696E6721000A4942
:102296006E20504F5254204220285042302D50423A
:1022A600312026205042342D504237292C00416CD3
:1022B6006C2070696E732061726520776F726B692E
:1022C6006E6721000A496E20504F52542042202842
:1022D6005042302D5042312026205042342D50425B
:1022E60037292C206120746F74616C000A504F529C
:1022F600542D4320494F20636865636B2066696EE1
:10230600697368656421000A496E7465726E616C52
:102316006C792C205043000A496E20504F525420AD
:102326004320285043302D504335292C000A496E4E
:1023360020504F5254204320285043302D504335CF
:10234600292C206120746F74616C000A4154544931
:102356004E59204469676974616C20494F20546561
:1023660073742066696E6973686564210043484525
:10237600434B494E47205254432773204156414907
:102386004C4142494C495459005254435F414444DC
:10239600525F464F554E443A30005254435F4144D3
:1023A60044525F464F554E443A3100434845434BED
:1023B600494E4720525443277320522F57204655E3
:1023C6004E4300253032643A253032643A253032A5
:1023D6006400253032642F253032642F32302530A8
:1023E6003264005254435F5245414441424C453A9F
:1023F60030005254435F5245414441424C453A31C4
:1024060000434845434B494E4720425554544F4E8E
:1024160020434F4E44205B50726573735D005357E3
:102426005F53544154453A2000205B002073656396
:10243600206C6566745D00434845434B494E472012
:10244600444953504C4159277320434F4E444954F5
:10245600494F4E00576174636820696620796F752D
:1024660020736565207468652062656C6F772070DF
:1024760061747465726E00696E2074686520736598
:10248600676D656E747300285374617274696E6744
:1024960020696E203520736563293A000A302C20A6
:1024A600312C20322C20330064656C61792834305D
:1024B6003030293B00342C20352C20362C20370098
:1024C600382C20392C20302C2030000A46696E61C9
:1024D6006C6C7920646973706C61792077696C6CB7
:1024E600205475726E204F4646000A444953504C9C
:1024F600415920574F524B494E473F202877726922
:0A25060074652062656C6F77290090
:0C25100001000001020300001B3D8000E0
:00000001FF
