:100000004AC000007BC0000079C0000077C000003B
:1000100075C0000073C0000071C000006FC0000018
:100020006DC000009CC5000069C0000067C00000F2
:1000300065C0000063C0000061C000005FC0000038
:100040005DC000005BC0000059C0000057C0000048
:1000500055C0000053C0000051C000004FC0000058
:100060004DC000004BC0000049C0000070C500003A
:1000700069C5000071C5000041C0000045464765E4
:10008000666700202B2D2E30313233343536373829
:1000900039680000150711241FBECFEFCDBFDFE385
:1000A000DEBF8091400080934000811105C098ED33
:1000B00021E094BF209341008CBB2DE3ACE0BCE376
:1000C00001C01D92AB31B207E1F71CE3A0E0BCE335
:1000D000EBE0F4E202C005900D92AC30B107D9F725
:1000E00010E0CBE4D0E004C02197FE010E94070E8F
:1000F000CA34D107C9F7B0D60C94191081CF892B17
:10010000C9F08FEF9FEF8093913C9093923C81E0F8
:1001100084668093170880911508807CE1F38091B4
:10012000150883FD09C0809115088295817091E0C2
:100130008927089580E0ECCF80E00895CF93DF9386
:10014000EC0190E080E0DBDF811102C080E03CC088
:100150008091150886FFFCCF80E18093180882E02B
:10016000809314088091150884FDF0CF8FEF9FEFE6
:10017000C6DF882359F3FE019E01285F3F4F46E00A
:1001800052E08091913C9091923C009729F0019728
:100190008093913C9093923C8091150887FFFCCF0F
:1001A000809118086091913C7091923C672B79F096
:1001B000509314088193E217F30719F787E08093AF
:1001C000140881E0CD2B11F2DF91CF910895409377
:1001D0001408F0CFFC0153894489252F30E0842F87
:1001E00090E0821B930B541710F04F9608950197DF
:1001F0000895FC0191898289981761F0A289AE0F58
:10020000BF2FB11D55968C9192899F5F9F73928BE2
:1002100090E008958FEF9FEF0895FC019189828906
:10022000981731F08289E80FF11D858990E00895D3
:100230008FEF9FEF0895FC0191892289892F90E02B
:10024000805C9F4F821B91098F7399270895CF93EC
:10025000DF93EC01E881F9810680F781E02D0995B3
:10026000EC85FD85868116828581158280E48483F4
:100270008A89898B188ADF91CF910895DC010FB6A6
:1002800007FE04C0809111018823B1F01C96ED9106
:10029000FC911D97848185FF0FC053969C915397C5
:1002A00054968C91981721F085818F7D85830895D0
:1002B000E3E9FCE3E894E9C308950F931F93CF9318
:1002C000DF93EC018889982F9160988B2B899C890A
:1002D00029130AC0EC85FD85948195FF05C081FD39
:1002E0000DC080E4848312C0062F1B891F5F1F711D
:1002F0008C89811315C0CE01C1DFFACF85818F773C
:10030000806490E49483EC85FD858583EC85FD8590
:10031000628381E090E0DF91CF911F910F9108956A
:10032000EB89EC0FFD2FF11DEB5AFF4F00831B8B68
:10033000EC85FD85888981FF09C085818F7780667E
:1003400090E49483EC85FD858583E3CF858180628D
:10035000FBCFCF93DF93EC018889882359F0EC859C
:10036000FD85858185FD03C0848186FD03C0CE01A6
:1003700085DFF5CFDF91CF910895AF92BF92CF92F5
:10038000DF92EF92FF920F931F93CF93DF936C0155
:100390007B018B01040F151FEB015E01AE18BF0836
:1003A000C017D10759F06991D601ED91FC910190E8
:1003B000F081E02DC6010995892B79F7C501DF9100
:1003C000CF911F910F91FF90EF90DF90CF90BF9052
:1003D000AF90089581E008958FB7F8946091210A55
:1003E00090910B0A2091123C3091133C4091143CA7
:1003F0005091153C8FBF8EEF861B91FF06C0843055
:1004000020F42F5F3F4F4F4F5F4F93E0899FF001E4
:100410001124982F92959F70E91BF1098695869576
:10042000E80FF11DA0E3B3E00E94CC0D6E0F7F1F1B
:10043000811D911D0895CF92DF92EF92FF92CF938D
:10044000DF936B017C01C8DFEB01C114D104E1042F
:10045000F10441F412C081E0C81AD108E108F108A2
:10046000C851DC4FB9DF6C1B7D0B683E734068F3ED
:10047000C114D104E104F10471F7DF91CF91FF9031
:10048000EF90DF90CF9008952FB7F89460910E3CD5
:1004900070910F3C8091103C9091113C2FBF0895BA
:1004A000DC01ED91FC910088F189E02D23E030E042
:1004B0000994FC0101900020E9F73197AF01481B36
:1004C000590BBC0183E99CE358CFCF93DF93FC0128
:1004D000448155816081718183E99CE34EDFEC01A9
:1004E00085EA90EAE6DF8C0F9D1FDF91CF9108959A
:1004F000CF93DF93DEDFEC0185EA90EADADF8C0F41
:100500009D1FDF91CF9108958F929F92AF92BF92DE
:10051000CF92DF92EF92FF920F931F93CF93DF93CF
:10052000CDB7DEB7A197CDBFDEBF6C01990FEE0846
:10053000FF08F7FE3CC06DE283E99CE3BEDE8C0160
:1005400022273327A9012C193D094E095F0919A259
:10055000CE0181967C019AE0892E912CA12CB12CA0
:10056000CA01B901A50194010E94E50D605DF70182
:1005700062937F01211531054105510589F790E00E
:1005800080E0309711F0CF0194DF800F911FA1968A
:10059000CDBFDEBFDF91CF911F910F91FF90EF9004
:1005A000DF90CF90BF90AF909F908F900895A7015C
:1005B000960119A28E010F5D1F4F8AE0C82ED12C23
:1005C000E12CF12CCA01B901A70196010E94E50DA9
:1005D000605DF80162938F012115310541055105D8
:1005E00089F790E080E0309791F2CF0162DFCFCFC2
:1005F000CF93DF93EC0188819981009711F00E94DD
:10060000A90E188219821C821D821A821B82DF9118
:10061000CF910895FC01808191810C94A90E8631BF
:10062000F0F490E0FC01EE59FF4520812F3FB9F036
:10063000FC01E45BFF45E081E295EE0FF0E0F46041
:10064000613071F421838A5C9F45DC018C9180616B
:10065000E80FF11D8081613031F08860808308955A
:1006600022832583F0CF877FF9CF62E08AE0D7DF4E
:1006700062E08BE0D4DFE0E1F8E0168281E0838382
:10068000858308958F929F92AF92BF92EF92FF92CF
:100690000F931F93CF93DF938C014A015B01E90114
:1006A000DC0150968C91509780FF07C0ED91FC9132
:1006B0000288F389E02DC8010995C11101C0C3E08A
:1006C000EC2EE894E2F8FD2ECD2FD095D07CB5EB42
:1006D0008B16B4EC9B06B4E0AB06B10428F0D260F4
:1006E000B694A7949794879460E07DE281E391E0CB
:1006F000A50194010E94E50D2034310510F420E499
:1007000030E0F2FCD8608C2F8B72D7FD8068CD2F43
:10071000C87C83FF07C0C83C29F4F8019089926027
:10072000908BC8ED80FDC160FFB6F894D8011C968F
:10073000ED91FC911682E7822087318785FF3FC0CB
:10074000CF7791E094879FEF95878F7D8583D683C0
:10075000F8012785868590910102222391F191600D
:1007600090930102820F9927991F880F991F880F74
:10077000991F8C010D571F45C6FF25C0C3FD23C01F
:1007800061E0D8018C914BDFC7FF07C0C4FD05C0F5
:1007900062E0D80111968C9142DFC0FF04C061E095
:1007A000F80183813CDFFFBEDF91CF911F910F9154
:1007B000FF90EF90BF90AF909F908F900895148618
:1007C000C4CF9E7FCDCF2C2F2075F1F28D579F4542
:1007D00062E0FC018081D7CF0F931F93CF93DF930B
:1007E000EC0188819981009759F02A813B81261775
:1007F000370730F081E0DF91CF911F910F9108957D
:100800008B016F5F7F4F0E94320F009759F08883F2
:1008100099830A831B832C813D81232B59F7FC018B
:100820001082E8CF80E0E7CFEF92FF920F931F9303
:10083000CF93DF936115710541F480E0DF91CF9193
:100840001F910F91FF90EF90089541155105A9F068
:100850007B01EC010C811D81040F151FB801BCDF69
:10086000882359F3288139818C819D81B701820FBA
:10087000931F0E94F10F0C831D8381E0DFCFCF9384
:10088000DF93EC01FB0101900020E9F73197AF0104
:10089000461B570BC9DF811102C0CE01A9DECE0174
:1008A000DF91CF910895CF93DF93EC01FB01448159
:1008B000558160817181B8DF811102C0CE0198DE5F
:1008C000CE01DF91CF910895EF92FF920F931F9386
:1008D000CF93DF93EC017B018A01BA017DDF8111A7
:1008E0000AC0CE0185DECE01DF91CF911F910F911D
:1008F000FF90EF9008950C831D83B7018881998143
:100900000E94F10FF0CFEF92FF920F931F93CF93BE
:10091000DF93CDB7DEB76297CDBFDEBF8C01CB01D1
:10092000F8011082118212821382148215824AE029
:100930009E012F5F3F4F7901B9010E940B0DF70116
:1009400001900020E9F73197AF014E195F09B70117
:10095000C801BADF6296CDBFDEBFDF91CF911F9194
:100960000F91FF90EF900895FC0110821182128286
:100970001382148215826115710549F0FB01019003
:100980000020E9F73197AF01461B570B9DCF089523
:10099000CF92DF92EF92FF920F931F93CF93DF934B
:1009A000CDB7DEB72C97CDBFDEBF2091903C211193
:1009B00058C07C0168EA70EACE010196D5DFB70124
:1009C000CE01019670DF60EA73EA59DF7EDDCE0169
:1009D000019620DE8E01095F1F4F6DEA70EAC801A3
:1009E000C3DFD12CC12CF70184819581C816D906AB
:1009F00064F519821A821B821C821D821E826F81FD
:100A000078856115710529F04B855C85CE010196CD
:100A10005BDF6DEA70EACE01019631DF8017910746
:100A200051F0FC01608171816115710559F04481BB
:100A30005581C80149DFCE010196ECDDFFEFCF1AE9
:100A4000DF0AD1CFC801D4DDF6CFC8013EDD81E099
:100A50008093903C60ED77E080E090E0ECDCC801B2
:100A6000D9DD2C96CDBFDEBFDF91CF911F910F91C5
:100A7000FF90EF90DF90CF9008952F932FB72F9393
:100A80008F939F93AF93BF936894CF93DF9320E0AE
:100A9000C485D5859489DF01A90FB21FAB5ABF4F1A
:100AA0008C9120E42C838A839F5F9F718D812389A1
:100AB000291302C08F7D8D83948BDF91CF910EF02F
:100AC000FBCBBF91AF919F918F912F912FBF2F9112
:100AD000FF91EF9118952F932FB72F938F939F939B
:100AE000CF93DF93C485D5858981988181FD0DC021
:100AF000C18981E08C0F8F732289281731F0CE0FC6
:100B0000DF2F20E0D21F9D8B818BDF91CF919F91B2
:100B10008F912F912FBF2F91FF91EF911895FF93F8
:100B20008F938FB78F93F8E08081848187FFFCCF0C
:100B300085818F7B806885838F918FBF8F91FF9197
:100B4000EF911895EF93FF93E3E9FCE396CFEF93D2
:100B5000FF93E3E9FCE3BFCFEF93E0E0E0CF1F9228
:100B60000F920FB60F9211242F933F934F935F93E1
:100B70006F938F939F93AF93BF9380910E3C90910F
:100B80000F3CA091103CB091113C40910C3C509115
:100B90000D3C9A01205D3C4F283E63E0360728F06B
:100BA000285E33400196A11DB11D20930C3C30936B
:100BB0000D3C80930E3C90930F3CA093103CB0935F
:100BC000113C8091123C9091133CA091143CB09147
:100BD000153C0196A11DB11D8093123C9093133CCE
:100BE000A093143CB093153C82E080930B0ABF9114
:100BF000AF919F918F916F915F914F913F912F9105
:100C00000F900FBE0F901F901895ABE0B0E0EAE098
:100C1000F6E0C9C66C017B013A01FC01168217821D
:100C2000838181FFFFC0CE0101964C01F601B380A4
:100C3000F701B3FC0591B3FE01917F01002341F15F
:100C4000053239F4B3FC0591B3FE01917F01053201
:100C500039F5B601802F90E001D753013501E6CF79
:100C60001068F701B3FC0591B3FE01917F0117FDF8
:100C70000DC0002369F0602F70E083E890E0C0D6DB
:100C8000892B79F7033251F00C3651F301110AC068
:100C9000F601868197812B96EEE09EC610E1E1CFAA
:100CA00010E0E5CF602F70E08CE790E0A9D6892BAB
:100CB00049F05301F4E0AF0EB11CB6018FE390E0B0
:100CC000CDD6CCCF033609F452C0033709F459C04E
:100CD000033509F455C0043619F0093609F070C01F
:100CE000530117FF62C0F4E0AF0EB11CF301608145
:100CF0007181828193811F7E97FF08C090958095B6
:100D0000709561957F4F8F4F9F4F10642AE030E0C0
:100D1000A401D4D6082F081916FF04C0B6018DE22D
:100D200090E09CD614FF13C0FE01E00FF11D8081FE
:100D3000803369F0B60180E390E090D612FF07C0DF
:100D40001072812F90E0B601885A9F4F87D60150CC
:100D500010E00F5F1F4F080D191DF80182918F01E0
:100D6000B60190E07BD608151905B9F777CF530186
:100D700082E0A80EB11CB601F30180819181A0CF61
:100D800011605301F2E0AF0EB11CF301608071807D
:100D9000F30110FD859110FF81913F01882309F433
:100DA0005DCFB60190E05AD6F3CFF2E0AF0EB11CA2
:100DB000F30160817181072E000C880B990B9BCF8A
:100DC000003709F140F4083501F10F3609F060CF22
:100DD00028E030E00CC0053739F0083709F058CF6B
:100DE000146220E130E003C01F7E2AE030E05301AE
:100DF00017FF0FC0F4E0AF0EB11CF30160817181E9
:100E00008281938185CF1061EBCF146020E132E0C5
:100E1000EECFF2E0AF0EB11CF3016081718190E082
:100E200080E076CF8FEF9FEF36CFE3E9FCE31282CD
:100E3000138288EE93E0A0E0B0E084839583A683DC
:100E4000B7838FE890EA8083918380E098E084877D
:100E50009587168617860895CF93DF93CDB7DEB7B3
:100E60002E97CDBFDEBF88ED93E084BF90936100E5
:100E700081E5809302068DE08093050680E28093F1
:100E8000030681E0809300068093030A8EEF80932F
:100E9000260A8093270A89E08093000A80910A0A33
:100EA000826080930A0A7894789440E052EC61E082
:100EB00070E083E99CE3F4DA60ED77E080E090E0B5
:100EC000BADAE2DA60934A3C70934B3C80934C3C34
:100ED00090934D3CD9DA60936E3C70936F3C809355
:100EE000703C9093713C78DA60937A3C70937B3CD1
:100EF00080937C3C90937D3CC7DA6093823C7093F6
:100F0000833C8093843C9093853C01E010E0442432
:100F10004394512C8EEFD82E91E1692E712C809143
:100F20008F3C811106C08FEA90EAE2DA81E080937B
:100F30008F3C68EB70EACE01019616DDCE0101967A
:100F400027DDCE01019666DB80918E3C811139C18F
:100F5000CC24C39499DA60934E3C70934F3C8093B9
:100F6000503C9093513C80904A3C90904B3CA090D8
:100F70004C3CB0904D3C681979098A099B0964364C
:100F800071058105910530F38091493C811150C074
:100F90008091483C811147C08091473C811143C0FA
:100FA000C8010090003C02C0880F991F0A94E2F724
:100FB000F8948093010480930504809302042091A7
:100FC0000804282331E009F430E03093463C809354
:100FD00001048093060480930204909108048923FD
:100FE00091E009F490E09093453C78942091463C40
:100FF0008091003C9091013CFC01EE0FFF1FEB5CE7
:10100000F34C222309F406C12091453C211102C171
:10101000008311830196883091050CF0FEC0809307
:10102000003C9093013C8091493C882309F461C0C5
:101030008091483C811162C08091473C81115EC023
:101040008091353C9091363C9C01225031092230F0
:10105000310508F034C1C092343C1092463C1092E5
:10106000453C2091343C211125C0A80102C0440F09
:10107000551F8A95E2F7CA01F894409321044093E2
:1010800025044093220420912804242331E009F40C
:1010900030E03093463C8093210480932604809373
:1010A000220490912804892391E009F490E0909320
:1010B000453C78942091353C3091363C4091463CFB
:1010C000C901880F991F8C5D934C442309F4FAC021
:1010D0004091453C4111F6C0DC010D931C932F5FFC
:1010E0003F4F293031050CF0F1C02093353C30934F
:1010F000363C8091493C882309F493C18091483C57
:10110000882309F44CC08091473C811148C0C80134
:101110000090223C02C0880F991F0A94E2F7F894CD
:1011200080934104809345048093420420914804B5
:10113000282331E009F430E03093463C80934104A9
:10114000809346048093420490914804892391E05F
:1011500009F490E09093453C78942091463C80912E
:10116000223C9091233CFC01EE0FFF1FEA5EF34C02
:10117000222309F401C12091453C2111FDC00083C7
:1011800011830196863091050CF0F9C08093223CC2
:101190009093233C8091493C882309F442C180917B
:1011A000483C882309F43DC18091473C882309F4D9
:1011B00038C18FE492EA9CD981E080938E3C1092F2
:1011C000903C62E772EACE010196CEDBCE01019639
:1011D000DFDBCE0101961EDA80918E3C882309F474
:1011E00046C180918D3C811142C13FDA90E080E0A0
:1011F0000E947F0081112AC18091523C9091533C02
:10120000843191050CF01EC101968093523C90935D
:10121000533CEBCF10821182FDCE4092003C5092A5
:10122000013CC092493C82ED90EA62D9F7E38F2EEF
:10123000FCE39F2EF12CE12CB12CA12CD4018D913B
:101240009D914D01BFEFAB1ABB0A892BB9F48CEE0F
:1012500090EA2FD9C50158D981E091EA49D9F7E040
:10126000AF16B10459F727E0E216F10459F48FE004
:1012700091EA3ED988E291EA3BD9D5CEEFEFEE1A5A
:10128000FE0AEDCF8FE391EA33D9B701CE01019683
:101290003ADB60E671EACE01099666DBBE016F5F5C
:1012A0007F4FCE010996FFDA6BE271EAE8DA0DD9D9
:1012B000CE010996AFD9CE010196ACD9B4CE109229
:1012C000343CCFCEFC011082118209CF1092353C04
:1012D0001092363CC092483C89E691EA09D974E202
:1012E000872E7CE3972EB12CA12CF12CE12CD4017C
:1012F0008D919D914D01892BF1F4C70102970297C1
:1013000040F083E891EAD5D8C701FED881E091EAA0
:10131000EFD8EFEFEE1AFE0AF8E0EF16F10439F716
:1013200026E0A216B10459F488E991EAE1D888E2EE
:1013300091EADED8DECEBFEFAB1ABB0AEACF8BEB69
:1013400091EAD6D8B501CE010196DDDA60E671EA00
:10135000CE01099609DBBE016F5F7F4FCE01099672
:10136000A2DA6BE271EA8BDAB0D8CE01099652D9D3
:10137000CE0101964FD9BDCE1082118202CF1092BC
:10138000223C1092233CC092473C86EE91EAB0D8B2
:1013900056E1852E5CE3952EF12CE12CB12CA12C8D
:1013A000D4018D919D914D01892BD1F480E092EA79
:1013B00080D8C501A9D881E091EA9AD8EFEFAE1A9A
:1013C000BE0AF6E0AF16B10459F726E0E216F104C2
:1013D00059F485E192EA8CD888E291EA89D8DACE8C
:1013E000BFEFEB1AFB0AEACF8EE292EA81D8B7018F
:1013F000CE01019688DA60E671EACE010996B4DA88
:10140000BE016F5F7F4FCE0109964DDA6BE271EA44
:1014100036DA5BD8CE010996FDD8CE010196FAD80E
:10142000B9CE80914E3C90914F3CA091503CB091F0
:10143000513C80934A3C90934B3CA0934C3CB093DE
:101440004D3C88CD1092523C1092533C0ED990E006
:1014500080E00E947F00811159C21092693C8EE8A1
:1014600092EA46D881E080938D3C1092903C60EBEC
:1014700072EACE01019678DACE01019689DACE01C0
:101480000196C8D880918D3C882309F4BDC0809115
:101490008C3C8111B9C08091693C882309F4A6C0B5
:1014A0008EE09DE30E949E00882309F435C280915E
:1014B0000F3D282F22952F709AE08F70299F800D65
:1014C00011248B33D1F48A81282F22952F708F70AD
:1014D000299F800D1124811109C088E0FE013196F9
:1014E000AEE0BDE301900D928A95E1F7CE01019641
:1014F0000E949E00882309F40FC281E08093683C1B
:1015000064E670E080E090E00E941B0220910F3DB5
:101510009091103D8091113D322F32953F704AE0FD
:10152000F42E2F703F9D200D11241F922F93292FF1
:1015300022952F709F702F9D900D11241F929F93C5
:10154000982F92959F708F709F9D800D11241F92F0
:101550008F9388EC92EA9F938F9384E59CE39F930B
:101560008F9346D564E57CE3CE010196FDD9CE018B
:1015700001960E946502CE0101964CD82091153D3E
:101580009091143D8091133D322F32953F702F7012
:101590003F9D200D11241F922F93292F22952F70EC
:1015A0009F702F9D900D11241F929F93982F9295BD
:1015B0009F708F709F9D800D11241F928F9387EDD8
:1015C00092EA9F938F938DE59CE39F938F9310D521
:1015D0006DE57CE3CE010196C7D9CE0101960E944C
:1015E0006502CE01019616D8CDBFDEBF8091683C62
:1015F000882309F498C187EF92EA0E94780281E07B
:1016000080938C3C1092903C66E073EACE01019688
:10161000ABD9CE010196BCD9CE0101960E940A0336
:1016200080916A3C811107C062E08EE00E940F0346
:1016300081E080936A3C80918C3C882309F45FC0F0
:1016400080918B3C81115BC0CC24C3949AE0E92E3D
:10165000F12C0E9444026093723C7093733C80931F
:10166000743C9093753C80906E3C90906F3CA09041
:10167000703CB090713C681979098A099B09683EF1
:1016800073408105910528F380916C3C90916D3CED
:10169000019680936C3C90936D3C8091480482FB52
:1016A000882780F980936B3C83E293EA0E94590279
:1016B00080916B3C8C2590E00E9484028EE293EA3C
:1016C0000E94590280916C3C90916D3CD701A81BFF
:1016D000B90BCD010E94840281E393EA0E94780253
:1016E00080916C3C90916D3C0A970CF41FC1109254
:1016F0006C3C10926D3CC0928B3C1092903C6CE321
:1017000073EACE01019630D9CE01019641D9CE01BE
:1017100001960E940A038091763C811135C089E5CB
:1017200093EA0E94780282EA93EA0E94780287EAAA
:1017300093EA0E9478028CEA93EA0E94780289EB8D
:1017400093EA0E9478028EEB93EA0E9478028CEA78
:1017500093EA0E94780283EC93EA0E94780288EC74
:1017600093EA0E9478028CEA93EA0E9478028DEC58
:1017700093EA0E94780268E873E180E090E00E94BA
:101780001B0281E08093763C8091773C811113C0ED
:1017900080E28093410480934604D092010490EF4C
:1017A0009093210480934604D092060490932504DC
:1017B00081E08093773C80918B3C882309F4AFCB08
:1017C00080918A3C8111ABCB80EFC82E0E94EC0146
:1017D00060937E3C70937F3C8093803C9093813CEF
:1017E00080907A3C90907B3CA0907C3CB0907D3C7B
:1017F000681979098A099B096A3071058105910583
:10180000C8F1D0920604C0922504F8948091783CE7
:101810009091793C9301082E01C0220F0A94EAF7B7
:10182000207F209327048E5F934CDC01EC91F0E045
:10183000E858FF45808181B978948091783C9091F7
:10184000793C0196843091050CF081C08093783CFE
:101850009093793C80917E3C90917F3CA091803C1C
:10186000B091813C80937A3C90937B3CA0937C3CEC
:10187000B0937D3CE090883CF090893C8091863C20
:101880009091873CE816F906B9F0C70102970297D4
:1018900008F064C0E2E0FCE381918C5FDF01119706
:1018A0008A3008F059C08C93BCE3E630FB07A1F7FF
:1018B000E092863CF092873C0E9444028090823CF9
:1018C0009090833CA090843CB090853C9B01AC01FF
:1018D000281939094A095B0949015A0130EA831676
:1018E0003FE09306A104B10408F470CF4FEFE41A6F
:1018F000F40AE092883CF092893C6093823C7093B9
:10190000833C8093843C9093853C60CF81E08093BE
:10191000693C8FE992EAA5CD1092683C88EE92EA84
:101920000E94780263CE88EE92EA67CE8091723C84
:101930009091733CA091743CB091753C80936E3C47
:1019400090936F3CA093703CB093713C82CE109208
:10195000783C1092793C7ECF1C92A6CFE4E0EE1644
:10196000F1040CF4A5CF80E280934604D0920604E3
:1019700080EF809325041092883C1092893C10924D
:10198000863C1092873C8BEE93EA0E9478028AEEA6
:1019900090EA0E94780281E080938A3CC0CA2F922C
:1019A0003F924F925F926F927F928F929F92AF92EF
:1019B000BF92CF92DF92EF92FF920F931F93CF933C
:1019C000DF93CDB7DEB7CA1BDB0BCDBFDEBF0994FB
:1019D0002A88398848885F846E847D848C849B84BF
:1019E000AA84B984C884DF80EE80FD800C811B81CD
:1019F000AA81B981CE0FD11DCDBFDEBFED01089503
:101A0000FC010590061621F00020D9F7C0010895C9
:101A10003197CF010895BB274A3031F4992322F43E
:101A2000BDE2909581959F4F01C0BB27FB015527D3
:101A3000AA27880F991FAA1FA41710F0A41B83952B
:101A40005051B9F7A05DAA3308F0A95DA1930097A2
:101A500079F7B111B1931192CB018EC00F931F93FF
:101A6000CF93DF93182F092FEB018B8181FD09C0E4
:101A70001FEF0FEF812F902FDF91CF911F910F91CB
:101A8000089582FF14C02E813F818C819D8128178B
:101A900039073CF4E881F981CF0101968883998365
:101AA00010838E819F8101968E839F83E3CFE8858B
:101AB000F985812F0995892BA1F3DACFFA01AA279D
:101AC000283051F1203181F1E8946F936E7F6E5F81
:101AD0007F4F8F4F9F4FAF4FB1E03ED0B4E03CD02F
:101AE000670F781F891F9A1FA11D680F791F8A1F12
:101AF000911DA11D6A0F711D811D911DA11D20D079
:101B000009F468943F912AE0269F11243019305D32
:101B10003193DEF6CF010895462F4770405D419323
:101B2000B3E00FD0C9F7F6CF462F4F70405D4A3370
:101B300018F0495D31FD4052419302D0A9F7EACF38
:101B4000B4E0A6959795879577956795BA95C9F767
:101B500000976105710508959B01AC010A2E06945A
:101B60005795479537952795BA95C9F7620F731F13
:101B7000841F951FA01D0895DC01FC01672F719142
:101B80007723E1F7329704C07C916D937083629163
:101B9000AE17BF07C8F3089509D0A59F900DB49F55
:101BA000900DA49F800D911D11240895A29FB00156
:101BB000B39FC001A39F700D811D1124911DB29F81
:101BC000700D811D1124911D0895A1E21A2EAA1BEA
:101BD000BB1BFD010DC0AA1FBB1FEE1FFF1FA217DD
:101BE000B307E407F50720F0A21BB30BE40BF50BDA
:101BF000661F771F881F991F1A9469F76095709563
:101C0000809590959B01AC01BD01CF010895EE0F29
:101C1000FF1F0590F491E02D09940F931F93CF932C
:101C2000DF938230910510F482E090E0E091193D5D
:101C3000F0911A3D30E020E0B0E0A0E0309799F458
:101C40002115310509F44AC0281B390B2430310510
:101C5000D8F58A819B816115710589F1FB01828329
:101C60009383FE0111C04081518102811381481785
:101C70005907E0F04817590799F4109761F0129648
:101C80000C93129713961C933296CF01DF91CF914C
:101C90001F910F9108950093193D10931A3DF4CFB1
:101CA0002115310551F04217530738F0A901DB0126
:101CB0009A01BD01DF01F801C1CFEF01F9CF809397
:101CC000193D90931A3DCDCFFE01E20FF31F819392
:101CD00091932250310928833983D7CF2091173D22
:101CE0003091183D232B41F42091083C3091093C60
:101CF0002093173D3093183D2091063C3091073CCE
:101D00002115310541F42DB73EB740910A3C509161
:101D10000B3C241B350BE091173DF091183DE21769
:101D2000F307A0F42E1B3F0B2817390778F0AC01FE
:101D30004E5F5F4F2417350748F04E0F5F1F4093EB
:101D4000173D5093183D819391939FCFF0E0E0E0D1
:101D50009CCFCF93DF930097E9F0FC01329712827A
:101D60001382A091193DB0911A3DED0130E020E0C1
:101D70001097A1F420813181820F931F2091173D8C
:101D80003091183D2817390709F061C0E093173DDD
:101D9000F093183DDF91CF910895EA01CE17DF0748
:101DA000E8F54A815B819E0141155105B1F7E901D2
:101DB000EA83FB8349915991C40FD51FEC17FD07A6
:101DC00061F4808191810296840F951FE9018883D7
:101DD0009983828193818A839B83F0E0E0E012966D
:101DE0008D919C9113970097B9F52D913C91119786
:101DF000CD010296820F931F2091173D3091183D1F
:101E00002817390739F6309751F51092193D10927D
:101E10001A3DA093173DB093183DBCCFC283D38326
:101E200040815181840F951FC817D90761F44E5F17
:101E30005F4F88819981480F591F408351838A8160
:101E40009B81828393832115310509F0B0CFE09304
:101E5000193DF0931A3D9ECFFD01DC01C0CF1282E7
:101E60001382D7CFB0E0A0E0E7E3FFE09ACD8C018A
:101E7000009741F4CB01D1DE8C01C801CDB7DEB7AC
:101E8000E0E1A8CDFC01E60FF71F9C0122503109CB
:101E9000E217F30708F499C0D901CD91DC911197AD
:101EA000C617D70790F0C530D10538F3CE01049797
:101EB0008617970710F3C61BD70B2297C193D193B0
:101EC0006D937C93CF0145DFD8CF5B01AC1ABD0A7F
:101ED0004C018C0E9D1EA091193DB0911A3D512CC4
:101EE000412CF12CE12C109731F58091173D909108
:101EF000183D8815990509F05CC04616570608F08C
:101F000058C08091063C9091073C009741F48DB7F2
:101F10009EB740910A3C50910B3C841B950BE817EF
:101F2000F90708F052C0E093173DF093183DF9010E
:101F300060837183A2CF8D919C91119712966C90C2
:101F4000129713967C901397A815B90559F56C0153
:101F500042E0C40ED11CCA14DB0420F1AC014A19C2
:101F60005B09DA011296159780F0628273824083D2
:101F70005183D9016D937C93E114F10471F0D70181
:101F80001296ED93FC93139778CF22968C0F9D1F9A
:101F9000F90180839183F301EFCFE093193DF09332
:101FA0001A3D6BCF4816590608F42C017D01D30168
:101FB0009ACFCB0132DE7C01009739F0AE01B80137
:101FC00007D0C801C6DE870158CF10E000E055CF2A
:101FD000FB01DC0102C001900D9241505040D8F746
:101FE0000895FB01DC0101900D920020E1F70895B6
:101FF000AEE0B0E0EDEFFFE0E0CC0D891E8986E0B9
:102000008C8309831A838FEF9FE78D839E83AE01B4
:10201000475E5F4F6F89788DCE0101960E9405065D
:102020002F813885020F131FF80110822E96E4E0ED
:06203000DDCCF894FFCFA7
:102036000405060707060504030201000001020362
:102046000405010203000000000001010101010175
:10205600010102020202020200000000102040807C
:102066008040201008040201010204081020020426
:1020760008017E0CB69ECCDAFA0EFEDE1009080ABE
:102086000B12131400000000005D01BD01EA00A957
:10209600011B01F9000D01500242032701EA010D5F
:1020A6000A000A5B485D002D0053455249414C3AEF
:1020B6003100434845434B494E4720415454494E0D
:1020C60059277320494E5420494F7300504F52549C
:1020D6002D4120494F20636865636B2066696E69F0
:1020E6007368656421005B4552525D20496E7465D4
:1020F600726E616C6C792C20504100206E6F7420DA
:10210600776F726B696E6721005B2F5D20496E20C9
:10211600504F5254204120285041312D50413729EB
:102126002C00416C6C2070696E732061726520779B
:102136006F726B696E67210A005B585D20496E20DD
:10214600504F5254204120285041312D50413729BB
:102156002C206120746F74616C006F66206F6E6C4A
:10216600792000504F52542D4220494F2063686514
:10217600636B2066696E697368656421005B45520E
:10218600525D20496E7465726E616C6C792C2050BC
:1021960042005B2F5D20496E20504F525420422052
:1021A600285042302D5042312026205042342D50A6
:1021B6004237292C005B585D20496E20504F5254FF
:1021C600204220285042302D5042312026205042B5
:1021D600342D504237292C206120746F74616C00B5
:1021E600504F52542D4320494F20636865636B203E
:1021F60066696E697368656421005B4552525D20AD
:10220600496E7465726E616C6C792C205043005B6C
:102216002F5D20496E20504F5254204320285043B2
:10222600302D504335292C005B585D20496E2050D7
:102236004F5254204320285043302D504335292CEB
:10224600206120746F74616C000A415454494E59E0
:10225600204469676974616C20494F205465737422
:102266002066696E6973686564210A0043484543C0
:102276004B494E4720525443277320415641494CFF
:102286004142494C495459005254435F41444452D7
:102296005F464F554E443A30005254435F414444E2
:1022A600525F464F554E443A3100434845434B49E9
:1022B6004E4720525443277320522F572046554EDF
:1022C6004300253032643A253032643A2530326490
:1022D60000253032642F253032642F3230253032DB
:1022E60064005254435F5245414441424C453A30A2
:1022F600005254435F5245414441424C453A3100F5
:10230600434845434B494E4720425554544F4E206F
:10231600434F4E44205B50726573735D0053575FA5
:1023260053544154453A2000205B002073656320D6
:102336006C6566745D00434845434B494E472044EF
:102346004953504C4159277320434F4E44495449F1
:102356004F4E00576174636820696620796F752057
:10236600736565207468652062656C6F772070619F
:10237600747465726E200A696E20746865207365D0
:10238600676D656E74730A285374617274696E673B
:1023960020696E203520736563293A00302C203180
:1023A60000322C20330064656C617928343030307B
:1023B600293B00342C203500362C203700382C20C1
:1023C6003900302C20300046696E616C6C792064CF
:1023D6006973706C61792077696C6C205475726EC4
:1023E600204F4646000A444953504C415920574F06
:1023F600524B494E473F20287772697465206265C3
:052406006C6F77290056
:0C240B0001000001020300001B3D8000E6
:00000001FF
