:100000004AC000007BC0000079C0000077C000003B
:1000100075C0000073C0000071C000006FC0000018
:100020006DC000001EC5000069C0000067C0000070
:1000300065C0000063C0000061C000005FC0000038
:100040005DC000005BC0000059C0000057C0000048
:1000500055C0000053C0000051C000004FC0000058
:100060004DC000004BC0000049C0000055C5000055
:100070004EC5000056C5000041C00000454647651A
:10008000666700202B2D2E30313233343536373829
:1000900039680000A40611241FBECFEFCDBFDFE3F7
:1000A000DEBF8091400080934000811105C098ED33
:1000B00021E094BF209341008CBB2DE3ACE0BCE376
:1000C00001C01D92AB31B207E1F71CE3A0E0BCE335
:1000D000E3ECF3E202C005900D92AC30B107D9F722
:1000E00010E0CBE4D0E004C02197FE010E94E80DAF
:1000F000CA34D107C9F73FD60C94FA0F81CF892BA8
:10010000C9F08FEF9FEF8093913C9093923C81E0F8
:1001100084668093170880911508807CE1F38091B4
:10012000150883FD09C0809115088295817091E0C2
:100130008927089580E0ECCF80E00895CF93DF9386
:10014000EC0190E080E0DBDF811102C080E03CC088
:100150008091150886FFFCCF80E18093180882E02B
:10016000809314088091150884FDF0CF8FEF9FEFE6
:10017000C6DF882359F3FE019E01285F3F4F46E00A
:1001800052E08091913C9091923C009729F0019728
:100190008093913C9093923C8091150887FFFCCF0F
:1001A000809118086091913C7091923C672B79F096
:1001B000509314088193E217F30719F787E08093AF
:1001C000140881E0CD2B11F2DF91CF910895409377
:1001D0001408F0CFFC0153894489252F30E0842F87
:1001E00090E0821B930B541710F04F9608950197DF
:1001F0000895FC0191898289981761F0A289AE0F58
:10020000BF2FB11D55968C9192899F5F9F73928BE2
:1002100090E008958FEF9FEF0895FC019189828906
:10022000981731F08289E80FF11D858990E00895D3
:100230008FEF9FEF0895FC0191892289892F90E02B
:10024000805C9F4F821B91098F7399270895CF93EC
:10025000DF93EC01E881F9810680F781E02D0995B3
:10026000EC85FD85868116828581158280E48483F4
:100270008A89898B188ADF91CF910895DC010FB6A6
:1002800007FE04C0809111018823B1F01C96ED9106
:10029000FC911D97848185FF0FC053969C915397C5
:1002A00054968C91981721F085818F7D85830895D0
:1002B000E3E9FCE3E89478C308950F931F93CF9389
:1002C000DF93EC018889982F9160988B2B899C890A
:1002D00029130AC0EC85FD85948195FF05C081FD39
:1002E0000DC080E4848312C0062F1B891F5F1F711D
:1002F0008C89811315C0CE01C1DFFACF85818F773C
:10030000806490E49483EC85FD858583EC85FD8590
:10031000628381E090E0DF91CF911F910F9108956A
:10032000EB89EC0FFD2FF11DEB5AFF4F00831B8B68
:10033000EC85FD85888981FF09C085818F7780667E
:1003400090E49483EC85FD858583E3CF858180628D
:10035000FBCFCF93DF93EC018889882359F0EC859C
:10036000FD85858185FD03C0848186FD03C0CE01A6
:1003700085DFF5CFDF91CF9108958FB7F894609125
:10038000210A90910B0A20918C3C30918D3C409138
:100390008E3C50918F3C8FBF8EEF861B91FF06C025
:1003A000843020F42F5F3F4F4F4F5F4F93E0899F82
:1003B000F0011124982F92959F70E91BF109869501
:1003C0008695E80FF11DA0E3B3E00E94AD0D6E0F1E
:1003D0007F1F811D911D0895CF92DF92EF92FF92B2
:1003E000CF93DF936B017C01C8DFEB01C114D10413
:1003F000E104F10441F412C081E0C81AD108E10817
:10040000F108C851DC4FB9DF6C1B7D0B683E7340AF
:1004100068F3C114D104E104F10471F7DF91CF91C5
:10042000FF90EF90DF90CF9008952FB7F8946091F0
:10043000883C7091893C80918A3C90918B3C2FBF85
:100440000895AF92BF92CF92DF92EF92FF920F93F7
:100450001F93CF93DF936C017B018B01040F151F5A
:10046000EB015E01AE18BF08C017D10759F06991C2
:10047000D601ED91FC910190F081E02DC601099526
:10048000892B79F7C501DF91CF911F910F91FF90D3
:10049000EF90DF90CF90BF90AF90089581E00895E6
:1004A000DC01ED91FC910088F189E02D23E030E042
:1004B000099442E050E067E670EA83E99CE3C1CF2B
:1004C000CF93DF93FC0101900020E9F73197AF0152
:1004D000481B590BBC0183E99CE3B3DFEC01E9DF66
:1004E0008C0F9D1FDF91CF910895CF93DF93FC0177
:1004F000448155816081718183E99CE3A2DFEC0135
:10050000D8DF8C0F9D1FDF91CF910895CF93DF939C
:10051000EC0188819981009711F00E948A0E18825F
:1005200019821C821D821A821B82DF91CF9108954D
:10053000FC01808191810C948A0E8631F0F490E068
:10054000FC01E15DFF4520812F3FB9F0FC01E75E32
:10055000FF45E081E295EE0FF0E0F460613071F468
:1005600021838D5F9F45DC018C918061E80FF11D37
:100570008081613029F08860808308952283F1CFE3
:10058000877FFACF62E08AE0D8DF62E08BE0D5DFD8
:10059000E0E1F8E0168281E08383858308958F92FD
:1005A0009F92AF92BF92EF92FF920F931F93CF93C0
:1005B000DF938C014A015B01E901DC0150968C91CB
:1005C000509780FF07C0ED91FC910288F389E02DE0
:1005D000C8010995C11101C0C3E0EC2EE894E2F80E
:1005E000FD2ECD2FD095D07CB5EB8B16B4EC9B06B1
:1005F000B4E0AB06B10428F0D260B694A794979407
:10060000879460E07DE281E391E0A50194010E947E
:10061000C60D2034310510F420E430E0F2FCD8603F
:100620008C2F8B72D7FD8068CD2FC87C83FF07C0CD
:10063000C83C29F4F80190899260908BC8ED80FD48
:10064000C160FFB6F894D8011C96ED91FC9116821A
:10065000E7822087318785FF3FC0CF7791E094877D
:100660009FEF95878F7D8583D683F80127858685C3
:1006700090910102222391F1916090930102820FE7
:100680009927991F880F991F880F991F8C010B5B61
:100690001F45C6FF25C0C3FD23C061E0D8018C9172
:1006A0004CDFC7FF07C0C4FD05C062E0D80111964A
:1006B0008C9143DFC0FF04C061E0F80183813DDF1E
:1006C000FFBEDF91CF911F910F91FF90EF90BF90F0
:1006D000AF909F908F9008951486C4CF9E7FCDCF0A
:1006E0002C2F2075F1F28B5B9F4562E0FC0180812D
:1006F000D7CF0F931F93CF93DF93EC01888199811C
:10070000009759F02A813B812617370730F081E0A6
:10071000DF91CF911F910F9108958B016F5F7F4FF4
:100720000E94130F009759F0888399830A831B83D3
:100730002C813D81232B59F7FC011082E8CF80E00A
:10074000E7CFEF92FF920F931F93CF93DF93611543
:10075000710541F480E0DF91CF911F910F91FF90DF
:10076000EF90089541155105A9F07B01EC010C8132
:100770001D81040F151FB801BCDF882359F32881A0
:1007800039818C819D81B701820F931F0E94D20F06
:100790000C831D8381E0DFCFCF93DF93EC01FB015E
:1007A00001900020E9F73197AF01461B570BC9DFD5
:1007B000811102C0CE01AADECE01DF91CF91089552
:1007C000CF93DF93EC01FB014481558160817181FE
:1007D000B8DF811102C0CE0199DECE01DF91CF9149
:1007E0000895EF92FF920F931F93CF93DF93EC0145
:1007F0007B018A01BA017DDF81110AC0CE0186DE4C
:10080000CE01DF91CF911F910F91FF90EF9008954E
:100810000C831D83B701888199810E94D20FF0CF8C
:10082000EF92FF920F931F93CF93DF93CDB7DEB775
:100830006297CDBFDEBF8C01CB01F801108211821F
:1008400012821382148215824AE09E012F5F3F4F6D
:100850007901B9010E94EC0CF70101900020E9F741
:100860003197AF014E195F09B701C801BADF62962F
:10087000CDBFDEBFDF91CF911F910F91FF90EF9021
:100880000895FC0110821182128213821482158253
:100890006115710549F0FB0101900020E9F73197DE
:1008A000AF01461B570B9DCF0895CF92DF92EF9279
:1008B000FF920F931F93CF93DF93CDB7DEB72C97A3
:1008C000CDBFDEBF2091903C21115AC07C016AE669
:1008D00070EACE010196D5DFB701CE01019670DF37
:1008E00065E573EA59DF01DECE01019621DE8E0156
:1008F000095F1F4F6FE670EAC801C3DFD12CC12C1E
:10090000F70184819581880F991FC816D90664F56F
:1009100019821A821B821C821D821E826F81788539
:100920006115710529F04B855C85CE01019659DF73
:100930006FE670EACE0101962FDF8017910751F024
:10094000FC01608171816115710559F04481558107
:10095000C80147DFCE010196EBDDFFEFCF1ADF0ABA
:10096000CFCFC801D3DDF6CFC801BFDD81E08093D2
:10097000903C60ED77E080E090E02EDDC801D8DDAE
:100980002C96CDBFDEBFDF91CF911F910F91FF90CD
:10099000EF90DF90CF9008952F932FB72F938F93E1
:1009A0009F93AF93BF936894CF93DF9320E0C48568
:1009B000D8E09489DF01A90FB21FAB5ABF4F8C91C9
:1009C00020E42C838A839F5F9F718D812389291363
:1009D00002C08F7D8D83948BDF91CF910EF06CCC14
:1009E000BF91AF919F918F912F912FBF2F91FF9129
:1009F000EF9118952F932FB72F938F939F93CF93AA
:100A0000DF93C485D8E08981988181FD0DC0C189BB
:100A100081E08C0F8F732289281731F0CE0FDF2FE2
:100A200020E0D21F9D8B818BDF91CF919F918F9181
:100A30002F912FBF2F91FF91EF911895FF938F93D7
:100A40008FB78F93F8E08081848187FFFCCF858109
:100A50008F7B806885838F918FBF8F91FF91EF91FE
:100A600018951F920F920FB60F9211242F933F9358
:100A70004F935F936F938F939F93AF93BF938091A7
:100A8000883C9091893CA0918A3CB0918B3C4091EC
:100A9000863C5091873C9A01205D3C4F283E63E0A4
:100AA000360728F0285E33400196A11DB11D209322
:100AB000863C3093873C8093883C9093893CA093FC
:100AC0008A3CB0938B3C80918C3C90918D3CA09162
:100AD0008E3CB0918F3C0196A11DB11D80938C3C42
:100AE00090938D3CA0938E3CB0938F3C82E080939A
:100AF0000B0ABF91AF919F918F916F915F914F9131
:100B00003F912F910F900FBE0F901F901895EF936C
:100B1000FF93E3E9FCE340CFEF93FF93E3E9FCE3CA
:100B200069CFEF93E0E08ACFABE0B0E0E9E9F5E030
:100B30001BC76C017B013A01FC011682178283817D
:100B400081FFFFC0CE0101964C01F601B380F70191
:100B5000B3FC0591B3FE01917F01002341F1053201
:100B600039F4B3FC0591B3FE01917F01053239F5EB
:100B7000B601802F90E053D753013501E6CF1068BE
:100B8000F701B3FC0591B3FE01917F0117FD0DC084
:100B9000002369F0602F70E083E890E012D7892B82
:100BA00079F7033251F00C3651F301110AC0F60106
:100BB000868197812B96EEE0F0C610E1E1CF10E040
:100BC000E5CF602F70E08CE790E0FBD6892B49F0F1
:100BD0005301F4E0AF0EB11CB6018FE390E01FD7D4
:100BE000CCCF033609F452C0033709F459C003359A
:100BF00009F455C0043619F0093609F070C05301E4
:100C000017FF62C0F4E0AF0EB11CF3016081718187
:100C1000828193811F7E97FF08C090958095709583
:100C200061957F4F8F4F9F4F10642AE030E0A40101
:100C300026D7082F081916FF04C0B6018DE290E0F0
:100C4000EED614FF13C0FE01E00FF11D808180334A
:100C500069F0B60180E390E0E2D612FF07C010729F
:100C6000812F90E0B601885A9F4FD9D6015010E0ED
:100C70000F5F1F4F080D191DF80182918F01B601FA
:100C800090E0CDD608151905B9F777CF530182E06A
:100C9000A80EB11CB601F30180819181A0CF116033
:100CA0005301F2E0AF0EB11CF30160807180F301DB
:100CB00010FD859110FF81913F01882309F45DCFDC
:100CC000B60190E0ACD6F3CFF2E0AF0EB11CF30169
:100CD00060817181072E000C880B990B9BCF003728
:100CE00009F140F4083501F10F3609F060CF28E032
:100CF00030E00CC0053739F0083709F058CF1462DE
:100D000020E130E003C01F7E2AE030E0530117FFEE
:100D10000FC0F4E0AF0EB11CF301608171818281DC
:100D2000938185CF1061EBCF146020E132E0EECFEC
:100D3000F2E0AF0EB11CF3016081718190E080E0C0
:100D400076CF8FEF9FEF36CFE3E9FCE31282138279
:100D500088EE93E0A0E0B0E084839583A683B78318
:100D600081E590EA8083918380E098E0848795878D
:100D7000168617860895CF93DF93CDB7DEB76497B5
:100D8000CDBFDEBF88ED93E084BF9093610081E525
:100D9000809302068DE08093050680E2809303062F
:100DA00081E0809300068093030A8EEF8093260AE9
:100DB0008093270A89E08093000A80910A0A826062
:100DC00080930A0A7894789440E052EC61E070E0F5
:100DD00083E99CE365DB68E873E180E090E0FCDA9E
:100DE00024DB6093403C7093413C8093423C909361
:100DF000433C1BDB6093643C7093653C8093663C92
:100E00009093673CBADA6093703C7093713C809326
:100E1000723C9093733C09DB6093783C7093793C0F
:100E200080937A3C90937B3C01E010E02224239451
:100E3000312C8EE7482E82EA582E9EEFD92E21E1E2
:100E4000622E712C8091853C811106C081E790EA69
:100E500037DB81E08093853C6AE770EACE0101963A
:100E600010DDCE01019621DDCE01019661DB80917E
:100E7000843C811139C1CC24C394D7DA6093443CBB
:100E80007093453C8093463C9093473C8090403C17
:100E90009090413CA090423CB090433C6819790945
:100EA0008A099B09643671058105910530F38091AB
:100EB0003F3C811150C080913E3C811147C08091E0
:100EC0003D3C811143C0C8010090003C02C0880F26
:100ED000991F0A94E2F7F894809301048093050423
:100EE0008093020420910804282331E009F430E0C3
:100EF00030933C3C80930104809306048093020469
:100F000090910804892391E009F490E090933B3C90
:100F1000789420913C3C8091003C9091013CFC01F4
:100F2000EE0FFF1FE55DF34C222309F406C120916B
:100F30003B3C211102C10083118301968830910549
:100F40000CF0FEC08093003C9093013C80913F3CAC
:100F5000882309F461C080913E3C811162C0809178
:100F60003D3C81115EC080912B3C90912C3C9C01BA
:100F7000225031092230310508F045C1C0922A3C87
:100F800010923C3C10923B3C20912A3C211125C000
:100F9000A80102C0440F551F8A95E2F7CA01F894D0
:100FA0004093210440932504409322042091280477
:100FB000242331E009F430E030933C3C8093210459
:100FC000809326048093220490912804892391E041
:100FD00009F490E090933B3C789420912B3C309125
:100FE0002C3C40913C3CC901880F991F865E934C74
:100FF000442309F40BC140913B3C411107C1DC0182
:101000000D931C932F5F3F4F293031050CF002C127
:1010100020932B3C30932C3C80913F3C882309F457
:10102000C6C180913E3C882309F44CC080913D3C70
:10103000811148C0C8010090183C02C0880F991F58
:101040000A94E2F7F89480934104809345048093D6
:10105000420420914804282331E009F430E0309321
:101060003C3C8093410480934604809342049091D9
:101070004804892391E009F490E090933B3C7894F4
:1010800020913C3C8091183C9091193CFC01EE0F62
:10109000FF1FE45FF34C222309F423C120913B3C62
:1010A00021111FC1008311830196863091050CF038
:1010B0001BC18093183C9093193C80913F3C88233E
:1010C00009F475C180913E3C882309F470C1809178
:1010D0003D3C882309F46BC187E092EAF1D981E0B5
:1010E0008093843C1092903C68E272EACE010196B3
:1010F000C8DBCE010196D9DBCE01019619DA8091C9
:10110000843C882309F479C18091833C811175C1A5
:1011100039DA90E080E00E947F0081115DC180910A
:10112000483C9091493C843191050CF051C10196A5
:101130008093483C9093493CEBCF10821182FDCEC6
:101140002092003C3092013CC0923F3C84E990EAFE
:10115000B7D9FDE28F2EFCE39F2EF12CE12CB12CB0
:10116000A12CD4018D919D914D01BFEFAB1ABB0A0B
:10117000892B41F5B501CE01019652DB6EEA70EA8A
:10118000CE0109967EDBBE016F5F7F4FCE010996CF
:1011900017DB6DEB70EA00DBA8D9CE010996C8D940
:1011A000CE010196C5D9F7E0AF16B104D1F627E01C
:1011B000E216F10459F489EC90EA82D98DED90EAB7
:1011C0007FD9C4CEEFEFEE1AFE0AEDCF83EF90EA9F
:1011D00077D9B701CE01019623DB60E171EACE0138
:1011E00009964FDBBE016F5F7F4FCE010996E8DAAB
:1011F00062E771EAD1DA79D9CE01099699D9CE019F
:10120000019696D9A3CE10922A3CBECEFC01108244
:101210001182F8CE10922B3C10922C3CC0923E3C96
:1012200089E191EA4DD97AE1872E7CE3972EB12CA2
:10123000A12CF12CE12CD4018D919D914D01892B94
:1012400079F5C70102970297C8F0B701CE01019660
:10125000E7DA63E371EACE01099613DBBE016F5F43
:101260007F4FCE010996ACDA62E471EA95DA3DD996
:10127000CE0109965DD9CE0101965AD9EFEFEE1A4B
:10128000FE0AF8E0EF16F104B1F626E0A216B1046A
:1012900059F480E591EA14D98FE691EA11D9BCCED0
:1012A000BFEFAB1ABB0AEACF85E891EA09D9B501CD
:1012B000CE010196B5DA60E171EACE010996E1DA74
:1012C000BE016F5F7F4FCE0109967ADA62E771EA5D
:1012D00063DA0BD9CE0109962BD9CE01019628D914
:1012E0009BCE10821182E0CE1092183C1092193CD5
:1012F000C0923D3C8CEA91EAE3D85CE0852E5CE349
:10130000952EF12CE12CB12CA12CD4018D919D9125
:101310004D01892B59F5B501CE01019681DA66ECB4
:1013200071EACE010996ADDABE016F5F7F4FCE0143
:10133000099646DA62E471EA2FDAD7D8CE01099627
:10134000F7D8CE010196F4D8EFEFAE1ABE0AF6E058
:10135000AF16B104D1F626E0E216F10459F485ED9A
:1013600091EAAED88DED90EAABD8A7CEBFEFEB1ADD
:10137000FB0AEACF8AEE91EAA3D8B701CE01019623
:101380004FDA60E171EACE0109967BDABE016F5F48
:101390007F4FCE01099614DA62E771EAFDD9A5D82C
:1013A000CE010996C5D8CE010196C2D886CE8091CD
:1013B000443C9091453CA091463CB091473C809381
:1013C000403C9093413CA093423CB093433C55CD6C
:1013D0001092483C1092493CD5D890E080E00E94A1
:1013E0007F00811174C210925F3C84E492EA68D855
:1013F00081E08093833C1092903C66E672EACE01D5
:1014000001963FDACE01019650DACE01019690D8CE
:101410008091833C882309F4C8C08091823C81116B
:10142000C4C080915F3C882309F4B1C08EE09DE385
:101430000E949E00882309F450C280910E3D982F8F
:1014400092959F702AE08F70929F800D11248336B1
:1014500059F090910F3D392F32953F709F70329F18
:10146000900D11249B33D9F49981292F22952F7047
:101470009F703AE0239F900D1124981748F488E05C
:10148000FE013196AEE0BDE301900D928A95E1F741
:10149000CE0101960E949E00882309F41EC281E0BD
:1014A00080935E3C64E670E080E090E00E94EC0196
:1014B00020910F3D9091103D8091113D322F32953A
:1014C0003F704AE0F42E2F703F9D200D11241F9293
:1014D0002F93292F22952F709F702F9D900D1124EF
:1014E0001F929F93982F92959F708F709F9D800D54
:1014F00011241F928F935F924F928AE49CE39F93F3
:101500008F9357D56AE47CE3CE010196BAD9CE0118
:1015100001960E947502CE0101960AD82091153DD0
:101520009091143D8091133D322F32953F702F7072
:101530003F9D200D11241F922F93292F22952F704C
:101540009F702F9D900D11241F929F93982F92951D
:101550009F708F709F9D800D11241F928F938DE837
:1015600092EA9F938F9383E59CE39F938F9321D57A
:1015700063E57CE3CE01019684D9CE0101960E94F9
:101580007502CE0101960E949802CDBFDEBF809108
:101590005E3C882309F4A8C18DEA92EA0E946002A9
:1015A00081E08093823C1092903C6CEB72EACE0119
:1015B000019667D9CE01019678D9CE0101960E9495
:1015C00098028091603C811107C062E08EE00E9429
:1015D0009D0281E08093603C8091823C882309F4E5
:1015E00073C08091813C81116FC09AE0E92EF12C8B
:1015F000CC24C3940E9415026093683C7093693CAC
:1016000080936A3C90936B3C8090643C9090653CE6
:10161000A090663CB090673C681979098A099B09DB
:10162000683E73408105910528F38091623C90915A
:10163000633C01968093623C9093633C2091480404
:1016400022FB222720F92093613CB701681B790B0C
:10165000CE010196E5D86091613C6C2570E0CE0129
:101660000996DED869ED72EACE010F960AD9BE015D
:10167000675F7F4FCE010F96A3D864EE72EA8CD8D5
:10168000BE016F5F7F4F9CD867EE72EA85D80E94DB
:101690007502CE010F960E949802CE0109960E9413
:1016A0009802CE0101960E9498028091623C90912E
:1016B000633C0A970CF41BC11092623C1092633C8D
:1016C000C092813C1092903C62EF72EACE0101968A
:1016D000D8D8CE010196E9D8CE0101960E94980291
:1016E00080916C3C811131C08FE093EA0E946002CE
:1016F00082E393EA0E94600282E493EA0E9460021D
:1017000087E593EA0E94600282E693EA0E94600203
:101710008FE693EA0E94600282E693EA0E946002EA
:101720008AE793EA0E94600282E693EA0E946002DE
:1017300085E893EA0E94600268E873E180E090E047
:101740000E94EC0181E080936C3C80916D3C8111A2
:1017500013C080E28093410480934604D092010438
:1017600090EF9093210480934604D09206049093C6
:10177000250481E080936D3C8091813C882309F4AD
:1017800061CB8091803C81115DCB80EFC82E0E949F
:10179000BD016093743C7093753C8093763C90934C
:1017A000773C8090703C9090713CA090723CB090DF
:1017B000733C681979098A099B096A3071058105AA
:1017C0009105C8F1D0920604C0922504F894809146
:1017D0006E3C90916F3C9301082E01C0220F0A9439
:1017E000EAF7207F209327048E5F934CDC01EC9175
:1017F000F0E0E850F046808181B9789480916E3CA9
:1018000090916F3C0196843091050CF081C08093DB
:101810006E3C90936F3C8091743C9091753CA0918C
:10182000763CB091773C8093703C9093713CA09350
:10183000723CB093733CE0907E3CF0907F3C809192
:101840007C3C90917D3CE816F906B9F0C7010297FF
:10185000029708F064C0E2E0FCE381918C5FDF0155
:1018600011978A3008F059C08C93BCE3E630FB072F
:10187000A1F7E0927C3CF0927D3C0E9415028090A2
:10188000783C9090793CA0907A3CB0907B3C9B0156
:10189000AC01281939094A095B0949015A0130EAA2
:1018A00083163FE09306A104B10408F470CF4FEF14
:1018B000E41AF40AE0927E3CF0927F3C6093783C1C
:1018C0007093793C80937A3C90937B3C60CF81E02D
:1018D00080935F3C85E592EA8ACD10925E3C8EE96A
:1018E00092EA0E94600253CE8EE992EA57CE80912E
:1018F000683C9091693CA0916A3CB0916B3C8093AC
:10190000643C9093653CA093663CB093673C72CE78
:1019100010926E3C10926F3C7ECF1C92A6CFE4E0FA
:10192000EE16F1040CF4A5CF80E280934604D09229
:10193000060480EF8093250410927E3C10927F3C39
:1019400010927C3C10927D3C83EA93EA0E946002F4
:101950008CEA90EA0E94600281E08093803C72CA27
:101960002F923F924F925F926F927F928F929F92AF
:10197000AF92BF92CF92DF92EF92FF920F931F939D
:10198000CF93DF93CDB7DEB7CA1BDB0BCDBFDEBF76
:1019900009942A88398848885F846E847D848C8481
:1019A0009B84AA84B984C884DF80EE80FD800C818A
:1019B0001B81AA81B981CE0FD11DCDBFDEBFED0144
:1019C0000895FC010590061621F00020D9F7C0010A
:1019D00008953197CF010895BB274A3031F49923F8
:1019E00022F4BDE2909581959F4F01C0BB27FB017A
:1019F0005527AA27880F991FAA1FA41710F0A41B08
:101A000083955051B9F7A05DAA3308F0A95DA19361
:101A1000009779F7B111B1931192CB018EC00F935A
:101A20001F93CF93DF93182F092FEB018B8181FD3B
:101A300009C01FEF0FEF812F902FDF91CF911F91E2
:101A40000F91089582FF14C02E813F818C819D816A
:101A5000281739073CF4E881F981CF010196888382
:101A6000998310838E819F8101968E839F83E3CF1C
:101A7000E885F985812F0995892BA1F3DACFFA0141
:101A8000AA27283051F1203181F1E8946F936E7FBD
:101A90006E5F7F4F8F4F9F4FAF4FB1E03ED0B4E0AE
:101AA0003CD0670F781F891F9A1FA11D680F791FEF
:101AB0008A1F911DA11D6A0F711D811D911DA11D00
:101AC00020D009F468943F912AE0269F1124301910
:101AD000305D3193DEF6CF010895462F4770405DAB
:101AE0004193B3E00FD0C9F7F6CF462F4F70405D5A
:101AF0004A3318F0495D31FD4052419302D0A9F7B5
:101B0000EACFB4E0A6959795879577956795BA95AE
:101B1000C9F700976105710508959B01AC010A2E74
:101B200006945795479537952795BA95C9F7620F4B
:101B3000731F841F951FA01D0895DC01FC01672FF2
:101B400071917723E1F7329704C07C916D93708394
:101B50006291AE17BF07C8F3089509D0A59F900DF5
:101B6000B49F900DA49F800D911D11240895A29FF4
:101B7000B001B39FC001A39F700D811D1124911D61
:101B8000B29F700D811D1124911D0895A1E21A2E9E
:101B9000AA1BBB1BFD010DC0AA1FBB1FEE1FFF1F11
:101BA000A217B307E407F50720F0A21BB30BE40B61
:101BB000F50B661F771F881F991F1A9469F76095A8
:101BC0007095809590959B01AC01BD01CF01089562
:101BD000EE0FFF1F0590F491E02D09940F931F93D2
:101BE000CF93DF938230910510F482E090E0E09192
:101BF000193DF0911A3D30E020E0B0E0A0E03097D0
:101C000099F42115310509F44AC0281B390B2430F9
:101C10003105D8F58A819B816115710589F1FB0138
:101C200082839383FE0111C040815181028113811F
:101C300048175907E0F04817590799F4109761F0D1
:101C400012960C93129713961C933296CF01DF9144
:101C5000CF911F910F9108950093193D10931A3D54
:101C6000F4CF2115310551F04217530738F0A9017F
:101C7000DB019A01BD01DF01F801C1CFEF01F9CF0E
:101C80008093193D90931A3DCDCFFE01E20FF31FD3
:101C9000819391932250310928833983D7CF2091A2
:101CA000173D3091183D232B41F42091083C309191
:101CB000093C2093173D3093183D2091063C30910C
:101CC000073C2115310541F42DB73EB740910A3C40
:101CD00050910B3C241B350BE091173DF091183DC2
:101CE000E217F307A0F42E1B3F0B2817390778F0F3
:101CF000AC014E5F5F4F2417350748F04E0F5F1F52
:101D00004093173D5093183D819391939FCFF0E0FE
:101D1000E0E09CCFCF93DF930097E9F0FC0132978E
:101D200012821382A091193DB0911A3DED0130E06D
:101D300020E01097A1F420813181820F931F209120
:101D4000173D3091183D2817390709F061C0E0931D
:101D5000173DF093183DDF91CF910895EA01CE171A
:101D6000DF07E8F54A815B819E0141155105B1F716
:101D7000E901EA83FB8349915991C40FD51FEC1700
:101D8000FD0761F4808191810296840F951FE9011E
:101D900088839983828193818A839B83F0E0E0E04A
:101DA00012968D919C9113970097B9F52D913C91C6
:101DB0001197CD010296820F931F2091173D30910C
:101DC000183D2817390739F6309751F51092193D0B
:101DD00010921A3DA093173DB093183DBCCFC2831B
:101DE000D38340815181840F951FC817D90761F4AF
:101DF0004E5F5F4F88819981480F591F40835183FF
:101E00008A819B81828393832115310509F0B0CFAC
:101E1000E093193DF0931A3D9ECFFD01DC01C0CF48
:101E200012821382D7CFB0E0A0E0E8E1FFE09ACDC4
:101E30008C01009741F4CB01D1DE8C01C801CDB7F4
:101E4000DEB7E0E1A8CDFC01E60FF71F9C012250B0
:101E50003109E217F30708F499C0D901CD91DC915B
:101E60001197C617D70790F0C530D10538F3CE01CA
:101E700004978617970710F3C61BD70B2297C193B9
:101E8000D1936D937C93CF0145DFD8CF5B01AC1A22
:101E9000BD0A4C018C0E9D1EA091193DB0911A3DBA
:101EA000512C412CF12CE12C109731F58091173DEC
:101EB0009091183D8815990509F05CC046165706A3
:101EC00008F058C08091063C9091073C009741F47F
:101ED0008DB79EB740910A3C50910B3C841B950BEB
:101EE000E817F90708F052C0E093173DF093183D4A
:101EF000F90160837183A2CF8D919C911197129605
:101F00006C90129713967C901397A815B90559F504
:101F10006C0142E0C40ED11CCA14DB0420F1AC01F8
:101F20004A195B09DA011296159780F06282738272
:101F300040835183D9016D937C93E114F10471F0D6
:101F4000D7011296ED93FC93139778CF22968C0FBE
:101F50009D1FF90180839183F301EFCFE093193D39
:101F6000F0931A3D6BCF4816590608F42C017D01F9
:101F7000D3019ACFCB0132DE7C01009739F0AE015C
:101F8000B80107D0C801C6DE870158CF10E000E0D5
:101F900055CFFB01DC0102C001900D924150504031
:101FA000D8F70895FB01DC0101900D920020E1F7C4
:101FB0000895AEE0B0E0EEEDFFE0E0CC0D891E89C3
:101FC00086E08C8309831A838FEF9FE78D839E833E
:101FD000AE01475E5F4F6F89788DCE0101960E94FA
:101FE00094052F813885020F131FF80110822E9659
:081FF000E4E0DDCCF894FFCF22
:101FF8007E0CB69ECCDAFA0EFEDE10040506070744
:10200800060504030201000001020304050102039E
:1020180000000000000101010101010101020202AA
:1020280002020200000000102040808040201008BA
:102038000402010102040810200204080109080A28
:102048000B12131400000000005D012102EA00A930
:10205800011B01F9000D015002CF0227014E020DAC
:102068000A000A5B485D002D0053455249414C3A2D
:102078003100434845434B494E4720415454494E4B
:1020880059277320494E5420494F7300504F5254DA
:102098002D4120494F20636865636B2066696E692E
:1020A800736865642100496E7465726E616C6C7941
:1020B8002C205041006E6F7420776F726B696E67C9
:1020C80000496E20504F5254204120285041312D54
:1020D8005041372900616C6C2070696E7320617201
:1020E8006520776F726B696E672100496E20504FCB
:1020F8005254204120285041312D504137292C205D
:102108006120746F74616C006F66206F6E6C79204B
:1021180000504F52542D4220494F20636865636B2D
:102128002066696E69736865642100496E7465721A
:102138006E616C6C792C20504200206E6F74207791
:102148006F726B696E672100496E20504F525420A0
:102158004220285042302D5042312026205042340F
:102168002D504237292C00416C6C2070696E732009
:1021780061726520776F726B696E672100496E2006
:10218800504F5254204220285042302D5042312086
:1021980026205042342D504237292C206120746F5C
:1021A80074616C00504F52542D4320494F2063688E
:1021B80065636B2066696E69736865642100496EA2
:1021C8007465726E616C6C792C20504300496E20E6
:1021D800504F5254204320285043302D5043352926
:1021E8002C00496E20504F52542043202850433031
:1021F8002D504335292C206120746F74616C004187
:102208005454494E59204469676974616C20494F98
:1022180020546573742066696E697368656421006B
:10222800434845434B494E47205254432773204166
:102238005641494C4142494C495459005254435F14
:10224800414444525F464F554E443A30005254433D
:102258005F414444525F464F554E443A310043482B
:1022680045434B494E4720525443277320522F571A
:102278002046554E4300253032643A253032643AC0
:102288002530326400253032642F253032642F32F5
:102298003025303264005254435F52454144414234
:1022A8004C453A30005254435F5245414441424CF8
:1022B800453A3100434845434B494E47204255541F
:1022C800544F4E20434F4E44205B50726573735DEC
:1022D8000053575F53544154453A2000205B002077
:1022E800736563206C6566745D00434845434B49DC
:1022F8004E4720444953504C4159277320434F4E71
:10230800444954494F4E00576174636820696620F8
:10231800796F7520736565207468652062656C6FD8
:1023280077207061747465726E00696E20746865D8
:10233800207365676D656E747300285374617274D9
:10234800696E6720696E203520736563293A00300D
:102358002C20312C20322C20330064656C617928C4
:1023680034303030293B00342C20352C20362C20BA
:102378003700382C20392C20302C20300046696E4C
:10238800616C6C7920646973706C61792077696C11
:102398006C205475726E204F4646000A44495350CB
:1023A8004C415920574F524B494E473F202877728E
:0B23B8006974652062656C6F77290076
:0C23C30001000001020300001B3D80002F
:00000001FF
