:100000003EC000006EC000006CC000006AC000006E
:1000100068C00000FFC40000ECC4000062C0000023
:1000200060C0000090C400005CC000005AC0000026
:1000300058C0000056C0000054C0000052C000006C
:1000400050C000004EC000004CC000004AC000007C
:1000500048C0000046C0000044C0000042C000008C
:1000600040C000003EC000003CC00000FFC30000D4
:10007000F8C3000000C4000034C0000021051124B2
:100080001FBECFEFCDBFDFE3DEBF80914000809386
:100090004000811105C098ED21E094BF20934100FC
:1000A0008CBB2CE3AAE0BCE301C01D92AE3DB207BD
:1000B000E1F71CE3A0E0BCE3EFE5F1E102C005904D
:1000C0000D92AA30B107D9F710E0CFE3D0E003C01A
:1000D0002197FE01F5D7CE33D107D1F7C9D40C94BF
:1000E00075088ECF9091150896FFFCCF8093180865
:1000F00082E080931408809115088295817091E0C8
:1001000089270895892BC9F08FEF9FEF8093563C84
:100110009093573C81E0846680931708809115087E
:10012000807CE1F38091150883FD09C0809115085A
:100130008295817091E08927089580E0ECCF80E07E
:100140000895CF93DF93EC0190E080E0DBDF811135
:1001500002C080E032C080E1C5DF8823D1F38FEF99
:100160009FEFD0DF8823A9F3FE019E01285F3F4F58
:1001700046E052E08091563C9091573C009729F020
:1001800001978093563C9093573C8091150887FFC8
:10019000FCCF809118086091563C7091573C672BBA
:1001A00079F05093140881932E173F0719F787E0D1
:1001B0008093140881E0CD2B61F2DF91CF910895F7
:1001C00040931408F0CFAF92BF92CF92DF92EF929C
:1001D000FF920F931F93CF93DF936C017B018B01F1
:1001E000040F151FEB015E01AE18BF08C017D10741
:1001F00059F06991D601ED91FC910190F081E02DCB
:10020000C6010995892B79F7C501DF91CF911F911F
:100210000F91FF90EF90DF90CF90BF90AF90089537
:10022000FC0153894489252F30E0842F90E0821B04
:10023000930B541710F04F96089501970895FC0101
:1002400091898289981761F0A289AE0FBF2FB11DE5
:1002500055968C9192899F5F9F73928B90E0089541
:100260008FEF9FEF0895FC0191898289981731F0F3
:100270008289E80FF11D858990E008958FEF9FEF47
:100280000895FC0191892289892F90E0805C9F4F1D
:10029000821B91098F7399270895CF93DF93EC0107
:1002A000E881F9810680F781E02D0995EC85FD85CF
:1002B000868116828581158280E484838A89898B70
:1002C000188ADF91CF910895DC010FB607FE04C0B4
:1002D000809111018823B1F01C96ED91FC911D973E
:1002E000848185FF0FC053969C91539754968C91AF
:1002F000981721F085818F7D85830895E8E5FCE3DB
:10030000E894C4C208950F931F93CF93DF93EC0139
:100310008889982F9160988B2B899C8929130AC012
:10032000EC85FD85948195FF05C081FD0DC080E4BD
:10033000848312C0062F1B891F5F1F718C89811354
:1003400015C0CE01C1DFFACF85818F77806490E43C
:100350009483EC85FD858583EC85FD85628381E052
:1003600090E0DF91CF911F910F910895EB89EC0FF1
:10037000FD2FF11DEB5AFF4F00831B8BEC85FD8594
:10038000888981FF09C085818F77806690E4948396
:10039000EC85FD858583E3CF85818062FBCFCF939C
:1003A000DF93EC018889882359F0EC85FD858581F0
:1003B00085FD03C0848186FD03C0CE0185DFF5CFB6
:1003C000DF91CF91089581E008958FB7F8946091FF
:1003D000210A90910B0A2091173C3091183C4091D2
:1003E000193C50911A3C8FBF8EEF861B91FF06C0BF
:1003F000843020F42F5F3F4F4F4F5F4F93E0899F32
:10040000F0011124982F92959F70E91BF1098695B0
:100410008695E80FF11DA0E3B3E048D66E0F7F1F6D
:10042000811D911D0895E0E2F4E081E0818382E086
:100430008183F89484818E7F848384818D7F8483FB
:1004400078940895E0E2F4E088E08183F894848170
:10045000877F848378940895F89480E2809346049B
:100460008EEF8093060480EF80932504789408959E
:100470000F931F93CF93DF93EC01A7DF60930C3CA6
:1004800070930D3C80930E3C90930F3C00911B3C6D
:1004900010911C3C20911D3C30911E3C601B710B47
:1004A000820B930B6A30710581059105D0F18EEFB7
:1004B0008093060480EF80932504F89480910A3C91
:1004C00090910B3C21E130E0082E01C0220F0A94EC
:1004D000EAF7207F20932704C80FD91FE881F0E0B6
:1004E000E251FF46808181B9789480910A3C9091D5
:1004F0000B3C019684309105CCF480930A3C909398
:100500000B3C80910C3C90910D3CA0910E3CB09125
:100510000F3C80931B3C90931C3CA0931D3CB093DC
:100520001E3CDF91CF911F910F91089510920A3CCC
:1005300010920B3CE6CFCF92DF92EF92FF92CF93D7
:10054000DF93CDB7DEB72897CDBFDEBF8FB7F89466
:10055000C090483CD090493CE0904A3CF0904B3CE5
:100560008FBFC092113CD092123CE092133CF092AB
:10057000143C80911F3C9091203CA091213CB09173
:10058000223CA7019601281B390B4A0B5B0BDA01B1
:10059000C901883E9340A105B10508F43BC0809194
:1005A000533C882309F47FC083ED9CE3CADD882394
:1005B00009F479C08091D43C282F22952F709AE0BD
:1005C0008F70299F800D11248B33C9F48A81282FC5
:1005D00022952F708F70299F800D1124811109C0E1
:1005E00088E0FE013196A3EDBCE301900D928A955F
:1005F000E1F7CE010196A5DD882309F454C081E01E
:100600008093103CC0921F3CD092203CE092213C51
:10061000F092223C8091533C882309F447C080919A
:10062000103C882309F442C08091D63C982F9295C3
:100630009F702AE08F70929F800D1124622FF4D456
:10064000392FF2D49093CD3C3093CE3C8091D53C61
:10065000982F92959F708F70929F800D1124E4D4F3
:10066000392FE2D49093CF3C3093D03C8091D43C4E
:10067000982F92959F708F70929F800D1124D4D4E3
:10068000392FD2D49093D13C3093D23C8DEC9CE363
:10069000EFDE2896CDBFDEBFDF91CF91FF90EF90C8
:1006A000DF90CF9008951092103CACCF80E09CE397
:1006B000EFCFDC01ED91FC910088F189E02D23E082
:1006C00030E009948631F0F490E0FC01EB5DFE46E9
:1006D00020812F3FB9F0FC01E15FFE46E081E29509
:1006E000EE0FF0E0F460613071F4218387509F4693
:1006F000DC018C918061E80FF11D8081613031F067
:1007000088608083089522832583F0CF877FF9CF87
:100710008F929F92AF92BF92EF92FF920F931F938F
:10072000CF93DF938C014A015B01E901DC01509614
:100730008C91509780FF07C0ED91FC910288F3895E
:10074000E02DC8010995C11101C0C3E0EC2EE89469
:10075000E2F8FD2ECD2FD095D07CB5EB8B16B4EC06
:100760009B06B4E0AB06B10428F0D260B694A7941F
:100770009794879460E07DE281E391E0A501940184
:1007800073D42034310510F420E430E0F2FCD8605A
:100790008C2F8B72D7FD8068CD2FC87C83FF07C05C
:1007A000C83C29F4F80190899260908BC8ED80FDD7
:1007B000C160FFB6F894D8011C96ED91FC911682A9
:1007C000E7822087318785FF3FC0CF7791E094870C
:1007D0009FEF95878F7D8583D683F8012785868552
:1007E00090910102222391F1916090930102820F76
:1007F0009927991F880F991F880F991F8C01055CF5
:100800001E46C6FF25C0C3FD23C061E0D8018C9100
:1008100059DFC7FF07C0C4FD05C062E0D8011196CB
:100820008C9150DFC0FF04C061E0F80183814ADF92
:10083000FFBEDF91CF911F910F91FF90EF90BF907E
:10084000AF909F908F9008951486C4CF9E7FCDCF98
:100850002C2F2075F1F2855C9E4662E0FC018081C0
:10086000D7CFEF93FF93E8E5FCE308C0EF93FF9346
:10087000E8E5FCE331C0EF93E0E052C02F932FB7DF
:100880002F938F939F93AF93BF936894CF93DF93EE
:1008900020E0C485D8E09489DF01A90FB21FAB5ACC
:1008A000BF4F8C9120E42C838A839F5F9F718D8141
:1008B0002389291302C08F7D8D83948BDF91CF9183
:1008C0000EF020CDBF91AF919F918F912F912FBFAF
:1008D0002F91FF91EF9118952F932FB72F938F930F
:1008E0009F93CF93DF93C485D8E08981988181FD60
:1008F0000DC0C18981E08C0F8F732289281731F0D8
:10090000CE0FDF2F20E0D21F9D8B818BDF91CF9107
:100910009F918F912F912FBF2F91FF91EF9118955C
:10092000FF938F938FB78F93F8E08081848187FF47
:10093000FCCF85818F7B806885838F918FBF8F915E
:10094000FF91EF9118951F920F920FB60F921124FD
:100950002F933F934F935F936F938F939F93AF9397
:10096000BF938091483C9091493CA0914A3CB09102
:100970004B3C4091153C5091163C9A01205D3C4FF8
:10098000283E63E0360728F0285E33400196A11D1B
:10099000B11D2093153C3093163C8093483C9093B6
:1009A000493CA0934A3CB0934B3C8091173C9091BA
:1009B000183CA091193CB0911A3C0196A11DB11DA3
:1009C0008093173C9093183CA093193CB0931A3C29
:1009D00082E080930B0ABF91AF919F918F916F91AD
:1009E0005F914F913F912F910F900FBE0F901F90ED
:1009F00018951F920F920FB60F9211248F9381E0DA
:100A0000809343018093543C8F910F900FBE0F90C1
:100A10001F9018951F920F920FB60F9211248F936B
:100A2000EF93FF93E0E4F4E08185818781E0809398
:100A3000233CFF91EF918F910F900FBE0F901F906D
:100A40001895E8E5FCE31282138288EE93E0A0E0BB
:100A5000B0E084839583A683B78387E491E980839C
:100A6000918380E098E0848795871686178608959D
:100A7000CF93DF9300D000D0CDB7DEB788ED93E001
:100A800084BF9093610081E5809302068DE080939E
:100A9000050650E2852E8092030681E080930006D1
:100AA0008093030A6EEF962E9092260A9092270A60
:100AB00019E01093000A80910A0A826080930A0A62
:100AC00078947894BFDCAFDC88E080935004809306
:100AD0005104809353048093540480924104809283
:100AE00046049092010480EF80932104B5DC1093BA
:100AF0005204809120088E7F8093200878942FB72D
:100B0000F8948091483C9091493CA0914A3CB09126
:100B10004B3C2FBF80931F3C9093203CA093213CE3
:100B2000B093223C52DC60931B3C70931C3C80933E
:100B30001D3C90931E3C2FB7F8948091483C9091B7
:100B4000493CA0914A3CB0914B3C2FBF80934F3C15
:100B50009093503CA093513CB093523C80915000F4
:100B6000897F8460809350008091500081608093E1
:100B7000500070E1572EE0EF7E2E44244394312C38
:100B8000FBEDEF2EFCE3FF2EADE3CA2EACE3DA2E35
:100B90008091553C9091233C913041F41092233C3C
:100BA0008091480482FF04C080E0F4CF8823E1F301
:100BB0001092553C40E052EC61E070E088E59CE327
:100BC00078DD11E062E08AE07DDD62E08BE07ADDD5
:100BD00010921608109313081093150890E080E007
:100BE00091DA882309F454C01093533C5092A0002A
:100BF00087E1809302068DE180930606109300063C
:100C0000109308068091080680FDFCCF60911006C5
:100C10007091110680E09CE213D28B01F8947092DF
:100C2000250440E2A42EA0924604789415DC40925C
:100C3000083C3092093C8091063C9091073C109210
:100C40004701209141012111FCCF80934A019093EB
:100C50004B018091420181608093420189EA809337
:100C600040016624639437E0232E8091543C811127
:100C70006DC10F31110508F085C10D311105E0F48A
:100C8000F8945092270420E2B22EB9B87894EDCFB0
:100C90001092533C97CF80914C3C862580934C3CDE
:100CA000882309F455C080E170922504F89480935C
:100CB000270440E249B978948091083C9091093C1E
:100CC000019709F043C02FB7F8948091483C909168
:100CD000493CA0914A3CB0914B3C2FBF20914F3CE6
:100CE0003091503C4091513C5091523C4C015D013F
:100CF000821A930AA40AB50AA50194012D37310579
:100D000041055105C8F280934F3C9093503CA0930D
:100D1000513CB093523C80914D3C90914E3C019699
:100D200080934D3C90934E3C05970CF4B4CFF894CF
:100D30007092250430E230934604789410924D3C32
:100D400010924E3C1092083C1092093CF4DB8DCF7F
:100D500080E0AACF10923F3C2091243C3091253C6A
:100D6000F901EA5DF34C80832F5F3F4F2093243CD1
:100D70003093253C88E59CE384DA1816190664F460
:100D800088E59CE35CDA8A3029F760923F3C109258
:100D9000243C1092253CEECF80913F3C882309F4FF
:100DA000CFC010923F3CE6E2FCE390E080E021916E
:100DB0002A3309F40196CE16DF06C9F780933D3C2D
:100DC00090933E3C06970CF450C06DE571E986E2C5
:100DD0009CE3F8D0DAD08093423C6DE571E990E075
:100DE00080E0F0D0D2D08093413C6DE571E990E095
:100DF00080E0E8D0CAD08093403C6DE571E990E096
:100E000080E0E0D0C2D08093433C6DE571E990E092
:100E100080E0D8D0BAD08093443C6DE571E990E091
:100E200080E0D0D0B2D08093453C6DE571E990E090
:100E300080E0C8D0AAD08093463C6DE571E990E08F
:100E400080E0C0D0A2D0FC0198EE892E93E0992ECC
:100E5000E89DC001E99D900DF89D900D11248093AF
:100E6000043C9093053C6092473C8091473C88232A
:100E700009F46CCF2091463C3091453C5091443C64
:100E80004091433CE091423CF091413C8091403C98
:100E90006AE0CAD08295807F980F9093D43C8F2FC0
:100EA000C3D08295807F980F9093D53C8E2FBCD075
:100EB0008295807F980F9093D63C852FB5D08295F0
:100EC000807F980F9093D83C842D01C0880F4A955D
:100ED000EAF78093D73C832FA7D08295807F980F25
:100EE0009093D93C80E3820F9FD08295807F980FAA
:100EF0009093DA3C90E080E005D98823F1F081E11D
:100F0000F1D88823D1F01092DB3C84ED882E8CE35D
:100F1000982EF40181914F01E5D8882329F0809122
:100F2000DB3C8F5F8093DB3CE814F90491F7809100
:100F3000DB3C873041F4809314081092473C06CF85
:100F40001092473C92CF20921408F7CF1092543C55
:100F50008091043C9091053C2091063C3091073CE7
:100F60008217930721F08093063C9093073C74DA34
:100F700088E59CE314DA88E59CE38FD963DA53DAD9
:100F8000889506CE10923F3CF5CEFC018827992724
:100F9000E89421912032E9F3293010F02E30C8F383
:100FA0002B3239F02D3231F4689403C035D0820FE2
:100FB000911D219120532A30C8F31EF490958195FC
:100FC0009F4F08954CED5CE300C0FA01A191B08100
:100FD000009719F41097E1F0CD01DC01CD010D90DF
:100FE000002011F4C00113C0FB012191222319F04C
:100FF0002015D9F7F3CFFB012191201519F41E928A
:10100000119606C02223C1F70D900020A1F7D00150
:10101000FA01A193B08308957AE0979F902D879F5E
:10102000802D910D11240895991B79E004C0991F1A
:10103000961708F0961B881F7A95C9F78095089532
:10104000AA1BBB1B51E107C0AA1FBB1FA617B707EE
:1010500010F0A61BB70B881F991F5A95A9F780950A
:101060009095BC01CD010895A1E21A2EAA1BBB1BCD
:10107000FD010DC0AA1FBB1FEE1FFF1FA217B30764
:10108000E407F50720F0A21BB30BE40BF50B661F7A
:10109000771F881F991F1A9469F76095709580953E
:1010A00090959B01AC01BD01CF0108950FD0A59F84
:1010B000900DB49F900DA49F800D911D1124089553
:1010C000EE0FFF1F0590F491E02D0994A29FB0014F
:1010D000B39FC001A39F700D811D1124911DB29F6C
:0E10E000700D811D1124911D0895F894FFCF0D
:1010EE007E0CB69ECCDAFA0EFEDE1004050607075D
:1010FE0006050403020100000102030405010203B8
:10110E0000000000000101010101010101020202C3
:10111E0002020200000000102040808040201008D3
:10112E000402010102040810200204080109080A41
:10113E000B12131400000000008301E3001001CF16
:10114E000141011F013301590388034D01E3013AA7
:01115E000090
:0A115F000A0A0A0A0410A00F01009A
:00000001FF
