:100000003EC0000061C000005FC000005DC0000095
:100010005BC00000E3C30000D0C3000055C0000077
:1000200053C0000074C300004FC000004DC000006A
:100030004BC0000049C0000047C0000045C00000A0
:1000400043C0000041C000003FC000003DC00000B0
:100050003BC0000039C0000037C0000035C00000C0
:1000600033C0000031C000002FC0000022C30000D8
:10007000FBC2000029C0000027C0000005041124B5
:100080001FBECFEFCDBFDFE3DEBF2CE3A4E0BCE3B8
:1000900001C01D92AC3FB207E1F71CE3A0E0BCE356
:1000A000EDE7FFE002C005900D92A430B107D9F74B
:1000B00010E0CFE3D0E003C02197FE0114D7CE3388
:1000C000D107D1F7CAD324C79BCF9091150896FFCB
:1000D000FCCF8093180882E0809314088091150863
:1000E0008295817091E089270895892BC9F08FEF5F
:1000F0009FEF80934E3C90934F3C81E084668093C9
:10010000170880911508807CE1F38091150883FD24
:1001100009C0809115088295817091E08927089522
:1001200080E0ECCF80E00895CF93DF93EC0190E086
:1001300080E0DBDF811102C080E032C080E1C5DFFA
:100140008823D1F38FEF9FEFD0DF8823A9F3FE013F
:100150009E01285F3F4F46E052E080914E3C9091D7
:100160004F3C009729F0019780934E3C90934F3C71
:100170008091150887FFFCCF8091180860914E3C54
:1001800070914F3C672B79F05093140881932E1790
:100190003F0719F787E08093140881E0CD2B61F2C7
:1001A000DF91CF91089540931408F0CFAF92BF92A2
:1001B000CF92DF92EF92FF920F931F93CF93DF9333
:1001C0006C017B018B01040F151FEB015E01AE1862
:1001D000BF08C017D10759F06991D601ED91FC9184
:1001E0000190F081E02DC6010995892B79F7C501B1
:1001F000DF91CF911F910F91FF90EF90DF90CF9003
:10020000BF90AF900895FC01508D418D252F30E0B7
:10021000842F90E0821B930B541710F0CF96089513
:1002200001970895FC0196898789981761F0A7893D
:10023000AE0FBF2FB11D5B968C9197899F5F9F7307
:10024000978B90E008958FEF9FEF0895FC019689BA
:100250008789981731F08789E80FF11D838D90E029
:1002600008958FEF9FEF0895FC0196892789892FC4
:1002700090E0805C9F4F821B91098F7399270895AE
:10028000CF93DF93EC01E881F9810680F781E02DBF
:100290000995EC85FD8586818F738683EC85FD85C8
:1002A00085818F7585838F898E8B1D8ADF91CF9194
:1002B0000895CF93DF93FC01908D818DC485D58502
:1002C000981306C08D818F7D8D83DF91CF91089526
:1002D000A18DAE0FBF2FB11DA55ABF4F9C91818D2F
:1002E0008F5F8F73818F80E48C83A485B585129690
:1002F0009C93908D818D9813E8CF0484F585E02D33
:1003000085818F7D8583E1CFDC011C96ED91FC9189
:100310000FB607FE07C0258125FF04C020911101FB
:10032000222319F0248125FDC4CF08950F931F9334
:10033000CF93DF93EC0181E08D8B988D898D98139D
:1003400011C0EC85FD85848185FF0CC080E4848329
:10035000EC85FD85628381E090E0DF91CF911F9174
:100360000F910895062F188D1F5F1F73898D8113BC
:1003700003C0CE01C9DFFACFE88DEC0FFD2FF11DD0
:10038000E55AFF4F0083188FEC85FD8585818062DB
:100390008583E1CFCF93DF93EC018D89882359F0DA
:1003A000EC85FD85858185FD03C0848186FD03C0C4
:1003B000CE01AADFF5CFDF91CF91089581E00895B6
:1003C0008FB7F8946091210A90910B0A20910C3C10
:1003D00030910D3C40910E3C50910F3C8FBF8EEF01
:1003E000861B91FF06C0843020F42F5F3F4F4F4F94
:1003F0005F4F93E0899FF0011124982F92959F7091
:10040000E91BF10986958695E80FF11DA0E3B3E09D
:1004100060D56E0F7F1F811D911D0895E0E2F4E00D
:1004200081E0818382E08183F89484818E7F84835C
:1004300084818D7F848378940895E0E2F4E088E0FD
:100440008183F8948481877F8483789408950F93BF
:100450001F93CF93DF93EC01B3DF6093063C70935F
:10046000073C8093083C9093093C0091103C10910C
:10047000113C2091123C3091133C601B710B820B9C
:10048000930B6A30710581059105D0F18EEF809351
:10049000060480EF80932504F8948091043C9091A9
:1004A000053C21E130E0082E01C0220F0A94EAF752
:1004B000207F20932704C80FD91FE881F0E0EC5E6D
:1004C000F047808181B978948091043C9091053CFB
:1004D000019684309105CCF48093043C9093053CC4
:1004E0008091063C9091073CA091083CB091093C5A
:1004F0008093103C9093113CA093123CB093133C1A
:10050000DF91CF911F910F9108951092043C1092AA
:10051000053CE6CFDC01ED91FC910088F189E02DEE
:1005200023E030E00994CF93DF93863198F490E094
:10053000FC01E55BF04720812F3F61F0FC01EB5CA3
:10054000F047E08130E2E39FF0011124FC5F61306D
:1005500021F42183DF91CF910895815E9047EC01D2
:10056000A881309781F0AF3F71F0CF014096A80F7E
:10057000B92FB11D9FB7F89422838C9188608C931A
:1005800025839FBFE7CFB0E0A0E0F4CF7F928F92AA
:100590009F92AF92BF92CF92DF92EF92FF920F9312
:1005A0001F93CF93DF93EC014A015B01722E8D897B
:1005B000882339F0E881F9810288F389E02DCE01A2
:1005C00009950C8910E0E12C81148EEE980682E0EA
:1005D000A806B10430F0B694A7949794879432E0BB
:1005E000E32E1D8AFFB6F894CC84DD8460E07DE2C2
:1005F00081E391E0A50194014AD4F6012087318777
:10060000EC85FD857782EC85FD858681897F806C10
:100610008E298683EC85FD85858180688583909110
:1006200001028B89809589239801220F331F020FC5
:10063000131FC00FD11F9889892B8093010262E09C
:100640008E8571DF61E08F856EDFFFBEDF91CF9118
:100650001F910F91FF90EF90DF90CF90BF90AF90E0
:100660009F908F907F9008951F920F920FB60F92D8
:1006700011242F933F934F935F936F937F938F93A7
:100680009F93AF93BF93EF93FF9380E59CE311DEBD
:10069000FF91EF91BF91AF919F918F917F916F915A
:1006A0005F914F913F912F910F900FBE0F901F9030
:1006B00018951F920F920FB60F9211242F938F93BC
:1006C0009F93EF93FF93E0915C3CF0915D3C8181BF
:1006D00081FD1BC090818091663C8F5F8F7320915C
:1006E000673C821741F0E091663CF0E0E05BF34C40
:1006F000938F8093663CFF91EF919F918F912F9103
:100700000F900FBE0F901F9018958081F4CF1F920D
:100710000F920FB60F9211242F933F934F935F9335
:100720006F938F939F93AF93BF938091153C90915C
:10073000163CA091173CB091183C40910A3C509156
:100740000B3C9A01205D3C4F283E63E0360728F0C1
:10075000285E33400196A11DB11D20930A3C3093C1
:100760000B3C8093153C9093163CA093173CB093A0
:10077000183C80910C3C90910D3CA0910E3CB091A6
:100780000F3C0196A11DB11D80930C3C90930D3C34
:10079000A0930E3CB0930F3C82E080930B0ABF9174
:1007A000AF919F918F916F915F914F913F912F9159
:1007B0000F900FBE0F901F9018951F920F920FB6BB
:1007C0000F9211248F9381E08093430180934C3CDE
:1007D0008F910F900FBE0F901F9018951F920F9240
:1007E0000FB60F9211248F93EF93FF93E0E4F4E0A0
:1007F0008185818781E08093143CFF91EF918F91F7
:100800000F900FBE0F901F901895E0E5FCE3128249
:10081000138288EE93E0A0E0B0E084839583A68302
:10082000B78385E69FE88083918380E098E08487A2
:10083000958788E0868789E08787108A83E1818BA6
:1008400082E1828B81E0838B148A158A168A178A4B
:10085000108E118E8CE1828F0895CF93DF93CDB7E8
:10086000DEB72897CDBFDEBF88ED93E084BF9093BD
:10087000610081E5809302068DE08093050600E229
:100880000093030681E0809300068093030A1EEF25
:100890001093260A1093270A39E0F32EF092000AEB
:1008A00080910A0A826080930A0A7894C6DDB6DDD8
:1008B00088E0809350048093510480935304809384
:1008C000540400934104009346041093010480EF04
:1008D000809321040093460410930604809325041A
:1008E000F0925204809120088E7F809320087894A3
:1008F0002FB7F8948091153C9091163CA091173C2D
:10090000B091183C2FBF80931A3C90931B3CA0934E
:100910001C3CB0931D3C54DD6093103C7093113C23
:100920008093123C9093133C80915000897F8460A7
:10093000809350008091500081608093500001E0CE
:1009400040E1942E50E2F52E2224239469EFC62E26
:100950006CE3D62E79E3A72E7CE3B72E80914D3C35
:100960009091143C913041F41092143C80914804D1
:1009700082FF04C080E0F4CF8823E1F310924D3C65
:1009800040E052EC61E070E080E59CE3C3DD62E0B2
:100990008AE0C9DD62E08BE0C6DD109216080093A4
:1009A00013080093150890E080E09FDBE82E882371
:1009B00009F454C000934B3C9092A00087E18093CF
:1009C00002068DE180930606009300060093080658
:1009D0008091080680FDFCCF609110067091110691
:1009E00080E09CE240D26C31710528F0F894F092DE
:1009F00046047894E12C10924701809141018111C5
:100A0000FCCF80EA9FE080934A0190934B01809154
:100A1000420181608093420189EA8093400190EF16
:100A2000392E1AE027E0822E80914C3C8111ACC116
:100A3000E110A0C110923B3C80E59CE315DC181648
:100A4000190604F580E59CE3EDDB8A3051F4009350
:100A50003B3C1092223C1092233CEECF10924B3C38
:100A600096CF10923B3C2091223C3091233CF901DF
:100A7000EC5DF34C80832F5F3F4F2093223C3093FB
:100A8000233CDACF80913B3C882309F467C1109264
:100A90003B3CE4E2FCE390E080E0AE16BF0629F0C8
:100AA00021912A33D1F70196F8CF8093393C909366
:100AB0003A3C069709F048C06BE77FE884E29CE384
:100AC00094D176D18093403C9093413C6BE77FE892
:100AD00090E080E08AD16CD180933E3C90933F3C83
:100AE0006BE77FE890E080E080D162D180933C3C6E
:100AF00090933D3C6BE77FE890E080E076D158D161
:100B00008093423C9093433C6BE77FE890E080E029
:100B10006CD14ED18093443C9093453C6BE77FE889
:100B200090E080E062D144D18093463C9093473C72
:100B30006BE77FE890E080E058D13AD18093483C61
:100B40009093493C00934A3C80914A3C882309F4A5
:100B500066C02091483C3091463C5091443C4091C5
:100B6000423CE091403CF0913E3C80913C3C612F06
:100B70006ED18295807F980F9093F23C8F2F67D132
:100B80008295807F980F9093F33C8E2F60D1829551
:100B9000807F980F9093F43C852F59D18295807F68
:100BA000980F9093F63C822D01C0880F4A95EAF782
:100BB0008093F53C832F4BD18295807F980F909343
:100BC000F73C80E3820F43D18295807F980F90930A
:100BD000F83C90E080E089DA8823F9F081E175DA69
:100BE0008823D9F01092F93C82EF682E8CE3782E9E
:100BF000F30181913F0169DA882329F08091F93C62
:100C00008F5F8093F93CC614D70491F78091F93C2B
:100C1000873009F0A6C08093140810924A3C8FB721
:100C2000F8944090153C5090163C6090173C7090A2
:100C3000183C8FBF40921E3C50921F3C6092203C5B
:100C40007092213C80911A3C90911B3CA0911C3CDD
:100C5000B0911D3CA3019201281B390B4A0B5B0B81
:100C6000DA01C901883E9340A105B10508F46AC0C4
:100C700080914B3C882309F477C081EF9CE354DAE0
:100C8000882309F471C08091F23C982F92959F704F
:100C90008F70919F800D11248B33C9F48A81982F16
:100CA00092959F708F70919F800D1124811109C0C2
:100CB00088E0FE013196A1EFBCE301900D928A9588
:100CC000E1F7CE01019630DA882309F44DC0009394
:100CD000193C8091F43C982F92959F708F70919F52
:100CE000800D1124612FB3D0292FB1D09093EB3C0C
:100CF0002093EC3C8091F33C982F92959F708F70DD
:100D0000919F800D1124A3D0292FA1D09093ED3C69
:100D10002093EE3C8091F23C982F92959F708F70BB
:100D2000919F800D112493D0292F91D09093EF3C67
:100D30002093F03C40921A3C50921B3C60921C3C29
:100D400070921D3C80914B3C882389F08091193C26
:100D5000882369F08BEE9CE37ADB66CE10924A3CE6
:100D6000F3CE8092140859CF1092193CE3CF80E063
:100D70009CE3F2CFF092460430922504F8949092CE
:100D80002704F9B8789450CE10924C3CF092460467
:100D90008EEF8093060480EF8093250480E59CE32A
:100DA000F9DA80E59CE36CDA48DB38DB8895D6CD50
:100DB000FC0188279927E89421912032E9F3293012
:100DC00010F02E30C8F32B3239F02D3231F4689404
:100DD00003C035D0820F911D219120532A30C8F3D2
:100DE0001EF4909581959F4F08954AEF5CE300C0F3
:100DF000FA01A191B081009719F41097E1F0CD01AB
:100E0000DC01CD010D90002011F4C00113C0FB01E5
:100E10002191222319F02015D9F7F3CFFB0121915D
:100E2000201519F41E92119606C02223C1F70D90C9
:100E30000020A1F7D001FA01A193B08308957AE0D0
:100E4000979F902D879F802D910D11240895991BB8
:100E500079E004C0991F961708F0961B881F7A95B1
:100E6000C9F780950895AA1BBB1B51E107C0AA1FB3
:100E7000BB1FA617B70710F0A61BB70B881F991F3B
:100E80005A95A9F780959095BC01CD010895A1E2EE
:100E90001A2EAA1BBB1BFD010DC0AA1FBB1FEE1FF4
:100EA000FF1FA217B307E407F50720F0A21BB30B3F
:100EB000E40BF50B661F771F881F991F1A9469F7BB
:100EC00060957095809590959B01AC01BD01CF0117
:100ED00008950FD0A59F900DB49F900DA49F800DF5
:100EE000911D11240895EE0FFF1F0590F491E02D40
:100EF0000994A29FB001B39FC001A39F700D811DF3
:100F00001124911DB29F700D811D1124911D089512
:040F1000F894FFCF83
:100F14007E0CB69ECCDAFA0EFEDE10040506070738
:100F24000605040302010000010203040501020393
:100F3400000000000001010101010101010202029F
:100F440002020200000000102040808040201008AF
:100F54000402010102040810200204080100000038
:100F6400009601D6000301CA013401120126018A48
:090F740002C6024001DE013A0050
:040F7D000A0A0A0A48
:00000001FF
