:100000003EC000006FC000006DC000006BC000006B
:1000100069C0000015C5000002C5000063C00000F3
:1000200061C0000034C400005DC000005BC000007F
:1000300059C0000057C0000055C0000053C0000068
:1000400051C000004FC000004DC000004BC0000078
:1000500049C0000047C0000045C0000043C0000088
:1000600041C000003FC000003DC000006BC4000064
:1000700064C400006CC4000035C0000032051124C7
:100080001FBECFEFCDBFDFE3DEBF80914000809386
:100090004000811105C098ED21E094BF20934100FC
:1000A0008CBB2CE3AAE0BCE301C01D92AE3DB207BD
:1000B000E1F71CE3A0E0BCE3E9E1F2E102C0059056
:1000C0000D92AA30B107D9F710E0CFE3D0E004C019
:1000D0002197FE010E94BD08CE33D107C9F7D9D4BC
:1000E0000C94D2088DCF9091150896FFFCCF809389
:1000F000180882E080931408809115088295817019
:1001000091E089270895892BC9F08FEF9FEF8093A5
:10011000563C9093573C81E0846680931708809109
:100120001508807CE1F38091150883FD09C080915A
:1001300015088295817091E08927089580E0ECCFC1
:1001400080E00895CF93DF93EC0190E080E0DBDF67
:10015000811102C080E032C080E1C5DF8823D1F385
:100160008FEF9FEFD0DF8823A9F3FE019E01285F68
:100170003F4F46E052E08091563C9091573C0097AB
:1001800029F001978093563C9093573C8091150835
:1001900087FFFCCF809118086091563C7091573CC6
:1001A000672B79F05093140881932E173F0719F7A6
:1001B00087E08093140881E0CD2B61F2DF91CF912D
:1001C000089540931408F0CF8FB7F8946091210AF6
:1001D00090910B0A2091523C3091533C4091543CF9
:1001E0005091553C8FBF8EEF861B91FF06C0843027
:1001F00020F42F5F3F4F4F4F5F4F93E0899FF001F7
:100200001124982F92959F70E91BF1098695869588
:10021000E80FF11DA0E3B3E0A6D76E0F7F1F811D8D
:10022000911D0895AF92BF92CF92DF92EF92FF920D
:100230000F931F93CF93DF936C017B018B01040F0E
:10024000151FEB015E01AE18BF08C017D10759F0AA
:100250006991D601ED91FC910190F081E02DC601EC
:100260000995892B79F7C501DF91CF911F910F91E6
:10027000FF90EF90DF90CF90BF90AF900895FC017A
:1002800053894489252F30E0842F90E0821B930B03
:10029000541710F04F96089501970895FC01918925
:1002A0008289981761F0A289AE0FBF2FB11D5596B4
:1002B0008C9192899F5F9F73928B90E008958FEF4E
:1002C0009FEF0895FC0191898289981731F0828906
:1002D000E80FF11D858990E008958FEF9FEF089555
:1002E000FC0191892289892F90E0805C9F4F821BBD
:1002F00091098F7399270895CF93DF93EC01E881DB
:10030000F9810680F781E02D0995EC85FD858681D0
:1003100016828581158280E484838A89898B188A74
:10032000DF91CF910895DC010FB607FE04C08091E4
:1003300011018823B1F01C96ED91FC911D978481E9
:1003400085FF0FC053969C91539754968C919817A4
:1003500021F085818F7D85830895E8E5FCE3E894AD
:1003600001C308950F931F93CF93DF93EC01888906
:10037000982F9160988B2B899C8929130AC0EC8552
:10038000FD85948195FF05C081FD0DC080E48483C7
:1003900012C0062F1B891F5F1F718C89811315C026
:1003A000CE01C1DFFACF85818F77806490E494839A
:1003B000EC85FD858583EC85FD85628381E090E099
:1003C000DF91CF911F910F910895EB89EC0FFD2FD5
:1003D000F11DEB5AFF4F00831B8BEC85FD8588894F
:1003E00081FF09C085818F77806690E49483EC85D6
:1003F000FD858583E3CF85818062FBCFCF93DF933B
:10040000EC018889882359F0EC85FD85858185FD7F
:1004100003C0848186FD03C0CE0185DFF5CFDF9167
:10042000CF91089581E00895E0E2F4E081E08183D6
:1004300082E08183F89484818E7F848384818D7FA0
:10044000848378940895E0E2F4E084E0818388E096
:100450008183F89484818B7F84838481877F8483E4
:1004600078940895F89480E2809346048EEF809308
:10047000060480EF80932504789408950F931F93CA
:10048000CF93DF93EC01A0DE60930C3C70930D3CA6
:1004900080930E3C90930F3C0091153C1091163CBC
:1004A0002091173C3091183C601B710B820B930B11
:1004B0006A30710581059105D0F18EEF80930604B5
:1004C00080EF80932504F89480910A3C90910B3C36
:1004D00021E130E0082E01C0220F0A94EAF7207FC4
:1004E00020932704C80FD91FE881F0E0E855FE46A5
:1004F000808181B9789480910A3C90910B3C01965F
:1005000084309105CCF480930A3C90930B3C80910D
:100510000C3C90910D3CA0910E3CB0910F3C80930F
:10052000153C9093163CA093173CB093183CDF9178
:10053000CF911F910F91089510920A3C10920B3C9D
:10054000E6CFCF92DF92EF92FF92CF93DF93CDB7BA
:10055000DEB72897CDBFDEBF8FB7F894C0904E3C72
:10056000D0904F3CE090503CF090513C8FBFC092F7
:10057000113CD092123CE092133CF092143C8091DA
:10058000193C90911A3CA0911B3CB0911C3CA701D6
:100590009601281B390B4A0B5B0BDA01C901883E17
:1005A0009340A105B10508F44CC08091493C8823D3
:1005B00009F490C083ED9CE3C5DD882309F48AC06B
:1005C0009091D33C892F82958F702AE09F70829FF3
:1005D000900D1124933681F08091D43C382F3295C0
:1005E0003F708F70329F800D11248B3329F0992337
:1005F00019F081508C33D0F08981282F22952F70EB
:100600008F704AE0249F800D1124891748F488E0F8
:10061000FE013196A3EDBCE301900D928A95E1F7BE
:10062000CE0101968FDD882309F454C081E08093C8
:10063000103CC092193CD0921A3CE0921B3CF092C4
:100640001C3C8091493C882309F447C08091103CB0
:10065000882309F442C08091D63C982F92959F70D0
:100660002AE08F70929F800D1124622F3AD5392F86
:1006700038D59093CD3C3093CE3C8091D53C982F8B
:1006800092959F708F70929F800D11242AD5392FDB
:1006900028D59093CF3C3093D03C8091D43C982F78
:1006A00092959F708F70929F800D11241AD5392FCB
:1006B00018D59093D13C3093D23C8DEC9CE3DEDE98
:1006C0002896CDBFDEBFDF91CF91FF90EF90DF90F6
:1006D000CF9008951092103CACCF80E09CE3EFCF18
:1006E000DC01ED91FC910088F189E02D23E030E000
:1006F00009948631F0F490E0FC01E951FE46208136
:100700002F3FB9F0FC01EF52FE46E081E295EE0F7B
:10071000F0E0F460613071F4218385549E46DC0181
:100720008C918061E80FF11D8081613029F0886033
:10073000808308952283F1CF877FFACF8F929F9293
:10074000AF92BF92EF92FF920F931F93CF93DF93DD
:100750008C014A015B01E901DC0150968C915097B4
:1007600080FF07C0ED91FC910288F389E02DC8015C
:100770000995C11101C0C3E0EC2EE894E2F8FD2E0A
:10078000CD2FD095D07CB5EB8B16B4EC9B06B4E0A6
:10079000AB06B10428F0D260B694A79497948794DE
:1007A00060E07DE281E391E0A5019401BAD42034B8
:1007B000310510F420E430E0F2FCD8608C2F8B720D
:1007C000D7FD8068CD2FC87C83FF07C0C83C29F4C3
:1007D000F80190899260908BC8ED80FDC160FFB6F2
:1007E000F894D8011C96ED91FC911682E78220873F
:1007F000318785FF3FC0CF7791E094879FEF958742
:100800008F7D8583D683F8012785868590910102A7
:10081000222391F1916090930102820F9927991FF1
:10082000880F991F880F991F8C010D541E46C6FF13
:1008300025C0C3FD23C061E0D8018C915ADFC7FFFA
:1008400007C0C4FD05C062E0D80111968C9151DF4C
:10085000C0FF04C061E0F80183814BDFFFBEDF9180
:10086000CF911F910F91FF90EF90BF90AF909F900D
:100870008F9008951486C4CF9E7FCDCF2C2F2075E6
:10088000F1F28D549E4662E0FC018081D7CF1F9229
:100890000F920FB60F9211242F933F934F935F93B4
:1008A0006F938F939F93AF93BF9380914E3C9091A2
:1008B0004F3CA091503CB091513C40914C3C5091E8
:1008C0004D3C9A01205D3C4F283E63E0360728F0FE
:1008D000285E33400196A11DB11D20934C3C3093FE
:1008E0004D3C80934E3C90934F3CA093503CB09332
:1008F000513C8091523C9091533CA091543CB0911A
:10090000553C0196A11DB11D8093523C9093533CE0
:10091000A093543CB093553C82E080930B0ABF9166
:10092000AF919F918F916F915F914F913F912F91D7
:100930000F900FBE0F901F901895EF93FF93E8E56F
:10094000FCE308C0EF93FF93E8E5FCE331C0EF93CD
:10095000E0E052C02F932FB72F938F939F93AF93C5
:10096000BF936894CF93DF9320E0C485D8E0948947
:10097000DF01A90FB21FAB5ABF4F8C9120E42C832B
:100980008A839F5F9F718D812389291302C08F7D88
:100990008D83948BDF91CF910EF0E3CCBF91AF911B
:1009A0009F918F912F912FBF2F91FF91EF911895CC
:1009B0002F932FB72F938F939F93CF93DF93C4855C
:1009C000D8E08981988181FD0DC0C18981E08C0FBB
:1009D0008F732289281731F0CE0FDF2F20E0D21F2E
:1009E0009D8B818BDF91CF919F918F912F912FBF05
:1009F0002F91FF91EF911895FF938F938FB78F935E
:100A0000F8E08081848187FFFCCF85818F7B8068BF
:100A100085838F918FBF8F91FF91EF9118951F92D2
:100A20000F920FB60F9211248F9381E080934301B0
:100A300080934A3C8F910F900FBE0F901F90189596
:100A40001F920F920FB60F9211248F938BB1809348
:100A5000490481E080931D3C8F910F900FBE0F9051
:100A60001F901895E8E5FCE31282138288EE93E06C
:100A7000A0E0B0E084839583A683B78381E092E908
:100A80008083918380E098E0848795871686178617
:100A90000895CF93DF93CDB7DEB72897CDBFDEBFE4
:100AA00088ED93E084BF9093610081E58093020616
:100AB0008DE08093050600E20093030681E08093B9
:100AC00000068093030A1EEF1093260A1093270A4C
:100AD00069E0F62EF092000A80910A0A8260809303
:100AE0000A0A78947894AFDC9FDC88E08093500405
:100AF00080935104809353048093540400934104E1
:100B0000009346041093010480EF80932104AADC33
:100B1000F0925204809100068E7F809300068091AF
:100B200001068E7F80930106809102068E7F80935E
:100B30000206809120088E7F8093200878942FB73A
:100B4000F89480914E3C90914F3CA091503CB091D4
:100B5000513C2FBF8093193C90931A3CA0931B3CAF
:100B6000B0931C3C31DB6093153C7093163C809332
:100B7000173C9093183C2FB7F89480914E3C90917D
:100B80004F3CA091503CB091513C2FBF8093453CCD
:100B90009093463CA093473CB093483C809101140D
:100BA0008093063C809102148093073C8091063C20
:100BB0009091073C019631F48CEE93E18093063CD2
:100BC0009093073C80915000897F8460809350000F
:100BD0008091500081608093500055245394612C83
:100BE0003CE2732E40EF342E50E2452E2224239413
:100BF00080914B3C90911D3C913041F410921D3CF2
:100C00008091480482FF04C080E0F4CF8823E1F3A0
:100C100010924B3C40E052EC61E070E088E59CE3D0
:100C20005FDD62E08AE065DD62E08BE062DD10920C
:100C30001608509213085092150890E080E063DA8D
:100C4000882309F4AFC031E03093493C40E1409340
:100C5000A00087E1809302068DE180930606509202
:100C60000006509208068091080680FDFCCF609136
:100C7000100670911106C30140D28B01F894309296
:100C80002504409246047894EDDB81E090E0809367
:100C9000083C9093093C8091063C9091073C209140
:100CA000043C3091053C8217930721F08093043C6B
:100CB0009093053C8091043C9091053C1092470133
:100CC000209141012111FCCF80934A0190934B0167
:100CD0008091420181608093420189EA80934001C2
:100CE000C8014D978F83988727E3A22E2CE3B22E5D
:100CF00080914A3C811199C10D31110530F4F8946D
:100D000090E19093270449B87894EF81F885329761
:100D100008F05DC08091083C9091093C019709F072
:100D20003FC02FB7F89480914E3C90914F3CA091DA
:100D3000503CB091513C2FBFC090453CD090463CB8
:100D4000E090473CF090483C9C01AD012C193D09D6
:100D50004E095F092D37310541055105D8F28093C1
:100D6000453C9093463CA093473CB093483C8091CF
:100D7000433C9091443C01968093433C9093443C87
:100D800005979CF0F894309225044092460478949C
:100D90001092433C1092443C1092083C1092093C43
:100DA000D0DBA6CF1092493C3CCF8091423C8525B8
:100DB0008093423C882349F080E130922504F894E6
:100DC0008093270449B87894A5CF80E0F6CF0F31FF
:100DD000110508F48DCF1092393C88E59CE380DA48
:100DE00018161906ECF488E59CE358DA8A3039F4D1
:100DF0002092393C10921E3C10921F3CEECF109274
:100E0000393C20911E3C30911F3CF901E05EF34CCF
:100E100080832F5F3F4F20931E3C30931F3CDDCFDC
:100E20008091393C882309F4FBC01092393CE0E200
:100E3000FCE390E080E021912A3309F40196AE169C
:100E4000BF06C9F78093373C9093383C06970CF463
:100E500077C067E172E980E29CE311D1F3D080931F
:100E60003C3C67E172E990E080E009D1EBD08093EF
:100E70003B3C67E172E990E080E001D1E3D08093F0
:100E80003A3C67E172E990E080E0F9D0DBD08093F2
:100E90003D3C67E172E990E080E0F1D0D3D08093EF
:100EA0003E3C67E172E990E080E0E9D0CBD08093EE
:100EB0003F3C67E172E990E080E0E1D0C3D08093ED
:100EC000403C67E172E990E080E0D9D0BBD028EEE9
:100ED00033E0829FA001839F500D929F500D1124FB
:100EE00049835A83842F90910114941779F0A1E0DB
:100EF000B4E1E0E0F0E10FB622812370E9F7F89465
:100F00008C938DE984BF83E080830FBE9A818091AA
:100F10000214981779F0A2E0B4E1E0E0F0E10FB636
:100F200022812370E9F7F8949C939DE994BF93E0A4
:100F300090830FBE4093063C5093073C2092413C67
:100F40008091413C882309F42BCF3091403C409163
:100F50003F3CE0913E3C50913D3CF0913C3CA091A7
:100F60003B3C80913A3C2AE0622FBBD08295807F47
:100F7000980F9093D43C8A2FB4D08295807F980F9D
:100F80009093D53C8F2FADD08295807F980F909312
:100F9000D63C8E2FA6D08295807F980F9093D83C18
:100FA00081E001C0880F5A95EAF78093D73C842FDF
:100FB00098D08295807F980F9093D93C80E3830FDF
:100FC00090D08295807F980F9093DA3C90E080E0FB
:100FD0009AD8882311F181E186D88823F1F0109204
:100FE000DB3C84EDE82E8CE3F82E9BED892E9CE310
:100FF000992EF70181917F0176D8882329F080917D
:10100000DB3C8F5F8093DB3C8E149F0491F78091D3
:10101000DB3C873041F4809314081092413CC0CEF1
:101020001092413C8DCF87E0F6CF10924A3C1ADAFD
:1010300088E59CE3E3D988E59CE35ED904DAF4D93A
:101040008895D6CDFC0188279927E89421912032F4
:10105000E9F3293010F02E30C8F32B3239F02D325D
:1010600031F4689403C035D0820F911D2191205333
:101070002A30C8F31EF4909581959F4F08954CED4A
:101080005CE300C0FA01A191B081009719F41097B8
:10109000E1F0CD01DC01CD010D90002011F4C00183
:1010A00013C0FB012191222319F02015D9F7F3CFAA
:1010B000FB012191201519F41E92119606C02223DE
:1010C000C1F70D900020A1F7D001FA01A193B083E0
:1010D00008957AE0979F902D879F802D910D112480
:1010E0000895991B79E004C0991F961708F0961B84
:1010F000881F7A95C9F780950895AA1BBB1B51E1FB
:1011000007C0AA1FBB1FA617B70710F0A61BB70B77
:10111000881F991F5A95A9F780959095BC01CD011C
:101120000895A1E21A2EAA1BBB1BFD010DC0AA1F28
:10113000BB1FEE1FFF1FA217B307E407F50720F040
:10114000A21BB30BE40BF50B661F771F881F991FBB
:101150001A9469F760957095809590959B01AC0104
:10116000BD01CF0108950FD0A59F900DB49F900DA4
:10117000A49F800D911D11240895EE0FFF1F05906F
:10118000F491E02D0994A29FB001B39FC001A39FE9
:10119000700D811D1124911DB29F700D811D1124B0
:0811A000911D0895F894FFCFA2
:1011A8007E0CB69ECCDAFA0EFEDE1009080A0B1287
:1011B80013140004050607070605040302010000CE
:1011C80001020304050102030000000000010101FF
:1011D80001010101010202020202020000000010E6
:1011E80020408080402010080402010102040810F9
:1011F800200204080100000000B20112013F01FEB4
:101208000170014E01620170039E037C0112023AD3
:0112180000D5
:0A1219000A0A0A0A8813EC13010008
:00000001FF
