:100000004AC000007BC0000079C0000077C000003B
:1000100075C0000022C500000FC500006FC00000C1
:100020006DC0000041C4000069C0000067C000004E
:1000300065C0000063C0000061C000005FC0000038
:100040005DC000005BC0000059C0000057C0000048
:1000500055C0000053C0000051C000004FC0000058
:100060004DC000004BC0000049C0000078C4000033
:1000700071C4000079C4000041C0000045464765D6
:10008000666700202B2D2E30313233343536373829
:10009000396800004F0611241FBECFEFCDBFDFE34C
:1000A000DEBF8091400080934000811105C098ED33
:1000B00021E094BF209341008CBB2CE3AAE0BCE379
:1000C00001C01D92AE3DB207E1F71CE3A0E0BCE326
:1000D000E9EDF5E102C005900D92AA30B107D9F71C
:1000E00010E0CBE4D0E004C02197FE010E949D0AFD
:1000F000CA34D107C9F7EAD50C94B20A81CF9091DE
:10010000150896FFFCCF8093180882E080931408AE
:10011000809115088295817091E089270895892B37
:10012000C9F08FEF9FEF8093563C9093573C81E04E
:1001300084668093170880911508807CE1F3809194
:10014000150883FD09C0809115088295817091E0A2
:100150008927089580E0ECCF80E00895CF93DF9366
:10016000EC0190E080E0DBDF811102C080E032C072
:1001700080E1C5DF8823D1F38FEF9FEFD0DF8823A5
:10018000A9F3FE019E01285F3F4F46E052E08091B7
:10019000563C9091573C009729F001978093563C2C
:1001A0009093573C8091150887FFFCCF80911808E9
:1001B0006091563C7091573C672B79F0509314082E
:1001C00081932E173F0719F787E08093140881E089
:1001D000CD2B61F2DF91CF91089540931408F0CFB9
:1001E0008FB7F8946091210A90910B0A2091523CAC
:1001F0003091533C4091543C5091553C8FBF8EEF11
:10020000861B91FF06C0843020F42F5F3F4F4F4F75
:100210005F4F93E0899FF0011124982F92959F7072
:10022000E91BF10986958695E80FF11DA0E3B3E07F
:100230000E94930A6E0F7F1F811D911D0895AF923A
:10024000BF92CF92DF92EF92FF920F931F93CF93C3
:10025000DF936C017B018B01040F151FEB015E0125
:10026000AE18BF08C017D10759F06991D601ED91BA
:10027000FC910190F081E02DC6010995892B79F759
:10028000C501DF91CF911F910F91FF90EF90DF900B
:10029000CF90BF90AF900895FC0153894489252FDA
:1002A00030E0842F90E0821B930B541710F04F9690
:1002B000089501970895FC0191898289981761F04A
:1002C000A289AE0FBF2FB11D55968C9192899F5F69
:1002D0009F73928B90E008958FEF9FEF0895FC013C
:1002E00091898289981731F08289E80FF11D8589FB
:1002F00090E008958FEF9FEF0895FC019189228986
:10030000892F90E0805C9F4F821B91098F73992702
:100310000895CF93DF93EC01E881F9810680F7819E
:10032000E02D0995EC85FD858681168285811582F3
:1003300080E484838A89898B188ADF91CF9108951C
:10034000DC010FB607FE04C0809111018823B1F0D3
:100350001C96ED91FC911D97848185FF0FC05396EB
:100360009C91539754968C91981721F085818F7D9D
:1003700085830895E8E5FCE3E89401C308950F93AD
:100380001F93CF93DF93EC018889982F9160988B0E
:100390002B899C8929130AC0EC85FD85948195FFE2
:1003A00005C081FD0DC080E4848312C0062F1B8927
:1003B0001F5F1F718C89811315C0CE01C1DFFACF79
:1003C00085818F77806490E49483EC85FD858583B7
:1003D000EC85FD85628381E090E0DF91CF911F91F4
:1003E0000F910895EB89EC0FFD2FF11DEB5AFF4F94
:1003F00000831B8BEC85FD85888981FF09C0858181
:100400008F77806690E49483EC85FD858583E3CFC8
:1004100085818062FBCFCF93DF93EC0188898823AD
:1004200059F0EC85FD85858185FD03C0848186FDBD
:1004300003C0CE0185DFF5CFDF91CF91089581E034
:100440000895E0E2F4E081E0818382E08183F89422
:1004500084818E7F848384818D7F848378940895C2
:10046000E0E2F4E084E0818388E08183F894848191
:100470008B7F84838481877F848378940895F89424
:1004800080E2809346048EEF8093060480EF809391
:100490002504789408950F931F93CF93DF93EC0175
:1004A0009FDE60930C3C70930D3C80930E3C9093C8
:1004B0000F3C0091153C1091163C2091173C309157
:1004C000183C601B710B820B930B6A307105810520
:1004D0009105D0F18EEF8093060480EF8093250480
:1004E000F89480910A3C90910B3C21E130E0082E79
:1004F00001C0220F0A94EAF7207F20932704C80F37
:10050000D91FE881F0E0E859FA46808181B97894F2
:1005100080910A3C90910B3C019684309105CCF47B
:1005200080930A3C90930B3C80910C3C90910D3C45
:10053000A0910E3CB0910F3C8093153C9093163CDB
:10054000A093173CB093183CDF91CF911F910F916E
:10055000089510920A3C10920B3CE6CFCF92DF92A6
:10056000EF92FF92CF93DF93CDB7DEB72897CDBF41
:10057000DEBF8FB7F894C0904E3CD0904F3CE090D7
:10058000503CF090513C8FBFC092113CD092123C35
:10059000E092133CF092143C8091193C90911A3CEB
:1005A000A0911B3CB0911C3CA7019601281B390B64
:1005B0004A0B5B0BDA01C901883E9340A105B105E6
:1005C00008F44CC08091493C882309F490C083ED25
:1005D0009CE3C4DD882309F48AC09091D33C892F21
:1005E00082958F702AE09F70829F900D1124933620
:1005F00081F08091D43C382F32953F708F70329FBC
:10060000800D11248B3329F0992319F081508C33FC
:10061000D0F08981282F22952F708F704AE0249F77
:10062000800D1124891748F488E0FE013196A3ED6E
:10063000BCE301900D928A95E1F7CE0101968EDD23
:10064000882309F454C081E08093103CC092193C87
:10065000D0921A3CE0921B3CF0921C3C8091493CA9
:10066000882309F447C08091103C882309F442C0D4
:100670008091D63C982F92959F702AE08F70929F20
:10068000800D1124622F0DD7392F0BD79093CD3CBD
:100690003093CE3C8091D53C982F92959F708F706F
:1006A000929F800D1124FDD6392FFBD69093CF3C1D
:1006B0003093D03C8091D43C982F92959F708F704E
:1006C000929F800D1124EDD6392FEBD69093D13C1B
:1006D0003093D23C8DEC9CE3DEDE2896CDBFDEBFAE
:1006E000DF91CF91FF90EF90DF90CF90089510921F
:1006F000103CACCF80E09CE3EFCFDC01ED91FC91AE
:100700000088F189E02D23E030E009948631F0F48F
:1007100090E0FC01E955FA4620812F3FB9F0FC0139
:10072000EF56FA46E081E295EE0FF0E0F4606130BA
:1007300071F4218385589A46DC018C918061E80F21
:10074000F11D8081613029F08860808308952283C3
:10075000F1CF877FFACF8F929F92AF92BF92EF92A5
:10076000FF920F931F93CF93DF938C014A015B019C
:10077000E901DC0150968C91509780FF07C0ED9104
:10078000FC910288F389E02DC8010995C11101C0CF
:10079000C3E0EC2EE894E2F8FD2ECD2FD095D07C6E
:1007A000B5EB8B16B4EC9B06B4E0AB06B10428F0B5
:1007B000D260B694A7949794879460E07DE281E339
:1007C00091E0A50194018DD62034310510F420E488
:1007D00030E0F2FCD8608C2F8B72D7FD8068CD2F73
:1007E000C87C83FF07C0C83C29F4F8019089926057
:1007F000908BC8ED80FDC160FFB6F894D8011C96BF
:10080000ED91FC911682E7822087318785FF3FC0FA
:10081000CF7791E094879FEF95878F7D8583D683EF
:10082000F8012785868590910102222391F191603C
:1008300090930102820F9927991F880F991F880FA3
:10084000991F8C010D581A46C6FF25C0C3FD23C051
:1008500061E0D8018C915ADFC7FF07C0C4FD05C015
:1008600062E0D80111968C9151DFC0FF04C061E0B5
:10087000F80183814BDFFFBEDF91CF911F910F9174
:10088000FF90EF90BF90AF909F908F900895148647
:10089000C4CF9E7FCDCF2C2F2075F1F28D589A4674
:1008A00062E0FC018081D7CF1F920F920FB60F92AA
:1008B00011242F933F934F935F936F938F939F9345
:1008C000AF93BF9380914E3C90914F3CA091503C90
:1008D000B091513C40914C3C50914D3C9A01205D6F
:1008E0003C4F283E63E0360728F0285E33400196EF
:1008F000A11DB11D20934C3C30934D3C80934E3C48
:1009000090934F3CA093503CB093513C8091523C0B
:100910009091533CA091543CB091553C0196A11D3F
:10092000B11D8093523C9093533CA093543CB093A0
:10093000553C82E080930B0ABF91AF919F918F91BC
:100940006F915F914F913F912F910F900FBE0F903C
:100950001F901895EF93FF93E8E5FCE308C0EF9331
:10096000FF93E8E5FCE331C0EF93E0E052C02F9342
:100970002FB72F938F939F93AF93BF936894CF9389
:10098000DF9320E0C485D8E09489DF01A90FB21F6E
:10099000AB5ABF4F8C9120E42C838A839F5F9F7159
:1009A0008D812389291302C08F7D8D83948BDF91E4
:1009B000CF910EF0E3CCBF91AF919F918F912F918A
:1009C0002FBF2F91FF91EF9118952F932FB72F9352
:1009D0008F939F93CF93DF93C485D8E089819881CB
:1009E00081FD0DC0C18981E08C0F8F73228928178A
:1009F00031F0CE0FDF2F20E0D21F9D8B818BDF9156
:100A0000CF919F918F912F912FBF2F91FF91EF91B8
:100A10001895FF938F938FB78F93F8E0808184812F
:100A200087FFFCCF85818F7B806885838F918FBF07
:100A30008F91FF91EF9118951F920F920FB60F9221
:100A400011248F9381E08093430180934A3C8F91DE
:100A50000F900FBE0F901F9018951F920F920FB618
:100A60000F9211248F938BB18093490481E080937E
:100A70001D3C8F910F900FBE0F901F901895ABE00B
:100A8000B0E0E4E4F5E0F8C36C017B013A01FC015D
:100A900016821782838181FFFFC0CE0101964C012F
:100AA000F601B380F701B3FC0591B3FE01917F011C
:100AB000002341F1053239F4B3FC0591B3FE0191F5
:100AC0007F01053239F5B601802F90E05CD45301E7
:100AD0003501E6CF1068F701B3FC0591B3FE019133
:100AE0007F0117FD0DC0002369F0602F70E083E8DF
:100AF00090E00CD4892B79F7033251F00C3651F386
:100B000001110AC0F601868197812B96EEE0CDC3D4
:100B100010E1E1CF10E0E5CF602F70E08CE790E0CE
:100B2000F5D3892B49F05301F4E0AF0EB11CB601A7
:100B30008FE390E028D4CCCF033609F452C00337BA
:100B400009F459C0033509F455C0043619F00936C3
:100B500009F070C0530117FF62C0F4E0AF0EB11C82
:100B6000F30160817181828193811F7E97FF08C0AC
:100B700090958095709561957F4F8F4F9F4F106432
:100B80002AE030E0A4012FD4082F081916FF04C072
:100B9000B6018DE290E0F7D314FF13C0FE01E00F21
:100BA000F11D8081803369F0B60180E390E0EBD3E2
:100BB00012FF07C01072812F90E0B601885A9F4F34
:100BC000E2D3015010E00F5F1F4F080D191DF8010F
:100BD00082918F01B60190E0D6D308151905B9F7B7
:100BE00077CF530182E0A80EB11CB601F3018081DA
:100BF0009181A0CF11605301F2E0AF0EB11CF3015F
:100C000060807180F30110FD859110FF81913F019B
:100C1000882309F45DCFB60190E0B5D3F3CFF2E0BD
:100C2000AF0EB11CF30160817181072E000C880B9F
:100C3000990B9BCF003709F140F4083501F10F36CD
:100C400009F060CF28E030E00CC0053739F00837F4
:100C500009F058CF146220E130E003C01F7E2AE083
:100C600030E0530117FF0FC0F4E0AF0EB11CF301E9
:100C7000608171818281938185CF1061EBCF146097
:100C800020E132E0EECFF2E0AF0EB11CF301608163
:100C9000718190E080E076CF8FEF9FEF36CFE8E56F
:100CA000FCE31282138288EE93E0A0E0B0E084833C
:100CB0009583A683B78381EC95E98083918380E057
:100CC00098E084879587168617860895CF93DF93DB
:100CD000CDB7DEB72897CDBFDEBF88ED93E084BFE8
:100CE0009093610081E5809302066DE0F62EF0920C
:100CF000050600E20093030681E0809300068093DE
:100D0000030A1EEF1093260A1093270A89E08093A6
:100D1000000A80910A0A826080930A0A7894789483
:100D20009FDB8FDB88E08093500480935104809395
:100D30005304809354040093410400934604109399
:100D4000010480EF809321049ADBF0925204809199
:100D500000068E7F80930006809120088E7F80930E
:100D6000200878942FB7F89480914E3C90914F3C96
:100D7000A091503CB091513C2FBF8093193C90936F
:100D80001A3CA0931B3CB0931C3C2ADA6093153CA0
:100D90007093163C8093173C9093183C2FB7F894AF
:100DA00080914E3C90914F3CA091503CB091513C71
:100DB0002FBF8093453C9093463CA093473CB09313
:100DC000483C809101148093063C809102148093EA
:100DD000073C8091063C9091073C019631F48CEEE3
:100DE00093E18093063C9093073C80915000897F6B
:100DF0008460809350008091500081608093500007
:100E000055245394612C3CE2732E40EF342E50E273
:100E1000452E2224239480914B3C90911D3C91308F
:100E200041F410921D3C8091480482FF04C080E090
:100E3000F4CF8823E1F310924B3C40E052EC61E0A8
:100E400070E088E59CE359DC62E08AE05FDC62E008
:100E50008BE05CDC10921608509213085092150833
:100E600090E080E05CD9882309F4AFC031E0309392
:100E7000493C40E14093A00087E1809302068DE168
:100E8000809306065092000650920806809108064C
:100E900080FDFCCF6091100670911106C3010DD347
:100EA0008B01F89430922504409246047894E7DA56
:100EB00081E090E08093083C9093093C8091063C4F
:100EC0009091073C2091043C3091053C8217930798
:100ED00021F08093043C9093053C8091043C9091D8
:100EE000053C10924701209141012111FCCF8093D4
:100EF0004A0190934B0180914201816080934201AD
:100F000089EA80934001C8014D978F83988727E332
:100F1000A22E2CE3B22E80914A3C81119CC10D314E
:100F2000110530F4F89490E19093270449B878942F
:100F3000EF81F885329708F05DC08091083C909170
:100F4000093C019709F03FC02FB7F89480914E3CBF
:100F500090914F3CA091503CB091513C2FBFC0901C
:100F6000453CD090463CE090473CF090483C9C018A
:100F7000AD012C193D094E095F092D373105410599
:100F80005105D8F28093453C9093463CA093473C52
:100F9000B093483C8091433C9091443C01968093AF
:100FA000433C9093443C05979CF0F8943092250480
:100FB0004092460478941092433C1092443C109224
:100FC000083C1092093CCADAA6CF1092493C3CCFAB
:100FD0008091423C85258093423C882349F080E102
:100FE00030922504F8948093270449B87894A5CFCB
:100FF00080E0F6CF0F31110508F48DCF1092393C07
:1010000088E59CE37AD918161906ECF488E59CE388
:1010100052D98A3039F42092393C10921E3C1092F9
:101020001F3CEECF1092393C20911E3C30911F3C6A
:10103000F901E05EF34C80832F5F3F4F20931E3C0D
:1010400030931F3CDDCF8091393C882309F4FEC0EA
:101050001092393CE0E2FCE390E080E021912A33F9
:1010600009F40196AE16BF06C9F78093373C9093FA
:10107000383C06970CF477C067ED75E980E29CE395
:1010800050D127D180933C3C67ED75E990E080E03A
:1010900048D11FD180933B3C67ED75E990E080E03B
:1010A00040D117D180933A3C67ED75E990E080E03C
:1010B00038D10FD180933D3C67ED75E990E080E039
:1010C00030D107D180933E3C67ED75E990E080E038
:1010D00028D1FFD080933F3C67ED75E990E080E038
:1010E00020D1F7D08093403C67ED75E990E080E037
:1010F00018D1EFD028EE33E0829FA001839F500DDE
:10110000929F500D112449835A83842F909101148A
:10111000941779F0A1E0B4E1E0E0F0E10FB62281AC
:101120002370E9F7F8948C938DE984BF83E0808382
:101130000FBE9A8180910214981779F0A2E0B4E171
:10114000E0E0F0E10FB622812370E9F7F8949C9378
:101150009DE994BF93E090830FBE4093063C50936B
:10116000073C2092413C8091413C882309F42BCFDD
:101170003091403C40913F3CE0913E3C50913D3CA1
:10118000F0913C3CA0913B3C80913A3C2AE0622F9C
:1011900088D18295807F980F9093D43C8A2F81D1FB
:1011A0008295807F980F9093D53C8F2F7AD182952E
:1011B000807F980F9093D63C8E2F73D18295807F3D
:1011C000980F9093D83C81E001C0880F5A95EAF7B8
:1011D0008093D73C842F65D18295807F980F909320
:1011E000D93C80E3830F5DD18295807F980F9093E7
:1011F000DA3C90E080E00E948F00882321F181E1B9
:101200000E947F008823F9F01092DB3C84EDE82EE9
:101210008CE3F82E9BED892E9CE3992EF7018191AA
:101220007F010E947F00882329F08091DB3C8F5F43
:101230008093DB3C8E149F0489F78091DB3C8730E0
:1012400041F4809314081092413CBDCE1092413C71
:101250008ACF87E0F6CF10924A3C11D988E59CE30B
:10126000DAD888E59CE355D8FBD8EBD88895D3CD60
:101270002F923F924F925F926F927F928F929F92A6
:10128000AF92BF92CF92DF92EF92FF920F931F9394
:10129000CF93DF93CDB7DEB7CA1BDB0BCDBFDEBF6D
:1012A00009942A88398848885F846E847D848C8478
:1012B0009B84AA84B984C884DF80EE80FD800C8181
:1012C0001B81AA81B981CE0FD11DCDBFDEBFED013B
:1012D0000895FC0188279927E89421912032E9F3A9
:1012E000293010F02E30C8F32B3239F02D3231F482
:1012F000689403C040D0820F911D219120532A3061
:10130000C8F31EF4909581959F4F0895FC010590B8
:10131000061621F00020D9F7C00108953197CF01BA
:1013200008954CED5CE300C0FA01A191B0810097F3
:1013300019F41097E1F0CD01DC01CD010D900020F2
:1013400011F4C00113C0FB012191222319F02015D3
:10135000D9F7F3CFFB012191201519F41E921196B4
:1013600006C02223C1F70D900020A1F7D001FA0199
:10137000A193B08308957AE0979F902D879F802D49
:10138000910D112408950F931F93CF93DF93182F7E
:10139000092FEB018B8181FD09C01FEF0FEF812F1A
:1013A000902FDF91CF911F910F91089582FF14C06C
:1013B0002E813F818C819D81281739073CF4E8817B
:1013C000F981CF0101968883998310838E819F8153
:1013D00001968E839F83E3CFE885F985812F099558
:1013E000892BA1F3DACFFA01AA27283051F1203155
:1013F00081F1E8946F936E7F6E5F7F4F8F4F9F4FA9
:10140000AF4FB1E03ED0B4E03CD0670F781F891FEA
:101410009A1FA11D680F791F8A1F911DA11D6A0FB8
:10142000711D811D911DA11D20D009F468943F916B
:101430002AE0269F11243019305D3193DEF6CF016A
:101440000895462F4770405D4193B3E00FD0C9F730
:10145000F6CF462F4F70405D4A3318F0495D31FD9D
:101460004052419302D0A9F7EACFB4E0A6959795F0
:10147000879577956795BA95C9F7009761057105C6
:1014800008959B01AC010A2E069457954795379510
:101490002795BA95C9F7620F731F841F951FA01D6A
:1014A0000895991B79E004C0991F961708F0961BC0
:1014B000881F7A95C9F780950895AA1BBB1B51E137
:1014C00007C0AA1FBB1FA617B70710F0A61BB70BB4
:1014D000881F991F5A95A9F780959095BC01CD0159
:1014E0000895A1E21A2EAA1BBB1BFD010DC0AA1F65
:1014F000BB1FEE1FFF1FA217B307E407F50720F07D
:10150000A21BB30BE40BF50B661F771F881F991FF7
:101510001A9469F760957095809590959B01AC0140
:10152000BD01CF0108950FD0A59F900DB49F900DE0
:10153000A49F800D911D11240895EE0FFF1F0590AB
:10154000F491E02D0994A29FB001B39FC001A39F25
:10155000700D811D1124911DB29F700D811D1124EC
:08156000911D0895F894FFCFDE
:101568007E0CB69ECCDAFA0EFEDE1009080A0B12C3
:10157800131400040506070706050403020100000A
:10158800010203040501020300000000000101013B
:101598000101010101020202020202000000001022
:1015A8002040808040201008040201010204081035
:1015B800200204080100000000BF011F014C010BBC
:1015C800027D015B016F017D03AB0389011F023AB4
:0115D8000012
:0A15D9000A0A0A0A8813EC13010045
:00000001FF
