:100000004AC000007BC0000079C0000077C000003B
:1000100075C0000011C50000FEC400006FC00000E4
:100020006DC00000A2C4000069C0000067C00000ED
:1000300065C0000063C0000061C000005FC0000038
:100040005DC000005BC0000059C0000057C0000048
:1000500055C0000053C0000051C000004FC0000058
:100060004DC000004BC0000049C0000011C400009A
:100070000AC4000012C4000041C0000045464765A4
:10008000666700202B2D2E30313233343536373829
:10009000396800003E0611241FBECFEFCDBFDFE35D
:1000A000DEBF8091400080934000811105C098ED33
:1000B00021E094BF209341008CBB2CE3AAE0BCE379
:1000C00001C01D92AE3DB207E1F71CE3A0E0BCE326
:1000D000EDE3F5E102C005900D92AA30B107D9F722
:1000E00010E0CBE4D0E004C02197FE010E944F0A4B
:1000F000CA34D107C9F7D9D50C94640A81CF90913D
:10010000150896FFFCCF8093180882E080931408AE
:10011000809115088295817091E089270895892B37
:10012000C9F08FEF9FEF8093563C9093573C81E04E
:1001300084668093170880911508807CE1F3809194
:10014000150883FD09C0809115088295817091E0A2
:100150008927089580E0ECCF80E00895CF93DF9366
:10016000EC0190E080E0DBDF811102C080E032C072
:1001700080E1C5DF8823D1F38FEF9FEFD0DF8823A5
:10018000A9F3FE019E01285F3F4F46E052E08091B7
:10019000563C9091573C009729F001978093563C2C
:1001A0009093573C8091150887FFFCCF80911808E9
:1001B0006091563C7091573C672B79F0509314082E
:1001C00081932E173F0719F787E08093140881E089
:1001D000CD2B61F2DF91CF91089540931408F0CFB9
:1001E000AF92BF92CF92DF92EF92FF920F931F9345
:1001F000CF93DF936C017B018B01040F151FEB0183
:100200005E01AE18BF08C017D10759F06991D60139
:10021000ED91FC910190F081E02DC6010995892BAB
:1002200079F7C501DF91CF911F910F91FF90EF906A
:10023000DF90CF90BF90AF900895FC01538944891F
:10024000252F30E0842F90E0821B930B541710F081
:100250004F96089501970895FC0191898289981716
:1002600061F0A289AE0FBF2FB11D55968C91928976
:100270009F5F9F73928B90E008958FEF9FEF08959B
:10028000FC0191898289981731F08289E80FF11D6C
:10029000858990E008958FEF9FEF0895FC01918983
:1002A0002289892F90E0805C9F4F821B91098F7378
:1002B00099270895CF93DF93EC01E881F9810680B7
:1002C000F781E02D0995EC85FD8586811682858173
:1002D000158280E484838A89898B188ADF91CF9183
:1002E0000895DC010FB607FE04C080911101882338
:1002F000B1F01C96ED91FC911D97848185FF0FC094
:1003000053969C91539754968C91981721F0858120
:100310008F7D85830895E8E5FCE3E894C9C20895DC
:100320000F931F93CF93DF93EC018889982F9160EF
:10033000988B2B899C8929130AC0EC85FD859481B3
:1003400095FF05C081FD0DC080E4848312C0062F97
:100350001B891F5F1F718C89811315C0CE01C1DFFE
:10036000FACF85818F77806490E49483EC85FD8556
:100370008583EC85FD85628381E090E0DF91CF91FC
:100380001F910F910895EB89EC0FFD2FF11DEB5A92
:10039000FF4F00831B8BEC85FD85888981FF09C099
:1003A00085818F77806690E49483EC85FD858583D5
:1003B000E3CF85818062FBCFCF93DF93EC01888907
:1003C000882359F0EC85FD85858185FD03C08481F6
:1003D00086FD03C0CE0185DFF5CFDF91CF91089573
:1003E00081E008958FB7F8946091210A90910B0AEB
:1003F0002091173C3091183C4091193C50911A3C87
:100400008FBF8EEF861B91FF06C0843020F42F5FD4
:100410003F4F4F4F5F4F93E0899FF0011124982F7A
:1004200092959F70E91BF10986958695E80FF11D5D
:10043000A0E3B3E00E94450A6E0F7F1F811D911D4E
:100440000895E0E2F4E081E0818382E08183F89422
:1004500084818E7F848384818D7F848378940895C2
:10046000E0E2F4E084E0818388E08183F894848191
:100470008B7F84838481877F848378940895F89424
:1004800080E2809346048EEF8093060480EF809391
:100490002504789408950F931F93CF93DF93EC0175
:1004A000A1DF60930C3C70930D3C80930E3C9093C5
:1004B0000F3C00911B3C10911C3C20911D3C309145
:1004C0001E3C601B710B820B930B6A30710581051A
:1004D0009105D0F18EEF8093060480EF8093250480
:1004E000F89480910A3C90910B3C21E130E0082E79
:1004F00001C0220F0A94EAF7207F20932704C80F37
:10050000D91FE881F0E0E453FB46808181B97894FB
:1005100080910A3C90910B3C019684309105CCF47B
:1005200080930A3C90930B3C80910C3C90910D3C45
:10053000A0910E3CB0910F3C80931B3C90931C3CCF
:10054000A0931D3CB0931E3CDF91CF911F910F9162
:10055000089510920A3C10920B3CE6CFCF92DF92A6
:10056000EF92FF92CF93DF93CDB7DEB72897CDBF41
:10057000DEBF8FB7F894C090483CD090493CE090E3
:100580004A3CF0904B3C8FBFC092113CD092123C41
:10059000E092133CF092143C80911F3C9091203CDF
:1005A000A091213CB091223CA7019601281B390B58
:1005B0004A0B5B0BDA01C901883E9340A105B105E6
:1005C00008F43BC08091533C882309F47FC083ED3D
:1005D0009CE3C4DD882309F479C08091D43C282FA2
:1005E00022952F709AE08F70299F800D11248B33F4
:1005F000C9F48A81282F22952F708F70299F800D32
:100600001124811109C088E0FE013196A3EDBCE3FD
:1006100001900D928A95E1F7CE0101969FDD882326
:1006200009F454C081E08093103CC0921F3CD092EA
:10063000203CE092213CF092223C8091533C882364
:1006400009F447C08091103C882309F442C080918E
:10065000D63C982F92959F702AE08F70929F800DC4
:100660001124622FD0D6392FCED69093CD3C309323
:10067000CE3C8091D53C982F92959F708F70929F21
:10068000800D1124C0D6392FBED69093CF3C309325
:10069000D03C8091D43C982F92959F708F70929F00
:1006A000800D1124B0D6392FAED69093D13C309323
:1006B000D23C8DEC9CE3EFDE2896CDBFDEBFDF9110
:1006C000CF91FF90EF90DF90CF9008951092103C63
:1006D000ACCF80E09CE3EFCFDC01ED91FC91008892
:1006E000F189E02D23E030E009948631F0F490E0C8
:1006F000FC01ED5FFA4620812F3FB9F0FC01E35188
:10070000FB46E081E295EE0FF0E0F460613071F4B9
:10071000218389529B46DC018C918061E80FF11D99
:100720008081613029F08860808308952283F1CF31
:10073000877FFACF8F929F92AF92BF92EF92FF92F4
:100740000F931F93CF93DF938C014A015B01E90163
:10075000DC0150968C91509780FF07C0ED91FC9181
:100760000288F389E02DC8010995C11101C0C3E0D9
:10077000EC2EE894E2F8FD2ECD2FD095D07CB5EB91
:100780008B16B4EC9B06B4E0AB06B10428F0D26043
:10079000B694A7949794879460E07DE281E391E01A
:1007A000A501940150D62034310510F420E430E046
:1007B000F2FCD8608C2F8B72D7FD8068CD2FC87C5F
:1007C00083FF07C0C83C29F4F80190899260908BA0
:1007D000C8ED80FDC160FFB6F894D8011C96ED917C
:1007E000FC911682E7822087318785FF3FC0CF7753
:1007F00091E094879FEF95878F7D8583D683F8015D
:100800002785868590910102222391F19160909332
:100810000102820F9927991F880F991F880F991F2E
:100820008C01075E1A46C6FF25C0C3FD23C061E0E8
:10083000D8018C915ADFC7FF07C0C4FD05C062E034
:10084000D80111968C9151DFC0FF04C061E0F8011E
:1008500083814BDFFFBEDF91CF911F910F91FF90FE
:10086000EF90BF90AF909F908F9008951486C4CF63
:100870009E7FCDCF2C2F2075F1F2875E9A4662E0E5
:10088000FC018081D7CFEF93FF93E8E5FCE308C03C
:10089000EF93FF93E8E5FCE331C0EF93E0E052C053
:1008A0002F932FB72F938F939F93AF93BF936894FA
:1008B000CF93DF9320E0C485D8E09489DF01A90FAE
:1008C000B21FAB5ABF4F8C9120E42C838A839F5F69
:1008D0009F718D812389291302C08F7D8D83948B15
:1008E000DF91CF910EF01BCDBF91AF919F918F9172
:1008F0002F912FBF2F91FF91EF9118952F932FB725
:100900002F938F939F93CF93DF93C485D8E08981F2
:10091000988181FD0DC0C18981E08C0F8F73228980
:10092000281731F0CE0FDF2F20E0D21F9D8B818B57
:10093000DF91CF919F918F912F912FBF2F91FF9199
:10094000EF911895FF938F938FB78F93F8E0808185
:10095000848187FFFCCF85818F7B806885838F9121
:100960008FBF8F91FF91EF9118951F920F920FB645
:100970000F9211242F933F934F935F936F938F9315
:100980009F93AF93BF938091483C9091493CA09135
:100990004A3CB0914B3C4091153C5091163C9A0119
:1009A000205D3C4F283E63E0360728F0285E334048
:1009B0000196A11DB11D2093153C3093163C8093E8
:1009C000483C9093493CA0934A3CB0934B3C809167
:1009D000173C9091183CA091193CB0911A3C01969B
:1009E000A11DB11D8093173C9093183CA093193C16
:1009F000B0931A3C82E080930B0ABF91AF919F9114
:100A00008F916F915F914F913F912F910F900FBEFA
:100A10000F901F9018951F920F920FB60F921124EE
:100A20008F9381E0809343018093543C8F910F908A
:100A30000FBE0F901F9018951F920F920FB60F9236
:100A400011248F938BB18093490481E08093233CE0
:100A50008F910F900FBE0F901F901895ABE0B0E0F4
:100A6000E3E3F5E0BBC36C017B013A01FC011682B4
:100A70001782838181FFFFC0CE0101964C01F601F0
:100A8000B380F701B3FC0591B3FE01917F01002310
:100A900041F1053239F4B3FC0591B3FE01917F01B8
:100AA000053239F5B601802F90E01FD4530135018E
:100AB000E6CF1068F701B3FC0591B3FE01917F0109
:100AC00017FD0DC0002369F0602F70E083E890E00F
:100AD000CFD3892B79F7033251F00C3651F3011142
:100AE0000AC0F601868197812B96EEE090C310E153
:100AF000E1CF10E0E5CF602F70E08CE790E0B8D355
:100B0000892B49F05301F4E0AF0EB11CB6018FE31D
:100B100090E0EBD3CCCF033609F452C0033709F48D
:100B200059C0033509F455C0043619F0093609F0E7
:100B300070C0530117FF62C0F4E0AF0EB11CF301A7
:100B400060817181828193811F7E97FF08C090959B
:100B50008095709561957F4F8F4F9F4F10642AE06D
:100B600030E0A401F2D3082F081916FF04C0B60123
:100B70008DE290E0BAD314FF13C0FE01E00FF11D27
:100B80008081803369F0B60180E390E0AED312FF3C
:100B900007C01072812F90E0B601885A9F4FA5D3ED
:100BA000015010E00F5F1F4F080D191DF8018291D1
:100BB0008F01B60190E099D308151905B9F777CFE1
:100BC000530182E0A80EB11CB601F301808191812E
:100BD000A0CF11605301F2E0AF0EB11CF3016080B1
:100BE0007180F30110FD859110FF81913F018823F1
:100BF00009F45DCFB60190E078D3F3CFF2E0AF0E09
:100C0000B11CF30160817181072E000C880B990BD8
:100C10009BCF003709F140F4083501F10F3609F098
:100C200060CF28E030E00CC0053739F0083709F014
:100C300058CF146220E130E003C01F7E2AE030E08C
:100C4000530117FF0FC0F4E0AF0EB11CF301608138
:100C500071818281938185CF1061EBCF146020E197
:100C600032E0EECFF2E0AF0EB11CF3016081718192
:100C700090E080E076CF8FEF9FEF36CFE8E5FCE3A2
:100C80001282138288EE93E0A0E0B0E08483958323
:100C9000A683B78385E295E98083918380E098E01D
:100CA00084879587168617860895CF93DF9300D0A3
:100CB00000D0CDB7DEB788ED93E084BF909361009C
:100CC00081E5809302061DE01093050650E2852E13
:100CD0008092030681E0809300068093030A6EEF02
:100CE000962E9092260A9092270A89E08093000A15
:100CF00080910A0A826080930A0A78947894B0DB23
:100D0000A0DB88E0809350048093510480935304C7
:100D1000809354048092410480924604909201048E
:100D200080EF80932104ABDB109352048091000686
:100D30008E7F80930006809120088E7F809320080C
:100D400078942FB7F8948091483C9091493CA091B9
:100D50004A3CB0914B3C2FBF80931F3C9093203C6A
:100D6000A093213CB093223C3DDB60931B3C7093ED
:100D70001C3C80931D3C90931E3C2FB7F8948091AF
:100D8000483C9091493CA0914A3CB0914B3C2FBFCC
:100D900080934F3C9093503CA093513CB093523C75
:100DA00080915000897F8460809350008091500032
:100DB00081608093500070E1572EE0EF7E2E442436
:100DC0004394312CFBEDEF2EFCE3FF2EADE3CA2E56
:100DD000ACE3DA2E8091553C9091233C913041F464
:100DE0001092233C8091480482FF04C080E0F4CF3D
:100DF0008823E1F31092553C40E052EC61E070E052
:100E000088E59CE369DC11E062E08AE06EDC62E088
:100E10008BE06BDC109216081093130810931508E2
:100E200090E080E07CD9882309F454C01093533CAF
:100E30005092A00087E1809302068DE18093060620
:100E400010930006109308068091080680FDFCCFE1
:100E5000609110067091110680E09CE2E0D28B0157
:100E6000F8947092250440E2A42EA092460478944F
:100E700006DB4092083C3092093C8091063C909100
:100E8000073C10924701209141012111FCCF809332
:100E90004A0190934B01809142018160809342010D
:100EA00089EA809340016624639437E0232E809181
:100EB000543C811170C10F31110508F088C10D310A
:100EC0001105E0F4F8945092270420E2B22EB9B84C
:100ED0007894EDCF1092533C97CF80914C3C86256F
:100EE00080934C3C882309F455C080E1709225041E
:100EF000F8948093270440E249B978948091083CA3
:100F00009091093C019709F043C02FB7F894809164
:100F1000483C9091493CA0914A3CB0914B3C2FBF3A
:100F200020914F3C3091503C4091513C5091523C6B
:100F30004C015D01821A930AA40AB50AA501940125
:100F40002D37310541055105C8F280934F3C9093F0
:100F5000503CA093513CB093523C80914D3C9091B9
:100F60004E3C019680934D3C90934E3C05970CF47B
:100F7000B4CFF8947092250430E23093460478940C
:100F800010924D3C10924E3C1092083C1092093C3D
:100F9000E5DA8DCF80E0AACF10923F3C2091243C2F
:100FA0003091253CF901EA5DF34C80832F5F3F4F80
:100FB0002093243C3093253C88E59CE36FD9181698
:100FC000190664F488E59CE347D98A3029F76092D2
:100FD0003F3C1092243C1092253CEECF80913F3C48
:100FE000882309F4D2C010923F3CE6E2FCE390E093
:100FF00080E021912A3309F40196CE16DF06C9F765
:1010000080933D3C90933E3C06970CF450C06BE3BC
:1010100075E986E29CE337D10ED18093423C6BE3C5
:1010200075E990E080E02FD106D18093413C6BE3DD
:1010300075E990E080E027D1FED08093403C6BE3DF
:1010400075E990E080E01FD1F6D08093433C6BE3DC
:1010500075E990E080E017D1EED08093443C6BE3DB
:1010600075E990E080E00FD1E6D08093453C6BE3DA
:1010700075E990E080E007D1DED08093463C6BE3D9
:1010800075E990E080E0FFD0D6D0FC0198EE892E83
:1010900093E0992EE89DC001E99D900DF89D900D7B
:1010A00011248093043C9093053C6092473C8091CE
:1010B000473C882309F46CCF2091463C3091453C55
:1010C0005091443C4091433CE091423CF091413C82
:1010D0008091403C6AE097D18295807F980F9093F1
:1010E000D43C8F2F90D18295807F980F9093D53CE0
:1010F0008E2F89D18295807F980F9093D63C852F33
:1011000082D18295807F980F9093D83C842D01C026
:10111000880F4A95EAF78093D73C832F74D1829544
:10112000807F980F9093D93C80E3820F6CD1829599
:10113000807F980F9093DA3C90E080E00E948F00CF
:10114000882301F181E10E947F008823D9F0109269
:10115000DB3C84ED882E8CE3982EF40181914F01C5
:101160000E947F00882329F08091DB3C8F5F809371
:10117000DB3CE814F90489F78091DB3C873041F4CB
:10118000809314081092473C03CF1092473C8FCFB6
:1011900020921408F7CF1092543C8091043C909117
:1011A000053C2091063C3091073C8217930721F0C3
:1011B0008093063C9093073C62D988E59CE3FCD879
:1011C00088E59CE377D84CD93CD9889503CE10921A
:1011D0003F3CF2CE2F923F924F925F926F927F925E
:1011E0008F929F92AF92BF92CF92DF92EF92FF9237
:1011F0000F931F93CF93DF93CDB7DEB7CA1BDB0BE3
:10120000CDBFDEBF09942A88398848885F846E8400
:101210007D848C849B84AA84B984C884DF80EE801A
:10122000FD800C811B81AA81B981CE0FD11DCDBF5C
:10123000DEBFED010895FC0188279927E8942191EC
:101240002032E9F3293010F02E30C8F32B3239F078
:101250002D3231F4689403C040D0820F911D21914A
:1012600020532A30C8F31EF4909581959F4F08951E
:10127000FC010590061621F00020D9F7C001089561
:101280003197CF0108954CED5CE300C0FA01A191C4
:10129000B081009719F41097E1F0CD01DC01CD0188
:1012A0000D90002011F4C00113C0FB0121912223F5
:1012B00019F02015D9F7F3CFFB012191201519F46E
:1012C0001E92119606C02223C1F70D900020A1F7AF
:1012D000D001FA01A193B08308957AE0979F902DF1
:1012E000879F802D910D112408950F931F93CF9305
:1012F000DF93182F092FEB018B8181FD09C01FEFB0
:101300000FEF812F902FDF91CF911F910F910895B3
:1013100082FF14C02E813F818C819D81281739075F
:101320003CF4E881F981CF01019688839983108389
:101330008E819F8101968E839F83E3CFE885F98517
:10134000812F0995892BA1F3DACFFA01AA2728303A
:1013500051F1203181F1E8946F936E7F6E5F7F4F82
:101360008F4F9F4FAF4FB1E03ED0B4E03CD0670FFE
:10137000781F891F9A1FA11D680F791F8A1F911D51
:10138000A11D6A0F711D811D911DA11D20D009F4A1
:1013900068943F912AE0269F11243019305D3193E3
:1013A000DEF6CF010895462F4770405D4193B3E0CC
:1013B0000FD0C9F7F6CF462F4F70405D4A3318F073
:1013C000495D31FD4052419302D0A9F7EACFB4E024
:1013D000A6959795879577956795BA95C9F70097DC
:1013E0006105710508959B01AC010A2E069457957D
:1013F000479537952795BA95C9F7620F731F841FD4
:10140000951FA01D0895991B79E004C0991F961798
:1014100008F0961B881F7A95C9F780950895AA1B36
:10142000BB1B51E107C0AA1FBB1FA617B70710F0CF
:10143000A61BB70B881F991F5A95A9F78095909501
:10144000BC01CD010895A1E21A2EAA1BBB1BFD0110
:101450000DC0AA1FBB1FEE1FFF1FA217B307E40793
:10146000F50720F0A21BB30BE40BF50B661F771FEB
:10147000881F991F1A9469F76095709580959095CB
:101480009B01AC01BD01CF0108950FD0A59F900D28
:10149000B49F900DA49F800D911D11240895EE0F0F
:1014A000FF1F0590F491E02D0994A29FB001B39F16
:1014B000C001A39F700D811D1124911DB29F700D5D
:0C14C000811D1124911D0895F894FFCFA8
:1014CC007E0CB69ECCDAFA0EFEDE1004050607077B
:1014DC0006050403020100000102030405010203D6
:1014EC0000000000000101010101010101020202E2
:1014FC0002020200000000102040808040201008F2
:10150C000402010102040810200204080109080A5F
:10151C000B12131400000000009001F0001D01DC00
:10152C00014E012C0140016C039A035A01F0013A5F
:01153C0000AE
:0A153D000A0A0A0A0410A00F0100B8
:00000001FF
